:100000000C9460010C9488010C9488010C94880174
:100010000C9488010C9488010C9488010C9488013C
:100020000C9488010C9488010C94C00E0C948E0DD5
:100030000C9488010C9488010C9488010C9488011C
:100040000C9488010C9488010C9488010C9488010C
:100050000C9488010C9488010C9488010C948F06F0
:100060000C9488010C9488010C9488010C948801EC
:100070000C9488010C9488010C9488010C948801DC
:100080000C9488010C9488010C9488010C948801CC
:100090000C94B5040C9488010C9488010C9488018C
:1000A0000C9488010C9488010C9488019E07A10788
:1000B000900794079A07C207C207C207A507A907B6
:1000C000AD07B307B707C207BD070000000200096C
:1000D0000F0000030401000C0000000000000000FD
:1000E00000000000000000000408020110408040F1
:1000F000102040804080080204018040201002014E
:10010000108010204040040404040403040502028B
:1001100002020403020202020606060606060404A0
:100120000202020400000000250028002B002E001F
:100130003100080B00020202010009040000010264
:10014000020000052400100105240101010424021D
:10015000060524060001070581031000400904017B
:1001600000020A00000007050202400000070583A4
:100170000240000000C18081C112010002020000A3
:1001800040032A4180000101020001120100020027
:10019000000040032A418000010102000141726415
:1001A00075696E6F2053726C0041726475696E6F71
:1001B0002059756E000403090400000000000000CF
:1001C000002A2B28000000000000000000000000B2
:1001D0000000000000000000002C9EB4A0A1A2A41A
:1001E00034A6A7A5AE362D3738271E1F202122237F
:1001F000242526B333B62EB7B89F84858687888991
:100200008A8B8C8D8E8F90919293949596979899D6
:100210009A9B9C9D2F3130A3AD3504050607080934
:100220000A0B0C0D0E0F10111213141516171819B6
:100230001A1B1C1DAFB1B0B5000904020001030078
:100240000000092101010001226500070584034027
:10025000000105010902A1010901A10085010509AB
:1002600019012903150025019503750181029501E6
:100270007505810305010930093109381581257F8C
:10028000750895038106C0C005010906A101850214
:10029000050719E029E71500250175019508810278
:1002A00095017508810395067508150025650507F4
:1002B000190029658100C000A201D303CB086B108F
:1002C00011241FBECFEFDAE0DEBFCDBF11E0A0E00A
:1002D000B1E0E6EBF5E202C005900D92A03EB10759
:1002E000D9F723E0A0EEB1E001C01D92A831B2071A
:1002F000E1F712E0C0ECD2E004C02297FE010E94B8
:10030000BB12C83BD107C9F70E94E9080C94D91267
:100310000C94000040E855E260E070E082EB92E06F
:100320000E94B60882EB92E00E94BC088823D1F3B9
:1003300084EE91E00E94EA0560E072E084EE91E0D4
:100340000C94EE0568E484EE91E00C94E2054F9283
:100350005F926F927F928F929F92AF92BF92CF9255
:10036000DF92EF92FF92C12CD12CE12C8CE3F82E7E
:10037000812C912CA12C9DE3B92E412C512C20E4F1
:10038000622E2EE3722E82EB92E00E942308181652
:1003900019060CF0A7C082EB92E00E943308863762
:1003A00019F466E171E08FC08337C9F482EB92E003
:1003B0000E94A10B70930B0160930A0163E571E049
:1003C00082EB92E00E943A0960910A0170910B0160
:1003D0004AE050E082EB92E00E94E60978C087365E
:1003E00091F682EB92E00E94A10B62307105E1F17F
:1003F00094F46115710549F16130710509F061C02E
:1004000060E072E084EE91E00E94EE0580E090E012
:10041000A0E0BEE33EC06830710589F1603171052E
:1004200009F440C06430710509F04BC060E076E02B
:1004300084EE91E00E94EE05809206019092070101
:10044000A0920801B09209019ECF60E070E084EEB6
:1004500091E00E94EE0540920601509207016092E1
:100460000801709209018FCF60E074E084EE91E0A2
:100470000E94EE0580E090E0A0E8BDE30AC060E0E5
:1004800078E084EE91E00E94EE0580E090E0A0E24A
:10049000BEE38093060190930701A0930801B093F7
:1004A000090171CF60E07AE084EE91E00E94EE05F0
:1004B000C0920601D0920701E0920801F092090172
:1004C00062CF64E671E082EB92E00E943A0961E556
:1004D00071E082EB92E00E943A0982EB92E00E9486
:1004E000200851CF84EE91E00E9445069093E301ED
:1004F0008093E20184EE91E00E946A069093E1010C
:100500008093E0016BE771E082EB92E00E943A0990
:1005100061E871E082EB92E00E943A090E94D906FC
:10052000AB01BC012AE030E082EB92E00E94EE09D0
:100530006AE871E082EB92E00E943A096091E20180
:100540007091E301882777FD8095982F0E947C1198
:100550002091060130910701409108015091090155
:100560000E943012AB01BC0122E030E082EB92E04D
:100570000E94E60A67E971E082EB92E00E943A0984
:100580006091E0017091E101882777FD8095982FB7
:100590000E947C11209106013091070140910801D1
:1005A000509109010E943012AB01BC0122E030E001
:1005B00082EB92E00E94E60A6FE471E082EB92E047
:1005C0000E943A0961E571E082EB92E00E943A09EB
:1005D00060910A0170910B01882777FD8095982F13
:1005E0000E94080782EB92E0FF90EF90DF90CF909F
:1005F000BF90AF909F908F907F906F905F904F9043
:100600000C9420088091190290E020911A02821B1C
:100610009109089520911A0280911902281750F427
:10062000E22FF0E0E55EFD4F808190E02F5F2093A8
:100630001A0208958FEF9FEF0895E0911A028091BA
:100640001902E81730F4F0E0E55EFD4F808190E09C
:1006500008958FEF9FEF08950895CF92DF92EF9264
:10066000FF920F931F93CF93DF937C01CB018A01FD
:100670002091F501222389F0EB016B01C40ED51EF8
:10068000CC15DD0569F06991D701ED91FC910190E0
:10069000F081E02DC7010995F3CF642F0E948C04EF
:1006A000C801DF91CF911F910F91FF90EF90DF90E4
:1006B000CF900895CF93DF931F92CDB7DEB76983B4
:1006C0002091F5012223D1F02091F601203240F053
:1006D00021E030E0FC013383228380E090E015C00C
:1006E0008091F701E82FF0E0E850FE4F9981908368
:1006F0008F5F8093F7018093F60105C061E0CE0122
:1007000001960E948C0481E090E00F90DF91CF91E0
:100710000895FC011382128248EE53E060E070E01D
:10072000448355836683778388EA91E0918380834D
:10073000089510921A02109219021092F701109265
:10074000F6010C94D703862F413208F040E26BE1AA
:1007500072E00E94F50310921A0280931902089524
:1007600021E00C94A30381E08093F50160931802CB
:100770001092F7011092F60108950F93062F21E0D1
:100780004091F60168EF71E0809118020E943904EF
:100790001092F7011092F6011092F5010F91089551
:1007A00061E00C94BD0389EE91E00C9489031092F2
:1007B000A80281E08093A6021092A50261E082E087
:1007C0000E94C30761E083E00E94C307E9EBF0E009
:1007D00080818E7F808380818D7F808380E2809383
:1007E000B80085E48093BC000895413208F03FC012
:1007F0009091A8029111FCCF91E09093A8022093D0
:10080000A6022FEF20933B0210928002240F209328
:100810007F029093A7029091A702880F892B809363
:10082000A7028091A502813041F41092A502809127
:10083000A7028093BB0085EC01C085EE8093BC00CD
:100840008091A8028130E1F380918002841710F436
:100850004091800221E832E0FB01D9018A2F821BFE
:10086000841718F48D918193F9CF842F089580E037
:1008700008950F93413208F046C09091A80291115B
:10088000FCCF92E09093A8020093A6029FEF909372
:100890003B021092800240937F02FB0161E872E00C
:1008A000DB019A2F961B941718F491919D93F9CF21
:1008B0001092A7029091A702880F892B8093A7021C
:1008C0008091A502813041F41092A5028091A70287
:1008D0008093BB0085EC01C085EE8093BC00222391
:1008E00021F08091A8028230E1F380913B028F3F9A
:1008F00061F080913B02803251F080913B02803365
:1009000041F483E007C081E005C080E003C082E0DD
:1009100001C084E00F910895613298F42091A802FB
:10092000243089F460935D02FC018FE592E0DC01E4
:100930002A2F281B261718F421912D93F9CF80E038
:10094000089581E0089582E0089585ED8093BC00CC
:100950008091BC0084FDFCCF1092A802089585EC24
:100960008093BC001092A80208951F920F920FB6B8
:100970000F9211242F933F934F935F936F937F9325
:100980008F939F93AF93BF93EF93FF938091B900A1
:10099000887F803609F49CC068F5883209F45BC012
:1009A00090F4803109F454C038F4882309F4F5C078
:1009B000883009F44DC0F5C0883109F44CC080324C
:1009C00009F45DC0EEC0803409F468C048F4803397
:1009D00009F455C0883309F0E4C080933B02A8C0F5
:1009E000803509F44FC0883509F45DC0883409F0BA
:1009F000D8C0D5C0883909F4C6C0A8F4883709F42E
:100A000067C038F4883609F463C0803709F460C0E1
:100A1000C8C0883809F4B7C0803909F45FC080388D
:100A200009F0BFC05BC0803B09F485C038F4803A50
:100A300009F466C0883A09F47EC0B3C0803C09F46A
:100A4000A6C0883C09F4A3C0883B09F489C0A9C0AA
:100A50008091A70210C09091800280917F02981728
:100A600070F5E091800281E08E0F80938002F0E0CB
:100A7000EF57FD4F80818093BB0085EC85C080934C
:100A80003B028DC0E091800281E08E0F8093800256
:100A90008091BB00F0E0EF57FD4F80839091800282
:100AA00080917F026DC0E091800281E08E0F809383
:100AB00080028091BB00F0E0EF57FD4F8083809172
:100AC000A60281116CC081E08093A50284EA60C017
:100AD00083E08093A80210923C02CFCF80913C0229
:100AE000803208F050C0E0913C0281E08E0F80938C
:100AF0003C028091BB00F0E0E35CFD4F8083BDCF02
:100B000080913C02803230F4E0913C02F0E0E35C02
:100B1000FD4F10820E94A50460913C0270E0E091BC
:100B2000A102F091A2028DE392E0099510923C029D
:100B30000E94AF0436C084E08093A80210925E0247
:100B400010925D02E091A302F091A40209958091B8
:100B50005D02811105C081E080935D0210925F0209
:100B6000E0915E0281E08E0F80935E02F0E0E15A38
:100B7000FD4F80818093BB0090915E0280915D0269
:100B8000981708F47ACF85E88093BC000AC085ECFA
:100B90008093BC001092A80204C010923B020E94F5
:100BA000A504FF91EF91BF91AF919F918F917F919C
:100BB0006F915F914F913F912F910F900FBE0F90CA
:100BC0001F901895FC0114821382608388E0818352
:100BD0001282089589EE91E00C949903FC017483CC
:100BE000638308951F93CF93DF9300D0CDB7DEB713
:100BF000162F682F89EE91E04A8359830E94B30330
:100C0000612F89EE91E00E945A035981652F89EE88
:100C100091E00E945A034A81642F89EE91E00E947C
:100C20005A0389EE91E00F900F90DF91CF911F91C1
:100C30000C94D0031F93CF93DF93182F682F89EE66
:100C400091E00E94B30360E089EE91E00E945A03B4
:100C500089EE91E00E94D00342E0612F89EE91E09D
:100C60000E94B00389EE91E00E940A03182F89EEDA
:100C700091E00E940A03D12F20E0C22F9E01282B71
:100C8000C901DF91CF911F910895CF93DF93EC01BC
:100C90004B815C814368516861E088810E94F20564
:100CA000698170E080E090E00E94080788810E94DE
:100CB0001A062A81022E02C0969587950A94E2F7B9
:100CC000222329F0811528E0920708F0906FDF9128
:100CD000CF910895CF93DF93EC014B815C81436802
:100CE000516B61E088810E94F205698170E080E0CB
:100CF00090E00E94080788810E941A062A81022E2D
:100D000002C0969587950A94E2F7222329F081156F
:100D100028E0920708F0906FDF91CF9108951F921D
:100D20000F920FB60F9211242F933F938F939F939F
:100D3000AF93BF938091AA029091AB02A091AC02B5
:100D4000B091AD023091A90223E0230F2D3720F49A
:100D50000196A11DB11D05C026E8230F0296A11D15
:100D6000B11D2093A9028093AA029093AB02A09395
:100D7000AC02B093AD028091AE029091AF02A0910F
:100D8000B002B091B1020196A11DB11D8093AE02D7
:100D90009093AF02A093B002B093B102BF91AF9114
:100DA0009F918F913F912F910F900FBE0F901F90A9
:100DB00018952FB7F8946091AA027091AB028091B8
:100DC000AC029091AD022FBF08953FB7F894809187
:100DD000AE029091AF02A091B002B091B10226B5DF
:100DE000A89B05C02F3F19F00196A11DB11D3FBF63
:100DF0006627782F892F9A2F620F711D811D911DF3
:100E000042E0660F771F881F991F4A95D1F7089512
:100E1000CF92DF92EF92FF92CF93DF936B017C0131
:100E20000E94E506EB01C114D104E104F10489F04C
:100E30000E94340F0E94E5066C1B7D0B683E7340D8
:100E400090F381E0C81AD108E108F108C851DC4FDD
:100E5000EACFDF91CF91FF90EF90DF90CF90089590
:100E6000789484B5826084BD84B5816084BD85B585
:100E7000826085BD85B5816085BDEEE6F0E080814C
:100E800081608083E1E8F0E010828081826080836D
:100E9000808181608083E0E8F0E0808181608083F0
:100EA000E1E9F0E0808182608083808181608083DD
:100EB000E0E9F0E0808181608083E1ECF0E0808116
:100EC0008460808380818260808380818160808370
:100ED000E3ECF0E0808181608083E0ECF0E08081F1
:100EE00082608083E2ECF0E0808181608083EAE7C9
:100EF000F0E0808184608083808182608083808153
:100F000081608083808180688083089590E0FC0107
:100F10003197EF30F105B0F5EA5AFF4F0C94B91252
:100F2000809180008F7703C0809180008F7D8093B7
:100F30008000089580918000877FF9CF84B58F77F6
:100F400002C084B58F7D84BD0895809190008F7715
:100F500007C0809190008F7D03C080919000877FB3
:100F60008093900008958091C0008F7703C0809196
:100F7000C0008F7D8093C00008958091C200877F5C
:100F80008093C20008950F931F93CF93DF931F9216
:100F9000CDB7DEB7282F30E0F901E653FF4F84913B
:100FA000F901E851FF4F1491F901EA5FFE4F0491F6
:100FB0000023C9F0882321F069830E948607698194
:100FC000E02FF0E0EE0FFF1FEC5DFE4FA591B49116
:100FD0009FB7F8948C91611103C01095812301C0D3
:100FE000812B8C939FBF0F90DF91CF911F910F9119
:100FF0000895CF93DF931F92CDB7DEB76983DC01ED
:10100000ED91FC910280F381E02D41E050E0BE01C2
:101010006F5F7F4F09950F90DF91CF910895CF9328
:10102000DF93EC018C859D8597FF05C082E00E94CF
:10103000630C9D878C878C859D85DF91CF9108956A
:1010400083E00C94B60EFC018485958597FD06C05F
:1010500082E00E940B0C90E00196089582E00E94CD
:101060000B0C90E00895FC018485958597FD05C0E3
:101070002FEF3FEF35872487089582E00C94630CAF
:10108000CF93DF93EC0180911301882331F083E04B
:101090000E94940C1816190634F081E090E09B83AE
:1010A0008A8380E090E0DF91CF910895FC01208158
:1010B0002E5F208342E450E062E371E080E80C940C
:1010C0002F0DFC0181819081913A59F4813209F010
:1010D0003CC047E050E06CE071E080E00E942F0DE2
:1010E00043C0913291F5803239F467E070E08CE0D2
:1010F00091E00E94600D06C0823209F035C0828105
:101100008093130180910C0190910D01A0910E012B
:10111000B0910F01803B9440A105B105C1F48091CD
:10112000130180FD14C087E797E79093010880932F
:1011300000082BE088E190E00FB6F894A895809322
:1011400060000FBE209360000FC080E0089588E12A
:101150000FB6F89480936000109260000FBEA895BF
:10116000109201081092000881E008952FEF3FEFE0
:10117000FC01358724870895CF93C09113016AE05D
:1011800070E080E090E00E94080781E0C11101C09A
:1011900080E0CF9108951092B5021092B40288EECB
:1011A00093E0A0E0B0E08093B6029093B702A093E2
:1011B000B802B093B90288EB91E09093B3028093A8
:1011C000B2028FEF9FEF9093BF028093BE0208950B
:1011D00008950E9430070E94E80882E093E00E9490
:1011E000160F0E948A01C0E0D0E00E94A70120975C
:1011F000E1F30E940000F9CFCF92DF92EF92FF92CD
:101200000F931F93CF93DF936C017A01EB01E60EEE
:10121000F71E00E010E0CE15DF0561F06991D60100
:10122000ED91FC910190F081E02DC6010995080F28
:10123000191FF1CFC801DF91CF911F910F91FF903E
:10124000EF90DF90CF9008956115710581F0DB017B
:101250000D900020E9F7AD0141505109461B570B95
:10126000DC01ED91FC910280F381E02D099480E096
:1012700090E008950C942409DC01ED91FC9101901B
:10128000F081E02D09948F929F92AF92BF92CF92FE
:10129000DF92EF92FF920F931F93CF93DF93CDB71F
:1012A000DEB7A1970FB6F894DEBF0FBECDBF7C01AD
:1012B000C42EE52FCB01D22E19A221E02D1510F05E
:1012C0002AE0D22E8E010F5D1F4F8D2C912CA12C68
:1012D000B12C6C2D7E2FA50194010E9497128C2DAC
:1012E000D29E80191124015011098A3014F4805DB6
:1012F00001C0895CF8018083211531054105510544
:1013000021F0C22EE32FCA01E4CFB801C7010E9429
:101310002409A1960FB6F894DEBF0FBECDBFDF91B2
:10132000CF911F910F91FF90EF90DF90CF90BF90E2
:10133000AF909F908F900895CF92DF92EF92FF929F
:101340000F931F93CF93DF93EC016A017B0121156B
:10135000310579F4E881F9810190F081E02D642F65
:10136000DF91CF911F910F91FF90EF90DF90CF9081
:1013700009942A303105E9F477FF1AC06DE20E9422
:101380003C098C0144275527BA014C195D096E09A7
:101390007F092AE0CE010E944309800F911FDF914F
:1013A000CF911F910F91FF90EF90DF90CF90089514
:1013B0002AE0B701A601CE01DF91CF911F910F91D5
:1013C000FF90EF90DF90CF900C9443099A01AB010E
:1013D000662757FD6095762F0C949C0921153105E1
:1013E00041F4DC01ED91FC910190F081E02D642F3E
:1013F00009940C9443094F925F926F927F928F925F
:101400009F92AF92BF92CF92DF92EF92FF920F9393
:101410001F93CF93DF93EC016A017B01B22E9A01F7
:10142000AB01C701B6010E949312882319F064EC46
:1014300071E027C026013701E89477F82FEF3FEFDE
:101440004FE75FE7C301B2010E94931281110DC003
:101450002FEF3FEF4FE75FE7C301B2010E94DD10BE
:1014600018161CF468EC71E00CC02FEF3FEF4FE74B
:101470005FE4C701B6010E942C121816ACF46CECA4
:1014800071E0CE01DF91CF911F910F91FF90EF900E
:10149000DF90CF90BF90AF909F908F907F906F9094
:1014A0005F904F900C9424092FEF3FEF4FE75FECD4
:1014B000C701B6010E94DD1087FDE1CF20E030E0DA
:1014C000A901C701B6010E94DD1087FF0AC06DE2C5
:1014D000CE010E943C098C01F7FAF094F7F8F094E1
:1014E00002C000E010E0A12C60E070E080E09FE32B
:1014F000AB1441F020E030E040E251E40E94E11002
:10150000A394F6CF9B01AC01C701B6010E947910EC
:101510006B017C010E944E112B013C010E947A114B
:101520009B01AC01C701B6010E9478106B017C01E0
:101530002AE0B301A201CE010E944309080F191F3E
:10154000BB2039F060ED71E0CE010E942409080F44
:10155000191F7B2C772041F120E030E040E251E47C
:10156000C701B6010E9430126B017C010E94491133
:101570004B01AA2497FCA094BA2C2AE030E0B501D4
:10158000A401CE010E949C09080F191FC501B401D6
:101590000E947C119B01AC01C701B6010E9478102A
:1015A0006B017C017A94D6CFC801DF91CF911F9156
:1015B0000F91FF90EF90DF90CF90BF90AF909F90F2
:1015C0008F907F906F905F904F9008950C94FB09DF
:1015D0000F931F93CF93DF93EC010E94D906688786
:1015E00079878A879B87E881F9810084F185E02DDE
:1015F000CE01099597FF15C00E94D9060885198567
:101600002A853B85601B710B820B930B0C811D811E
:101610002E813F81601771078207930720F38FEFB8
:101620009FEFDF91CF911F910F910895CF93DF939B
:10163000EC01CE010E94E80A97FD11C08D329105A0
:1016400071F09C01205331092A30310540F0E881C6
:10165000F9810680F781E02DCE010995EACFDF916F
:10166000CF910895CF92DF92FF920F931F93CF9364
:10167000DF9300D000D0CDB7DEB76C01062F0E94FB
:10168000160BFC0197FD4BC020E030E0A901F12CC6
:10169000112707FD1095E017F107E9F0ED32F1058C
:1016A000C1F0CF01C0970A97B0F4AAE0B0E00E9461
:1016B000BF129B01AC01CF01AA2797FDA095BA2FBD
:1016C000280F391F4A1F5B1F205331094109510957
:1016D00002C0FF24F394D601ED91FC910680F781BE
:1016E000E02DC60129833A834B835C830995C601AB
:1016F0000E94E80AFC01C09729813A814B815C81F4
:101700000A9748F2E017F10731F2FF2061F06627EF
:101710007727CB01621B730B840B950B06C060E02F
:1017200070E0CB0102C0CA01B9010F900F900F9079
:101730000F90DF91CF911F910F91FF90DF90CF908D
:10174000089561E00C94320B409106035091070319
:10175000209104033091050342175307B4F490918C
:10176000E8009570E1F39091E80092FD19C0809334
:10177000F100809106039091070301968F739927DA
:10178000892B19F48EEF8093E800809106039091E5
:1017900007030196909307038093060381E0089561
:1017A00080E00895FF920F931F93CF93DF938C01F6
:1017B00088E10E94A40B83E00E94A40BC0E0D0E06B
:1017C000F801EC0FFD1F84910E94A40BF82E80E01D
:1017D0000E94A40B8F2121F02196CB30D10581F7F7
:1017E000DF91CF911F910F91FF900895615030F0DC
:1017F0002091F100FC0120830196F8CF289884E61F
:101800008093090308952FB7FC012083F894677033
:101810006093E9000895CF93DF931F92CDB7DEB7B1
:10182000682FCE0101960E94030C8091F2009981ED
:101830009FBF0F90DF91CF910895FF920F931F9359
:10184000CF93DF9300D0CDB7DEB7F62E8A0190910B
:101850000803992311F057FF03C08FEF9FEF2BC0B0
:10186000682FCE0101967A830E94030C8091F200CA
:1018700090E0A8017A81801791070CF4AC01EF2D5C
:10188000F72FF40E84E6FE1639F0289880930903AA
:101890009091F1009193F7CF4115510521F080917E
:1018A000F200882321F089818FBFCA0104C08BE632
:1018B0008093E800F8CF0F900F90DF91CF911F91A8
:1018C0000F91FF900895CF93DF931F92CDB7DEB7AE
:1018D00041E050E0BE016F5F7F4F0E941D0C0197F9
:1018E00019F4898190E002C08FEF9FEF0F90DF9194
:1018F000CF910895CF93DF931F92CDB7DEB7682FB6
:10190000CE0101960E94030C9091E800892F80720D
:1019100095FF04C09091F20080E4891B99819FBFDC
:101920000F90DF91CF9108956F927F928F929F9247
:10193000AF92BF92CF92DF92EF92FF920F931F93DD
:10194000CF93DF931F92CDB7DEB7782E7B01C42EE5
:10195000B52E80910803882369F0042F152F8AEF94
:10196000D82E872D8072982E9AE3A92E872D807409
:10197000882E11C08FEF9FEF57C0872D0E947A0CE1
:10198000682E81110CC0DA94A9F361E070E080E068
:1019900090E00E9408070115110579F73BC0282F38
:1019A00030E0021713070CF4602E672DCE0101966C
:1019B0000E94030C8091E80085FF29C0262D30E0AD
:1019C000021B130B992039F06A948FEF6816B1F05F
:1019D0001092F100F9CFF701862D77FE07C08150F4
:1019E00058F094919093F1003196F9CF815020F006
:1019F00091919093F100FACFE20EF31E8091E800EE
:101A000085FF0FC00115110511F481100AC08981ED
:101A10008FBFC1CF5D9884E680930A038C2D9B2DE8
:101A200003C0A092E800F3CF0F90DF91CF911F91F8
:101A30000F91FF90EF90DF90CF90BF90AF909F906D
:101A40008F907F906F9008951092E9001092070395
:101A50001092060390930503809304030895CF9298
:101A6000DF92FF920F931F93CF93DF9300D0CDB7F8
:101A7000DEB7F82E8A016B0101151105B1F0F601F0
:101A8000F7FE02C0849101C0808149835A830E947D
:101A9000A40B01501109FFEFCF1ADF0A49815A81C7
:101AA0008111EACF8FEF9FEF01C0CA010F900F9015
:101AB000DF91CF911F910F91FF90DF90CF9008950C
:101AC0001F93CF93DF931F92CDB7DEB7162F2091D0
:101AD000E80022FFFCCF612F79830E94F60B8BEF89
:101AE0008093E800812F7981972F0F90DF91CF911C
:101AF0001F910895CF93DF931F92CDB7DEB7198260
:101B0000CE0101960E945608CE0101960E94530F05
:101B1000898190E00F90DF91CF9108951F920F92ED
:101B20000FB60F921124EF92FF920F931F932F93F2
:101B30003F934F935F936F937F938F939F93AF9355
:101B4000BF93EF93FF93CF93DF93CDB7DEB7629749
:101B5000DEBFCDBF1092E9008091E80083FFE9C0AD
:101B600068E0CE010A960E94F60B82EF8093E800AF
:101B70009A8597FF05C08091E80080FFFCCF03C0E5
:101B80008EEF8093E800892F807609F0B7C08B85AF
:101B9000811105C01092F1001092F100C3C0282FEE
:101BA0002D7F213009F4BEC0853049F48091E800D2
:101BB00080FFFCCF8C8580688093E300B3C08630C3
:101BC00009F074C02D85E888F988223071F580E02D
:101BD00090E02A8B0E94240D0E947A0D99E08E01DC
:101BE0000F5F1F4FF801392F11923A95E9F799834A
:101BF0002A892A8391E09E8390E898879AEF9987B3
:101C00002091060330910703275F3F4F3C832B83CE
:101C10008D83C7010E94240D49E050E0B80180E0A7
:101C20000E942F0D0E947A0D7DC0C7012A8B0E9451
:101C3000240D2A89223241F482E290E00E945E0F54
:101C4000892B09F06FC072C0213069F488899989A5
:101C5000089711F42093030380910303811116C0A8
:101C60006BE871E018C0233009F060C08C858823D0
:101C700081F0823019F489EA91E005C0813009F0E1
:101C800055C08DE991E00E94D20B4AC069E771E02E
:101C900002C065EB71E06115710509F447C0FB01F5
:101CA000449150E080E80E942F0D3CC0873009F439
:101CB0003DC0883021F481E08093F10033C0893049
:101CC00089F5937099F5E5E7F1E081E021E096E38D
:101CD0008093E9002093EB0034913093EC009093D3
:101CE000ED008F5F3196853099F78EE78093EA009B
:101CF0001092EA008C858093080314C08889998922
:101D00000E94240D8E85811105C0CE010A960E9485
:101D1000610806C0823051F4CE010A960E94860FF7
:101D2000882321F08EEF8093E80003C081E2809346
:101D3000EB0062960FB6F894DEBF0FBECDBFDF9109
:101D4000CF91FF91EF91BF91AF919F918F917F9133
:101D50006F915F914F913F912F911F910F91FF9044
:101D6000EF900F900FBE0F901F9018958093E90091
:101D70008091F200882319F08AE38093E8000895A7
:101D80001F920F920FB60F9211242F933F934F93F0
:101D90005F936F937F938F939F93AF93BF93EF93D3
:101DA000FF938091E1001092E10083FF0FC0109239
:101DB000E90091E09093EB001092EC0092E3909395
:101DC000ED001092080398E09093F00082FF1DC090
:101DD00083E00E94B60E80910A03882339F0809137
:101DE0000A03815080930A03882369F080910903D4
:101DF000882359F080910903815080930903811150
:101E000004C0289A02C05D9AF1CFFF91EF91BF9173
:101E1000AF919F918F917F916F915F914F913F9182
:101E20002F910F900FBE0F901F90189510920803DE
:101E300081E08093D70080EA8093D80082E189BD59
:101E400009B400FEFDCF61E070E080E090E00E9408
:101E5000080780E98093D8008CE08093E20010921C
:101E6000E000559A209A08950895FF920F931F93CA
:101E7000CF93DF93EC01F62EE881F9810480F581A0
:101E8000E02D09958C01E881F9810680F781E02D2C
:101E90006F2DCE010995C8019927DF91CF911F9130
:101EA0000F91FF900895FC0120812F5F208349E16D
:101EB00050E069E372E080E80C942F0D45E650E0B5
:101EC00062E572E080E80C942F0DEF92FF920F9381
:101ED0001F93CF93DF931F92CDB7DEB789838B011A
:101EE0007A0141E050E0BE016F5F7F4F84E00E94C5
:101EF000940CA701B80184E40E94940C0F90DF9128
:101F0000CF911F910F91FF90EF900895FC01918167
:101F10008081813A31F481E0913091F0933089F4FD
:101F200011C0813271F49B3021F4828180931501BC
:101F300005C09A3031F482818093140181E00895C4
:101F4000089580E0089548E050E082E00C94650F29
:101F5000CF93DF93DC01683818F0E8E7E60F25C07F
:101F6000E62FF0E067FF11C0E058F10981E090E052
:101F700001C0880FEA95EAF714969C911497982B64
:101F800014969C931497E0E010C0E754FE4FE49140
:101F9000EE2309F440C0E7FF08C014968C91149713
:101FA000826014968C931497EF7716968C911697FF
:101FB0008E1741F117968C9117978E1719F1189675
:101FC0008C9118978E17F1F019968C9119978E179E
:101FD000C9F01A968C911A978E17A1F01B968C91C6
:101FE0001B978E1779F080E090E0ED01C80FD91FA4
:101FF0002E81211102C0EE8305C001968630910525
:10200000A1F709C0BD016C5F7F4FCD010E94A30FF6
:1020100081E090E008C081E090E013969C938E935D
:10202000129780E090E0DF91CF910895683818F022
:10203000E8E7E60F25C0E62FF0E067FF12C0E058A2
:10204000F10921E030E001C0220FEA95EAF720957E
:10205000DC0114963C911497322314963C93E0E0F3
:102060000FC0E754FE4FE491EE2329F1E7FF08C0CB
:10207000DC0114962C9114972D7F14962C93EF77F6
:1020800020E030E0EE2351F0DC01A20FB31F1696E2
:102090004C9116974E1302C016961C922F5F3F4F1D
:1020A0002630310579F7BC016C5F7F4F0E94A30F8A
:1020B00081E090E0089580E090E00895FC011682B0
:1020C000178210861186128613861482BC016C5FFB
:1020D0007F4F0C94A30F1092170310920E031092CF
:1020E0000D0386ED91E090930C0380930B0308950C
:1020F0005058BB27AA270ED075C166D130F06BD1DE
:1021000020F031F49F3F11F41EF45BC10EF4E09512
:10211000E7FB51C1E92F77D180F3BA176207730744
:102120008407950718F071F49EF58FC10EF4E095C1
:102130000B2EBA2FA02D0B01B90190010C01CA0181
:10214000A0011124FF27591B99F0593F50F4503E2C
:1021500068F11A16F040A22F232F342F4427585F1E
:10216000F3CF469537952795A795F0405395C9F736
:102170007EF41F16BA0B620B730B840BBAF09150EE
:10218000A1F0FF0FBB1F661F771F881FC2F70EC08D
:10219000BA0F621F731F841F48F487957795679560
:1021A000B795F7959E3F08F0B3CF9395880F08F049
:1021B0009927EE0F979587950895D9D008F481E077
:1021C00008950CD00FC107D140F0FED030F021F4BB
:1021D0005F3F19F0F0C0511139C1F3C014D198F329
:1021E0009923C9F35523B1F3951B550BBB27AA2798
:1021F00062177307840738F09F5F5F4F220F331F0A
:10220000441FAA1FA9F333D00E2E3AF0E0E830D0D5
:1022100091505040E695001CCAF729D0FE2F27D0D8
:10222000660F771F881FBB1F261737074807AB07A6
:10223000B0E809F0BB0B802DBF01FF2793585F4F1B
:102240002AF09E3F510568F0B6C000C15F3FECF335
:10225000983EDCF3869577956795B795F7959F5FE0
:10226000C9F7880F911D9695879597F90895E1E034
:10227000660F771F881FBB1F621773078407BA0793
:1022800020F0621B730B840BBA0BEE1F88F7E095EE
:10229000089504D06894B111D9C00895BCD088F0D5
:1022A0009F5790F0B92F9927B751A0F0D1F0660F42
:1022B000771F881F991F1AF0BA95C9F712C0B1305D
:1022C00081F0C3D0B1E00895C0C0672F782F882770
:1022D000B85F39F0B93FCCF3869577956795B3959C
:1022E000D9F73EF490958095709561957F4F8F4F0B
:1022F0009F4F0895E89409C097FB3EF49095809510
:10230000709561957F4F8F4F9F4F9923A9F0F92FBB
:1023100096E9BB279395F695879577956795B79539
:10232000F111F8CFFAF4BB0F11F460FF1BC06F5F1F
:102330007F4F8F4F9F4F16C0882311F096E911C031
:10234000772321F09EE8872F762F05C0662371F052
:1023500096E8862F70E060E02AF09A95660F771F66
:10236000881FDAF7880F9695879597F90895990F42
:102370000008550FAA0BE0E8FEEF16161706E8074F
:10238000F907C0F012161306E407F50798F0621B70
:10239000730B840B950B39F40A2661F0232B242B45
:1023A000252B21F408950A2609F4A140A6958FEF64
:1023B000811D811D089597F99F6780E870E060E0B6
:1023C00008959FEF80EC089500240A9416161706CE
:1023D00018060906089500240A9412161306140616
:1023E00005060895092E0394000C11F4882352F079
:1023F000BB0F40F4BF2B11F460FF04C06F5F7F4F31
:102400008F4F9F4F089557FD9058440F551F59F017
:102410005F3F71F04795880F97FB991F61F09F3FD1
:1024200079F087950895121613061406551FF2CFFA
:102430004695F1DF08C0161617061806991FF1CF4A
:1024400086957105610508940895E894BB27662771
:102450007727CB0197F908958ADF08F48FEF089565
:102460000BD0C0CFB1DF28F0B6DF18F0952309F00C
:10247000A2CFA7CF1124EACFC6DFA0F3959FD1F357
:10248000950F50E0551F629FF001729FBB27F00D22
:10249000B11D639FAA27F00DB11DAA1F649F662777
:1024A000B00DA11D661F829F2227B00DA11D621FC6
:1024B000739FB00DA11D621F839FA00D611D221F80
:1024C000749F3327A00D611D231F849F600D211D64
:1024D000822F762F6A2F11249F5750408AF0E1F007
:1024E00088234AF0EE0FFF1FBB1F661F771F881F50
:1024F00091505040A9F79E3F510570F05CCFA6CF98
:102500005F3FECF3983EDCF3869577956795B7953A
:10251000F795E7959F5FC1F7FE2B880F911D969564
:10252000879597F9089523DF880B990B0895A1E209
:102530001A2EAA1BBB1BFD010DC0AA1FBB1FEE1F3D
:10254000FF1FA217B307E407F50720F0A21BB30B88
:10255000E40BF50B661F771F881F991F1A9469F704
:1025600060957095809590959B01AC01BD01CF0160
:102570000895EE0FFF1F0590F491E02D09940E943D
:10258000CA12A59F900DB49F900DA49F800D911D20
:1025900011240895A29FB001B39FC001A39F700DA5
:1025A000811D1124911DB29F700D811D1124911D5B
:0625B0000895F894FFCF2E
:1025B6000000180380000000003E140000E1000047
:1025C60000000000010176657273696F6E207B2240
:1025D6006E616D65223A2261646166727569745F27
:1025E600646966666572656E7469616C222C227612
:1025F600657273696F6E223A22302E302E33227D39
:10260600000A00696E666F2073616D706C65726199
:1026160074652000696E666F206761696E204E6F73
:102626002073756368206761696E00646174612058
:10263600007B2274696D65223A002C226368616E04
:102646006E656C31223A002C226368616E6E656C91
:1026560032223A00000000005A032D0302030A0347
:102666001D032C0300000000F90740082308330867
:102676000F0820086E616E00696E66006F76660050
:102686002E0000000000350FFC08A80F16105E1083
:00000001FF
