:100000000C9461010C9489010C9489010C94890170
:100010000C9489010C9489010C9489010C94890138
:100020000C9489010C9489010C943A0D0C94080CE1
:100030000C9489010C9489010C9489010C94890118
:100040000C9489010C9489010C9489010C94890108
:100050000C9489010C9489010C9489010C949105EC
:100060000C9489010C9440080C9472080C9489013A
:100070000C9489010C9489010C9489010C948901D8
:100080000C9489010C9489010C9489010C948901C8
:100090000C94BB030C9489010C9489010C94890184
:1000A0000C9489010C9489010C948901A006A30683
:1000B000920696069C06C406C406C406A706AB06AE
:1000C000AF06B506B906C406BF0600000002000967
:1000D0000F0000030401000C0000000000000000FD
:1000E00000000000000000000408020110408040F1
:1000F000102040804080080204018040201002014E
:10010000108010204040040404040403040502028B
:1001100002020403020202020606060606060404A0
:100120000202020400000000250028002B002E001F
:10013000310000C18081C1120100020200004003B1
:100140002A418000010102000112010002000000AA
:1001500040032A4180000101020001417264756977
:100160006E6F2053726C0041726475696E6F205916
:10017000756E0004030904080B0002020201000965
:100180000400000102020000052400100105240102
:10019000010104240206052406000107058103105D
:1001A000004009040100020A0000000705020240A5
:1001B000000007058302400000000000000000006E
:1001C000002A2B28000000000000000000000000B2
:1001D0000000000000000000002C9EB4A0A1A2A41A
:1001E00034A6A7A5AE362D3738271E1F202122237F
:1001F000242526B333B62EB7B89F84858687888991
:100200008A8B8C8D8E8F90919293949596979899D6
:100210009A9B9C9D2F3130A3AD3504050607080934
:100220000A0B0C0D0E0F10111213141516171819B6
:100230001A1B1C1DAFB1B0B5000904020001030078
:100240000000092101010001226500070584034027
:10025000000105010902A1010901A10085010509AB
:1002600019012903150025019503750181029501E6
:100270007505810305010930093109381581257F8C
:10028000750895038106C0C005010906A101850214
:10029000050719E029E71500250175019508810278
:1002A00095017508810395067508150025650507F4
:1002B000190029658100C0009801D902A2086C0EBE
:1002C000BF0F11241FBECFEFDAE0DEBFCDBF11E0BC
:1002D000A0E0B1E0ECEEFFE102C005900D92A03B82
:1002E000B107D9F723E0A0EBB1E001C01D92A5381A
:1002F000B207E1F712E0C2ECD2E004C02297FE019F
:100300000E94F00FC83BD107C9F70E94E6080C9481
:10031000F40F0C94000026E040E855E260E070E045
:1003200082E892E00E94DE0784EB91E00C94F004F6
:1003300068E484EB91E00C94E80482E892E00E9487
:10034000FB06892B69F082E892E00E941407863749
:10035000910531F46AE071E082E892E00E9454096C
:1003600084EB91E00E9447059093B3018093B20122
:1003700084EB91E00E946C059093B1018093B001F1
:1003800067E471E082E892E00E9437096DE471E071
:1003900082E892E00E9437090E94DB05AB01BC01B4
:1003A0002AE030E082E892E00E94110A66E571E0FE
:1003B00082E892E00E9437096091B2017091B30126
:1003C0004AE050E082E892E00E94090A63E671E0A8
:1003D00082E892E00E9437096091B0017091B1010A
:1003E0004AE050E082E892E00E94090A65E471E088
:1003F00082E892E00E94370960E771E082E892E0CB
:100400000E94370962E370E080E090E00C940A06F5
:100410008091E90190E02091EA01821B9109089501
:100420002091EA018091E901281750F4E22FF0E0D1
:10043000E551FE4F808190E02F5F2093EA010895FF
:100440008FEF9FEF0895E091EA018091E901E817AD
:1004500030F4F0E0E551FE4F808190E008958FEF99
:100460009FEF08950895CF92DF92EF92FF920F933E
:100470001F93CF93DF937C01CB018A012091C501AB
:10048000222389F0EB016B01C40ED51ECC15DD05CE
:1004900069F06991D701ED91FC910190F081E02D17
:1004A000C7010995F3CF642F0E949203C801DF9121
:1004B000CF911F910F91FF90EF90DF90CF90089513
:1004C000CF93DF931F92CDB7DEB769832091C5012B
:1004D0002223D1F02091C601203240F021E030E00B
:1004E000FC013383228380E090E015C08091C70136
:1004F000E82FF0E0E853FE4F998190838F5F80935F
:10050000C7018093C60105C061E0CE0101960E943B
:10051000920381E090E00F90DF91CF910895FC016C
:100520001382128248EE53E060E070E0448355830A
:100530006683778386E791E09183808308951092A4
:10054000EA011092E9011092C7011092C6010C94C1
:10055000DD02862F413208F040E26BEE71E00E942E
:10056000FB021092EA018093E901089521E00C94C6
:10057000A90281E08093C5016093E8011092C70150
:100580001092C60108950F93062F21E04091C601F5
:1005900068EC71E08091E8010E943F031092C7016E
:1005A0001092C6011092C5010F91089561E00C945C
:1005B000C30289EB91E00C948F021092780281E0E3
:1005C000809376021092750261E082E00E94C50677
:1005D00061E083E00E94C506E9EBF0E080818E7F58
:1005E000808380818D7F808380E28093B80085E462
:1005F0008093BC000895413208F03FC0909178028A
:100600009111FCCF91E090937802209376022FEF26
:1006100020930B0210925002240F20934F029093CC
:10062000770290917702880F892B809377028091CF
:100630007502813041F410927502809177028093A7
:10064000BB0085EC01C085EE8093BC0080917802F0
:100650008130E1F380915002841710F440915002F0
:1006600021E532E0FB01D9018A2F821B841718F49F
:100670008D918193F9CF842F089580E008950F9391
:10068000413208F046C0909178029111FCCF92E07F
:1006900090937802009376029FEF90930B02109252
:1006A000500240934F02FB0161E572E0DB019A2F9B
:1006B000961B941718F491919D93F9CF109277029D
:1006C00090917702880F892B809377028091750231
:1006D000813041F410927502809177028093BB00C3
:1006E00085EC01C085EE8093BC00222321F080912F
:1006F00078028230E1F380910B028F3F61F08091AC
:100700000B02803251F080910B02803341F483E080
:1007100007C081E005C080E003C082E001C084E042
:100720000F910895613298F420917802243089F471
:1007300060932D02FC018FE292E0DC012A2F281B3E
:10074000261718F421912D93F9CF80E0089581E0C8
:10075000089582E0089585ED8093BC008091BC00EF
:1007600084FDFCCF10927802089585EC8093BC0044
:100770001092780208951F920F920FB60F921124D3
:100780002F933F934F935F936F937F938F939F9399
:10079000AF93BF93EF93FF938091B900887F80362A
:1007A00009F49CC068F5883209F45BC090F480318C
:1007B00009F454C038F4882309F4F5C0883009F4EA
:1007C0004DC0F5C0883109F44CC0803209F45DC0D9
:1007D000EEC0803409F468C048F4803309F455C091
:1007E000883309F0E4C080930B02A8C0803509F477
:1007F0004FC0883509F45DC0883409F0D8C0D5C031
:10080000883909F4C6C0A8F4883709F467C038F4F9
:10081000883609F463C0803709F460C0C8C08838DE
:1008200009F4B7C0803909F45FC0803809F0BFC04F
:100830005BC0803B09F485C038F4803A09F466C097
:10084000883A09F47EC0B3C0803C09F4A6C0883C55
:1008500009F4A3C0883B09F489C0A9C0809177023C
:1008600010C09091500280914F02981770F5E0915E
:10087000500281E08E0F80935002F0E0EF5AFD4F5E
:1008800080818093BB0085EC85C080930B028DC076
:10089000E091500281E08E0F809350028091BB0066
:1008A000F0E0EF5AFD4F80839091500280914F020B
:1008B0006DC0E091500281E08E0F809350028091D4
:1008C000BB00F0E0EF5AFD4F8083809176028111EA
:1008D0006CC081E08093750284EA60C083E08093FD
:1008E000780210920C02CFCF80910C02803208F077
:1008F00050C0E0910C0281E08E0F80930C02809139
:10090000BB00F0E0E35FFD4F8083BDCF80910C0220
:10091000803230F4E0910C02F0E0E35FFD4F108292
:100920000E94AB0360910C0270E0E0917102F091C3
:1009300072028DE092E0099510920C020E94B503BC
:1009400036C084E08093780210922E0210922D021D
:10095000E0917302F0917402099580912D0281114A
:1009600005C081E080932D0210922F02E0912E02AB
:1009700081E08E0F80932E02F0E0E15DFD4F8081DB
:100980008093BB0090912E0280912D02981708F45D
:100990007ACF85E88093BC000AC085EC8093BC00C8
:1009A0001092780204C010920B020E94AB03FF91D8
:1009B000EF91BF91AF919F918F917F916F915F91D7
:1009C0004F913F912F910F900FBE0F901F90189550
:1009D000FC0114821382608388E08183128208956F
:1009E00089EB91E00C949F021F93CF93DF9300D08B
:1009F000CDB7DEB7162F682F89EB91E04A83598374
:100A00000E94B902612F89EB91E00E946002598136
:100A1000652F89EB91E00E9460024A81642F89EB87
:100A200091E00E94600289EB91E00F900F90DF91BE
:100A3000CF911F910C94D6021F93CF93DF93182F61
:100A4000682F89EB91E00E94B90260E089EB91E0A8
:100A50000E94600289EB91E00E94D60242E0612F81
:100A600089EB91E00E94B60289EB91E00E941002AE
:100A7000182F89EB91E00E941002D12F20E0C22FA5
:100A80009E01282BC901DF91CF911F910895CF932B
:100A9000DF93EC014B815C814368516861E08881A0
:100AA0000E94F404698170E080E090E00E940A06F0
:100AB00088810E941C052A81022E02C09695879586
:100AC0000A94E2F7222329F0811528E0920708F022
:100AD000906FDF91CF910895CF93DF93EC014B811D
:100AE0005C814368516B61E088810E94F4046981F4
:100AF00070E080E090E00E940A0688810E941C0558
:100B00002A81022E02C0969587950A94E2F7222345
:100B100029F0811528E0920708F0906FDF91CF91BE
:100B200008951F920F920FB60F9211242F933F93A7
:100B30008F939F93AF93BF9380917A0290917B02A2
:100B4000A0917C02B0917D023091790223E0230FC5
:100B50002D3720F40196A11DB11D05C026E8230FF5
:100B60000296A11DB11D2093790280937A02909381
:100B70007B02A0937C02B0937D0280917E029091D3
:100B80007F02A0918002B09181020196A11DB11D4A
:100B900080937E0290937F02A0938002B0938102A3
:100BA000BF91AF919F918F913F912F910F900FBE69
:100BB0000F901F9018952FB7F89460917A0270915A
:100BC0007B0280917C0290917D022FBF08953FB7F8
:100BD000F89480917E0290917F02A0918002B09162
:100BE000810226B5A89B05C02F3F19F00196A11DD3
:100BF000B11D3FBF6627782F892F9A2F620F711D75
:100C0000811D911D42E0660F771F881F991F4A952D
:100C1000D1F70895CF92DF92EF92FF92CF93DF93B7
:100C20006B017C010E94E705EB01C114D104E104D2
:100C3000F10489F00E94AE0D0E94E7056C1B7D0B4C
:100C4000683E734090F381E0C81AD108E108F108CA
:100C5000C851DC4FEACFDF91CF91FF90EF90DF904A
:100C6000CF900895789484B5826084BD84B5816006
:100C700084BD85B5826085BD85B5816085BDEEE6A4
:100C8000F0E0808181608083E1E8F0E01082808183
:100C900082608083808181608083E0E8F0E08081F1
:100CA00081608083E1E9F0E08081826080838081DF
:100CB00081608083E0E9F0E0808181608083E1EC05
:100CC000F0E0808184608083808182608083808185
:100CD00081608083E3ECF0E0808181608083E0ECE0
:100CE000F0E0808182608083E2ECF0E080818160CE
:100CF0008083EAE7F0E08081846080838081826085
:100D00008083808181608083808180688083089572
:100D100090E0FC013197EF30F105B0F5EA5AFF4F52
:100D20000C94EE0F809180008F7703C0809180003B
:100D30008F7D80938000089580918000877FF9CF18
:100D400084B58F7702C084B58F7D84BD089580916E
:100D500090008F7707C0809190008F7D03C08091B5
:100D60009000877F8093900008958091C0008F77D6
:100D700003C08091C0008F7D8093C0000895809152
:100D8000C200877F8093C20008950F931F93CF9373
:100D9000DF931F92CDB7DEB7282F30E0F901E6537D
:100DA000FF4F8491F901E851FF4F1491F901EA5F77
:100DB000FE4F04910023C9F0882321F069830E942B
:100DC00088066981E02FF0E0EE0FFF1FEC5DFE4F1B
:100DD000A591B4919FB7F8948C91611103C01095BF
:100DE000812301C0812B8C939FBF0F90DF91CF9106
:100DF0001F910F910895FC01818D228D90E0805C00
:100E00009F4F821B91098F7399270895FC01918D43
:100E1000828D981731F0828DE80FF11D858D90E05D
:100E200008958FEF9FEF0895FC01918D828D9817A3
:100E300061F0828DDF01A80FB11D5D968C91928DBE
:100E40009F5F9F73928F90E008958FEF9FEF0895BB
:100E500088E998E0892B49F080E090E0892B29F01F
:100E60000E94980881110C9400000895FC01848D63
:100E7000DF01A80FB11DA35ABF4F2C91848D90E0C4
:100E800001968F739927848FA689B7892C93A0899F
:100E9000B1898C9180648C93938D848D981306C056
:100EA0000288F389E02D80818F7D80830895CF9320
:100EB000DF93EC01888D8823C9F0EA89FB89808162
:100EC00085FD05C0A889B9898C9186FD0FC00FB634
:100ED00007FCF5CF808185FFF2CFA889B9898C9175
:100EE00085FFEDCFCE010E943607E7CFDF91CF918E
:100EF0000895CF92DF92FF920F931F93CF93DF93CA
:100F00001F92CDB7DEB76C01DC015B969C915B97BD
:100F10005C968C915C97981307C05096ED91FC916C
:100F20005197808185FD32C0F601038D10E00F5F7F
:100F30001F4F0F731127F02EF601848DF81211C088
:100F40000FB607FCF9CFD6015096ED91FC91519761
:100F5000808185FFF1CFC60169830E9436076981D0
:100F6000EBCF838DE80FF11DE35AFF4F6083D6016D
:100F70005B960C935B975296ED91FC915397808111
:100F80008062808381E058968C930DC0D60156967E
:100F9000ED91FC91579760835096ED91FC9151979C
:100FA00080818064808381E090E00F90DF91CF9119
:100FB0001F910F91FF90DF90CF900895BF92CF9235
:100FC000DF92EF92FF92CF93DF93EC016A017B01F6
:100FD000B22EE889F98982E08083411581EE5807B5
:100FE00061057105A1F060E079E08DE390E0A70173
:100FF00096010E94CC0F21503109410951095695A3
:10100000479537952795211580E1380798F0E889AD
:10101000F989108260E874E88EE190E0A7019601FA
:101020000E94CC0F2150310941095109569547952D
:1010300037952795EC85FD853083EE85FF852083E8
:10104000188EEC89FD89B082EA89FB8980818061F4
:101050008083EA89FB89808188608083EA89FB89B3
:10106000808180688083EA89FB8980818F7D80838D
:10107000DF91CF91FF90EF90DF90CF90BF900895D8
:101080001F920F920FB60F9211242F938F939F935D
:10109000EF93FF93E0919202F09193028081E091AF
:1010A0009802F091990282FD12C0908180919B027A
:1010B0008F5F8F7320919C02821751F0E0919B0209
:1010C000F0E0EE57FD4F958F80939B0201C0808129
:1010D000FF91EF919F918F912F910F900FBE0F90E5
:1010E0001F9018951F920F920FB60F9211242F93F5
:1010F0003F934F935F936F937F938F939F93AF93A0
:10110000BF93EF93FF9382E892E00E943607FF912E
:10111000EF91BF91AF919F918F917F916F915F916F
:101120004F913F912F910F900FBE0F901F901895E8
:1011300082E892E00E94FB0621E0892B09F420E07E
:10114000822F0895109285021092840288EE93E017
:10115000A0E0B0E08093860290938702A09388027B
:10116000B093890286E891E0909383028093820293
:101170008DEC90E090938F0280938E028CEC90E047
:10118000909391028093900288EC90E09093930268
:101190008093920289EC90E0909395028093940260
:1011A0008AEC90E090939702809396028EEC90E008
:1011B000909399028093980210929B0210929C0245
:1011C00010929D0210929E02089508950E94320688
:1011D0000E94E5088FE193E00E94900D0E948B0130
:1011E000C8E2D7E00E949D012097E1F30E94280702
:1011F000F9CFCF92DF92EF92FF920F931F93CF938D
:10120000DF936C017A01EB01E60EF71E00E010E0BF
:10121000CE15DF0561F06991D601ED91FC91019049
:10122000F081E02DC6010995080F191FF1CFC80103
:10123000DF91CF911F910F91FF90EF90DF90CF90B2
:1012400008956115710581F0DB010D900020E9F72B
:10125000AD0141505109461B570BDC01ED91FC914A
:101260000280F381E02D099480E090E008950C94D1
:101270002109DC01ED91FC910190F081E02D0994B0
:101280000F931F93CF93DF93EC016DE00E94390918
:101290008C016AE0CE010E943909800F911FDF9115
:1012A000CF911F910F9108950F931F93CF93DF93C9
:1012B000EC010E9421098C01CE010E944009800F9F
:1012C000911FDF91CF911F910F9108958F929F925F
:1012D000AF92BF92CF92DF92EF92FF920F931F9344
:1012E000CF93DF93CDB7DEB7A1970FB6F894DEBFEB
:1012F0000FBECDBF7C01C42EE52FCB01D22E19A28B
:1013000021E02D1510F02AE0D22E8E010F5D1F4F27
:101310008D2C912CA12CB12C6C2D7E2FA50194012C
:101320000E94CC0F8C2DD29E8019112401501109DE
:101330008A3014F4805D01C0895CF8018083211536
:1013400031054105510521F0C22EE32FCA01E4CF3A
:10135000B801C7010E942109A1960FB6F894DEBF1B
:101360000FBECDBFDF91CF911F910F91FF90EF90F6
:10137000DF90CF90BF90AF909F908F900895CF92C5
:10138000DF92EF92FF920F931F93CF93DF93EC01C5
:101390006A017B012115310579F4E881F981019019
:1013A000F081E02D642FDF91CF911F910F91FF907D
:1013B000EF90DF90CF9009942A303105E9F477FF60
:1013C0001AC06DE20E9439098C0144275527BA01E1
:1013D0004C195D096E097F092AE0CE010E94660959
:1013E000800F911FDF91CF911F910F91FF90EF9090
:1013F000DF90CF9008952AE0B701A601CE01DF91DA
:10140000CF911F910F91FF90EF90DF90CF900C94B0
:1014100066099A01AB01662757FD6095762F0C94FB
:10142000BF092115310541F4DC01ED91FC910190DA
:10143000F081E02D642F09940C94660940912303F8
:101440005091240320912103309122034217530726
:10145000B4F49091E8009570E1F39091E80092FD6A
:1014600019C08093F1008091230390912403019689
:101470008F739927892B19F48EEF8093E800809160
:1014800023039091240301969093240380932303D4
:1014900081E0089580E00895FF920F931F93CF930A
:1014A000DF938C0188E10E941E0A83E00E941E0ADD
:1014B000C0E0D0E0F801EC0FFD1F84910E941E0AED
:1014C000F82E80E00E941E0A8F2121F02196CB3059
:1014D000D10581F7DF91CF911F910F91FF90089572
:1014E000615030F02091F100FC0120830196F8CF8B
:1014F000289884E68093260308952FB7FC01208363
:10150000F89467706093E9000895CF93DF931F927A
:10151000CDB7DEB7682FCE0101960E947D0A80917B
:10152000F20099819FBF0F90DF91CF910895FF92B4
:101530000F931F93CF93DF9300D0CDB7DEB7F62E76
:101540008A0190912503992311F057FF03C08FEF73
:101550009FEF2BC0682FCE0101967A830E947D0AEF
:101560008091F20090E0A8017A81801791070CF435
:10157000AC01EF2DF72FF40E84E6FE1639F0289813
:10158000809326039091F1009193F7CF4115510577
:1015900021F08091F200882321F089818FBFCA0158
:1015A00004C08BE68093E800F8CF0F900F90DF9196
:1015B000CF911F910F91FF900895CF93DF931F92CA
:1015C000CDB7DEB741E050E0BE016F5F7F4F0E94B4
:1015D000970A019719F4898190E002C08FEF9FEF7D
:1015E0000F90DF91CF910895CF93DF931F92CDB7E6
:1015F000DEB7682FCE0101960E947D0A9091E80027
:10160000892F807295FF04C09091F20080E4891BBD
:1016100099819FBF0F90DF91CF9108956F927F9234
:101620008F929F92AF92BF92CF92DF92EF92FF92F2
:101630000F931F93CF93DF931F92CDB7DEB7782E12
:101640007B01C42EB52E80912503882369F0042FD9
:10165000152F8AEFD82E872D8072982E9AE3A92E07
:10166000872D8074882E11C08FEF9FEF57C0872D74
:101670000E94F40A682E81110CC0DA94A9F361E08B
:1016800070E080E090E00E940A060115110579F7EC
:101690003BC0282F30E0021713070CF4602E672D93
:1016A000CE0101960E947D0A8091E80085FF29C045
:1016B000262D30E0021B130B992039F06A948FEF2E
:1016C0006816B1F01092F100F9CFF701862D77FE80
:1016D00007C0815058F094919093F1003196F9CF62
:1016E000815020F091919093F100FACFE20EF31E19
:1016F0008091E80085FF0FC00115110511F48110DC
:101700000AC089818FBFC1CF5D9884E6809327038B
:101710008C2D9B2D03C0A092E800F3CF0F90DF919A
:10172000CF911F910F91FF90EF90DF90CF90BF90DE
:10173000AF909F908F907F906F9008951092E900E6
:101740001092240310922303909322038093210389
:101750000895CF92DF92FF920F931F93CF93DF9361
:1017600000D0CDB7DEB7F82E8A016B010115110547
:10177000B1F0F601F7FE02C0849101C08081498377
:101780005A830E941E0A01501109FFEFCF1ADF0A87
:1017900049815A818111EACF8FEF9FEF01C0CA01C1
:1017A0000F900F90DF91CF911F910F91FF90DF90DD
:1017B000CF9008951F93CF93DF931F92CDB7DEB7DD
:1017C000162F2091E80022FFFCCF612F79830E9421
:1017D000700A8BEF8093E800812F7981972F0F900B
:1017E000DF91CF911F910895CF93DF931F92CDB7D3
:1017F000DEB71982CE0101960E940C0ECE01019631
:101800000E94A70E898190E00F90DF91CF910895FB
:101810001F920F920FB60F921124EF92FF920F9327
:101820001F932F933F934F935F936F937F938F9368
:101830009F93AF93BF93EF93FF93CF93DF93CDB776
:10184000DEB76297DEBFCDBF1092E9008091E8005D
:1018500083FFE9C068E0CE010A960E94700A82EF19
:101860008093E8009A8597FF05C08091E80080FF8B
:10187000FCCF03C08EEF8093E800892F807609F0BB
:10188000B7C08B85811105C01092F1001092F10054
:10189000C3C0282F2D7F213009F4BEC0853049F404
:1018A0008091E80080FFFCCF8C8580688093E30006
:1018B000B3C0863009F074C02D85E888F9882230DD
:1018C00071F580E090E02A8B0E949E0B0E94F40B41
:1018D00099E08E010F5F1F4FF801392F11923A9551
:1018E000E9F799832A892A8391E09E8390E8988773
:1018F0009AEF99872091230330912403275F3F4F6C
:101900003C832B838D83C7010E949E0B49E050E0EE
:10191000B80180E00E94A90B0E94F40B7DC0C701B2
:101920002A8B0E949E0B2A89223241F482E290E0A7
:101930000E94B20E892B09F06FC072C0213069F489
:1019400088899989089711F42093200380912003B6
:10195000811116C069E471E018C0233009F060C03D
:101960008C85882381F0823019F487E691E005C0E8
:10197000813009F055C08BE591E00E944C0A4AC0C5
:1019800067E371E002C063E771E06115710509F476
:1019900047C0FB01449150E080E80E94A90B3CC085
:1019A000873009F43DC0883021F481E08093F10054
:1019B00033C0893089F5937099F5E3E3F1E081E074
:1019C00021E096E38093E9002093EB00349130937B
:1019D000EC009093ED008F5F3196853099F78EE79C
:1019E0008093EA001092EA008C858093250314C04E
:1019F000888999890E949E0B8E85811105C0CE0130
:101A00000A960E94170E06C0823051F4CE010A9643
:101A10000E94DA0E882321F08EEF8093E80003C045
:101A200081E28093EB0062960FB6F894DEBF0FBEA2
:101A3000CDBFDF91CF91FF91EF91BF91AF919F917A
:101A40008F917F916F915F914F913F912F911F9156
:101A50000F91FF90EF900F900FBE0F901F90189571
:101A60008093E9008091F200882319F08AE3809343
:101A7000E80008951F920F920FB60F9211242F9332
:101A80003F934F935F936F937F938F939F93AF9306
:101A9000BF93EF93FF938091E1001092E10083FFE9
:101AA0000FC01092E90091E09093EB001092EC00CF
:101AB00092E39093ED001092250398E09093F0004C
:101AC00082FF1DC083E00E94300D80912703882390
:101AD00039F080912703815080932703882369F090
:101AE00080912603882359F08091260381508093AA
:101AF0002603811104C0289A02C05D9AF1CFFF919C
:101B0000EF91BF91AF919F918F917F916F915F9175
:101B10004F913F912F910F900FBE0F901F901895EE
:101B20001092250381E08093D70080EA8093D8004B
:101B300082E189BD09B400FEFDCF61E070E080E084
:101B400090E00E940A0680E98093D8008CE08093A0
:101B5000E2001092E000559A209A08950895CF93DC
:101B6000DF931F92CDB7DEB76983DC01ED91FC9165
:101B70000280F381E02D41E050E0BE016F5F7F4FB6
:101B800009950F90DF91CF910895CF93DF93EC01EA
:101B90008C859D8597FF05C082E00E94DD0A9D87A8
:101BA0008C878C859D85DF91CF91089583E00C947F
:101BB000300DFC018485958597FD06C082E00E946A
:101BC000850A90E00196089582E00E94850A90E0DF
:101BD0000895FC018485958597FD05C02FEF3FEFA3
:101BE00035872487089582E00C94DD0ACF93DF9334
:101BF000EC0180910701882331F083E00E940E0BF5
:101C00001816190634F081E090E09B838A8380E007
:101C100090E0DF91CF910895FC0120812E5F208319
:101C200042E450E067E771E080E80C94A90BFC0106
:101C300081819081913A59F4813209F03CC047E0AA
:101C400050E060E071E080E00E94A90B43C0913257
:101C500091F5803239F467E070E080E091E00E9415
:101C6000DA0B06C0823209F035C082818093070109
:101C70008091000190910101A0910201B0910301B6
:101C8000803B9440A105B105C1F48091070180FD1E
:101C900014C087E797E790930108809300082BE032
:101CA00088E190E00FB6F894A895809360000FBE8D
:101CB000209360000FC080E0089588E10FB6F8948B
:101CC00080936000109260000FBEA89510920108EA
:101CD0001092000881E0089510922B0310922A03BD
:101CE00088EE93E0A0E0B0E080932C0390932D0366
:101CF000A0932E03B0932F0386E991E090932903DC
:101D0000809328038FEF9FEF9093350380933403E4
:101D10000895FF920F931F93CF93DF93EC01F62E5C
:101D2000E881F9810480F581E02D09958C01E88135
:101D3000F9810680F781E02D6F2DCE010995C8014C
:101D40009927DF91CF911F910F91FF900895FC018A
:101D500020812F5F208349E150E069E372E080E851
:101D60000C94A90B45E650E062E572E080E80C9423
:101D7000A90BEF92FF920F931F93CF93DF931F92C4
:101D8000CDB7DEB789838B017A0141E050E0BE0117
:101D90006F5F7F4F84E00E940E0BA701B80184E4BF
:101DA0000E940E0B0F90DF91CF911F910F91FF902A
:101DB000EF900895FC0191818081813A31F481E0B6
:101DC000913091F0933089F411C0813271F49B30DD
:101DD00021F482818093090105C09A3031F4828117
:101DE0008093080181E00895089580E0089548E017
:101DF00050E082E00C94B90ECF93DF93DC01683899
:101E000018F0E8E7E60F25C0E62FF0E067FF11C005
:101E1000E058F10981E090E001C0880FEA95EAF707
:101E200014969C911497982B14969C931497E0E029
:101E300010C0E754FE4FE491EE2309F440C0E7FFE1
:101E400008C014968C911497826014968C93149702
:101E5000EF7716968C9116978E1741F117968C9105
:101E600017978E1719F118968C9118978E17F1F015
:101E700019968C9119978E17C9F01A968C911A970A
:101E80008E17A1F01B968C911B978E1779F080E02E
:101E900090E0ED01C80FD91F2E81211102C0EE8301
:101EA00005C0019686309105A1F709C0BD016C5FA0
:101EB0007F4FCD010E94F70E81E090E008C081E0E5
:101EC00090E013969C938E93129780E090E0DF91C0
:101ED000CF910895683818F0E8E7E60F25C0E62F9F
:101EE000F0E067FF12C0E058F10921E030E001C0E6
:101EF000220FEA95EAF72095DC0114963C9114979D
:101F0000322314963C93E0E00FC0E754FE4FE49177
:101F1000EE2329F1E7FF08C0DC0114962C911497F9
:101F20002D7F14962C93EF7720E030E0EE2351F0D4
:101F3000DC01A20FB31F16964C9116974E1302C0E8
:101F400016961C922F5F3F4F2630310579F7BC0162
:101F50006C5F7F4F0E94F70E81E090E0089580E073
:101F600090E00895FC011682178210861186128671
:101F700013861482BC016C5F7F4F0C94F70E109295
:101F8000840310927B0310927A0386EA91E0909387
:101F90007903809378030895A1E21A2EAA1BBB1B34
:101FA000FD010DC0AA1FBB1FEE1FFF1FA217B30725
:101FB000E407F50720F0A21BB30BE40BF50B661F3B
:101FC000771F881F991F1A9469F7609570958095FF
:101FD00090959B01AC01BD01CF010895EE0FFF1F4D
:0C1FE0000590F491E02D0994F894FFCFD7
:101FEC0000E1000000000000010176657273696F6A
:101FFC006E207B22736B65746368223A2261646184
:10200C0066727569745F646966666572656E74691B
:10201C00616C222C2276657273696F6E223A2230C3
:10202C002E302E31227D006461746120007B22747D
:10203C00696D65223A002C226368616E6E656C31A5
:10204C00223A002C226368616E6E656C32223A0073
:10205C000A00000000006002330208021002230292
:10206C003202000000007907F908FB061407060786
:10207C00570700000000AF0DF60DD90DE90DC50D89
:10208C00D60D00000000890EF908FC0E6A0FB20F85
:00000001FF
