:100000000C9462010C948A010C948A010C948A016C
:100010000C948A010C948A010C948A010C948A0134
:100020000C948A010C948A010C94400C0C940C0BD7
:100030000C948A010C948A010C948A010C948A0114
:100040000C948A010C948A010C948A010C948A0104
:100050000C948A010C948A010C948A010C948D05ED
:100060000C948A010C948A010C948A010C948A01E4
:100070000C948A010C948A010C948A010C948A01D4
:100080000C948A010C948A010C948A010C948A01C4
:100090000C94B7030C948A010C948A010C948A0185
:1000A0000C948A010C948A010C948A019C069F0688
:1000B0008E0692069806C006C006C006A306A706CE
:1000C000AB06B106B506C006BB060000000200097B
:1000D0000F0000030401000C0000000000000000FD
:1000E00000000000000000000408020110408040F1
:1000F000102040804080080204018040201002014E
:10010000108010204040040404040403040502028B
:1001100002020403020202020606060606060404A0
:100120000202020400000000250028002B002E001F
:100130003100080B00020202010009040000010264
:10014000020000052400100105240101010424021D
:10015000060524060001070581031000400904017B
:1001600000020A00000007050202400000070583A4
:100170000240000000C18081C112010002020000A3
:1001800040032A3680000101020001120100020032
:10019000000040032A368000010102000141726420
:1001A00075696E6F2053726C0041726475696E6F71
:1001B000204C656F6E6172646F00040309040000D7
:1001C0000000000000002A2B2800000000000000B2
:1001D00000000000000000000000000000002C9E55
:1001E000B4A0A1A2A434A6A7A5AE362D3738271EE9
:1001F0001F20212223242526B333B62EB7B89F848F
:1002000085868788898A8B8C8D8E8F909192939426
:1002100095969798999A9B9C9D2F3130A3AD350464
:1002200005060708090A0B0C0D0E0F101112131406
:1002300015161718191A1B1C1DAFB1B0B50009040B
:1002400002000103000000092101010001226500F4
:100250000705840340000105010902A1010901A16C
:10026000008501050919012903150025019503756C
:1002700001810295017505810305010930093109E4
:10028000381581257F750895038106C0C0050109D1
:1002900006A1018502050719E029E715002501756A
:1002A0000195088102950175088103950675081569
:1002B0000025650507190029658100C09801D50250
:1002C000BA07EB0D11241FBECFEFDAE0DEBFCDBFC2
:1002D00011E0A0E0B1E0E4E4FCE102C005900D9281
:1002E000A03AB107D9F722E0A0EAB1E001C01D921F
:1002F000A43DB207E1F712E0C4ECD2E004C02297BB
:10030000FE010E941C0ECC3BD107C9F70E94D80702
:100310000C94200E0C94000040E855E260E070E080
:100320008EE692E00E94B40780EA91E00C94EC041F
:1003300068E480EA91E00C94E4040F931F93CF9358
:10034000DF938EE692E00E942107892B69F08EE60A
:1003500092E00E9431078637910531F46AE071E03E
:100360008EE692E00E94460880EA91E00E944305F2
:100370008C0180EA91E00E946805EC0167E471E07D
:100380008EE692E00E9429086DE471E08EE692E02C
:100390000E9429080E94D705AB01BC012AE030E089
:1003A0008EE692E00E94030966E571E08EE692E037
:1003B0000E9429084AE050E0B8018EE692E00E94CF
:1003C000FB0863E671E08EE692E00E9429084AE0AD
:1003D00050E0BE018EE692E00E94FB0865E471E009
:1003E0008EE692E00E94290860E771E08EE692E0D6
:1003F0000E94290864E170E080E090E0DF91CF91F5
:100400001F910F910C9406068091D50190E02091E8
:10041000D601821B910908952091D6018091D501C2
:10042000281750F4E22FF0E0E952FE4F808190E06F
:100430002F5F2093D60108958FEF9FEF0895E091ED
:10044000D6018091D501E81730F4F0E0E952FE4F73
:10045000808190E008958FEF9FEF08950895CF92E7
:10046000DF92EF92FF920F931F93CF93DF937C0164
:10047000CB018A012091B101222389F0EB016B01AC
:10048000C40ED51ECC15DD0569F06991D701ED913B
:10049000FC910190F081E02DC7010995F3CF642F05
:1004A0000E948E03C801DF91CF911F910F91FF90A1
:1004B000EF90DF90CF900895CF93DF931F92CDB749
:1004C000DEB769832091B1012223D1F02091B201DE
:1004D000203240F021E030E0FC013383228380E0D1
:1004E00090E015C08091B301E82FF0E0EC54FE4F8E
:1004F000998190838F5F8093B3018093B20105C08F
:1005000061E0CE0101960E948E0381E090E00F90A1
:10051000DF91CF910895FC011382128248EE53E0DF
:1005200060E070E0448355836683778386E791E0DB
:100530009183808308951092D6011092D501109274
:10054000B3011092B2010C94D902862F413208F007
:1005500040E267ED71E00E94F7021092D6018093AD
:10056000D501089521E00C94A50281E08093B101AA
:100570006093D4011092B3011092B20108950F93C9
:10058000062F21E04091B20164EB71E08091D4012B
:100590000E943B031092B3011092B2011092B1017C
:1005A0000F91089561E00C94BF0285EA91E00C94EC
:1005B0008B021092640281E08093620210926102C9
:1005C00061E082E00E94C10661E083E00E94C10612
:1005D000E9EBF0E080818E7F808380818D7F808356
:1005E00080E28093B80085E48093BC000895413296
:1005F00008F03FC0909164029111FCCF91E090937C
:100600006402209362022FEF2093F70110923C02C4
:10061000240F20933B029093630290916302880F12
:10062000892B8093630280916102813041F41092A2
:100630006102809163028093BB0085EC01C085EE6E
:100640008093BC00809164028130E1F380913C0290
:10065000841710F440913C022DE332E0FB01D901F4
:100660008A2F821B841718F48D918193F9CF842FE0
:10067000089580E008950F93413208F046C09091AC
:1006800064029111FCCF92E09093640200936202A5
:100690009FEF9093F70110923C0240933B02FB01C5
:1006A0006DE372E0DB019A2F961B941718F4919179
:1006B0009D93F9CF1092630290916302880F892B6A
:1006C0008093630280916102813041F41092610253
:1006D000809163028093BB0085EC01C085EE80931E
:1006E000BC00222321F0809164028230E1F38091EA
:1006F000F7018F3F61F08091F701803251F08091D6
:10070000F701803341F483E007C081E005C080E059
:1007100003C082E001C084E00F910895613298F433
:1007200020916402243089F460931902FC018BE16A
:1007300092E0DC012A2F281B261718F421912D9313
:10074000F9CF80E0089581E0089582E0089585ED75
:100750008093BC008091BC0084FDFCCF10926402A9
:10076000089585EC8093BC001092640208951F9256
:100770000F920FB60F9211242F933F934F935F93D5
:100780006F937F938F939F93AF93BF93EF93FF9359
:100790008091B900887F803609F49CC068F5883262
:1007A00009F45BC090F4803109F454C038F4882314
:1007B00009F4F5C0883009F44DC0F5C0883109F45A
:1007C0004CC0803209F45DC0EEC0803409F468C0CA
:1007D00048F4803309F455C0883309F0E4C08093AD
:1007E000F701A8C0803509F44FC0883509F45DC011
:1007F000883409F0D8C0D5C0883909F4C6C0A8F437
:10080000883709F467C038F4883609F463C0803744
:1008100009F460C0C8C0883809F4B7C0803909F449
:100820005FC0803809F0BFC05BC0803B09F485C061
:1008300038F4803A09F466C0883A09F47EC0B3C03F
:10084000803C09F4A6C0883C09F4A3C0883B09F4A5
:1008500089C0A9C08091630210C090913C02809130
:100860003B02981770F5E0913C0281E08E0F809377
:100870003C02F0E0E35CFD4F80818093BB0085EC9F
:1008800085C08093F7018DC0E0913C0281E08E0F1E
:1008900080933C028091BB00F0E0E35CFD4F8083DD
:1008A00090913C0280913B026DC0E0913C0281E05E
:1008B0008E0F80933C028091BB00F0E0E35CFD4F23
:1008C00080838091620281116CC081E0809361021B
:1008D00084EA60C083E0809364021092F801CFCF75
:1008E0008091F801803208F050C0E091F80181E079
:1008F0008E0F8093F8018091BB00F0E0E750FE4F2F
:100900008083BDCF8091F801803230F4E091F8010E
:10091000F0E0E750FE4F10820E94A7036091F801BB
:1009200070E0E0915D02F0915E0289EF91E009953F
:100930001092F8010E94B10336C084E080936402F3
:1009400010921A0210921902E0915F02F091600277
:10095000099580911902811105C081E080931902E7
:1009600010921B02E0911A0281E08E0F80931A020E
:10097000F0E0E55EFD4F80818093BB0090911A020C
:1009800080911902981708F47ACF85E88093BC000B
:100990000AC085EC8093BC001092640204C01092DF
:1009A000F7010E94A703FF91EF91BF91AF919F9133
:1009B0008F917F916F915F914F913F912F910F9008
:1009C0000FBE0F901F901895FC0114821382608354
:1009D00088E081831282089585EA91E00C949B025D
:1009E0001F93CF93DF9300D0CDB7DEB7162F682FBC
:1009F00085EA91E04A8359830E94B502612F85EA16
:100A000091E00E945C025981652F85EA91E00E9485
:100A10005C024A81642F85EA91E00E945C0285EACB
:100A200091E00F900F90DF91CF911F910C94D20223
:100A30001F93CF93DF93182F682F85EA91E00E94D0
:100A4000B50260E085EA91E00E945C0285EA91E0EF
:100A50000E94D20242E0612F85EA91E00E94B20238
:100A600085EA91E00E940C02182F85EA91E00E942D
:100A70000C02D12F20E0C22F9E01282BC901DF914B
:100A8000CF911F910895CF93DF93EC014B815C814F
:100A90004368516861E088810E94F004698170E0D8
:100AA00080E090E00E94060688810E9418052A8155
:100AB000022E02C0969587950A94E2F7222329F028
:100AC000811528E0920708F0906FDF91CF9108958B
:100AD000CF93DF93EC014B815C814368516B61E004
:100AE00088810E94F004698170E080E090E00E94BB
:100AF000060688810E9418052A81022E02C096955A
:100B000087950A94E2F7222329F0811528E09207BD
:100B100008F0906FDF91CF9108951F920F920FB65A
:100B20000F9211242F933F938F939F93AF93BF9373
:100B30008091660290916702A0916802B09169026B
:100B40003091650223E0230F2D3720F40196A11D7B
:100B5000B11D05C026E8230F0296A11DB11D2093EB
:100B600065028093660290936702A0936802B09337
:100B7000690280916A0290916B02A0916C02B0911F
:100B80006D020196A11DB11D80936A0290936B02C4
:100B9000A0936C02B0936D02BF91AF919F918F9122
:100BA0003F912F910F900FBE0F901F9018952FB768
:100BB000F89460916602709167028091680290914A
:100BC00069022FBF08953FB7F89480916A0290910F
:100BD0006B02A0916C02B0916D0226B5A89B05C076
:100BE0002F3F19F00196A11DB11D3FBF6627782F39
:100BF000892F9A2F620F711D811D911D42E0660F92
:100C0000771F881F991F4A95D1F70895CF92DF92D9
:100C1000EF92FF92CF93DF936B017C010E94E3057B
:100C2000EB01C114D104E104F10489F00E94B40C79
:100C30000E94E3056C1B7D0B683E734090F381E0DE
:100C4000C81AD108E108F108C851DC4FEACFDF919A
:100C5000CF91FF90EF90DF90CF900895789484B576
:100C6000826084BD84B5816084BD85B5826085BDA8
:100C700085B5816085BDEEE6F0E08081816080838E
:100C8000E1E8F0E010828081826080838081816071
:100C90008083E0E8F0E0808181608083E1E9F0E03A
:100CA000808182608083808181608083E0E9F0E0E0
:100CB000808181608083E1ECF0E0808184608083CA
:100CC000808182608083808181608083E3ECF0E0BA
:100CD000808181608083E0ECF0E0808182608083AD
:100CE000E2ECF0E0808181608083EAE7F0E08081DF
:100CF0008460808380818260808380818160808342
:100D0000808180688083089590E0FC013197EF3006
:100D1000F105B0F5EA5AFF4F0C941A0E809180004D
:100D20008F7703C0809180008F7D8093800008952D
:100D300080918000877FF9CF84B58F7702C084B51A
:100D40008F7D84BD0895809190008F7707C080913A
:100D500090008F7D03C080919000877F80939000EA
:100D600008958091C0008F7703C08091C0008F7D6F
:100D70008093C00008958091C200877F8093C20055
:100D800008950F931F93CF93DF931F92CDB7DEB7D4
:100D9000282F30E0F901E653FF4F8491F901E85123
:100DA000FF4F1491F901EA5FFE4F04910023C9F04F
:100DB000882321F069830E9484066981E02FF0E096
:100DC000EE0FFF1FEC5DFE4FA591B4919FB7F89415
:100DD0008C91611103C01095812301C0812B8C93EC
:100DE0009FBF0F90DF91CF911F910F910895CF93E7
:100DF000DF931F92CDB7DEB76983DC01ED91FC91E3
:100E00000280F381E02D41E050E0BE016F5F7F4F33
:100E100009950F90DF91CF910895CF93DF93EC0167
:100E20008C859D8597FF05C082E00E94E1099D8722
:100E30008C878C859D85DF91CF91089583E00C94FC
:100E4000360CFC018485958597FD06C082E00E94E2
:100E5000890990E00196089582E00E94890990E056
:100E60000895FC018485958597FD05C02FEF3FEF20
:100E700035872487089582E00C94E109CF93DF93AE
:100E8000EC0180910701882331F083E00E94120A6F
:100E90001816190634F081E090E09B838A8380E085
:100EA00090E0DF91CF910895FC0120812E5F208397
:100EB00042E450E062E371E080E80C94AD0AFC018A
:100EC00081819081913A59F4813209F03CC047E028
:100ED00050E060E071E080E00E94AD0A43C09132D2
:100EE00091F5803239F467E070E080E091E00E9493
:100EF000DE0A06C0823209F035C082818093070184
:100F00008091000190910101A0910201B091030133
:100F1000803B9440A105B105C1F48091070180FD9B
:100F200014C087E797E790930108809300082BE0AF
:100F300088E190E00FB6F894A895809360000FBE0A
:100F4000209360000FC080E0089588E10FB6F89408
:100F500080936000109260000FBEA8951092010867
:100F60001092000881E008952FEF3FEFFC013587D4
:100F700024870895109271021092700288EE93E017
:100F8000A0E0B0E08093720290937302A093740289
:100F9000B093750286E891E090936F0280936E02A1
:100FA0008FEF9FEF90937B0280937A0208950895CC
:100FB0000E942E060E94D7078EEB92E00E94960CAC
:100FC0000E948C01C0E0D0E00E949D012097E1F3D7
:100FD0000E940000F9CFCF92DF92EF92FF920F9321
:100FE0001F93CF93DF936C017A01EB01E60EF71E9E
:100FF00000E010E0CE15DF0561F06991D601ED91BA
:10100000FC910190F081E02DC6010995080F191F90
:10101000F1CFC801DF91CF911F910F91FF90EF9019
:10102000DF90CF9008956115710581F0DB010D907F
:101030000020E9F7AD0141505109461B570BDC0177
:10104000ED91FC910280F381E02D099480E090E025
:1010500008950C941308DC01ED91FC910190F0814E
:10106000E02D09940F931F93CF93DF93EC016DE074
:101070000E942B088C016AE0CE010E942B08800F91
:10108000911FDF91CF911F910F9108950F931F939F
:10109000CF93DF93EC010E9413088C01CE010E94D4
:1010A0003208800F911FDF91CF911F910F9108950A
:1010B0008F929F92AF92BF92CF92DF92EF92FF9268
:1010C0000F931F93CF93DF93CDB7DEB7A1970FB6E2
:1010D000F894DEBF0FBECDBF7C01C42EE52FCB013F
:1010E000D22E19A221E02D1510F02AE0D22E8E0169
:1010F0000F5D1F4F8D2C912CA12CB12C6C2D7E2FB0
:10110000A50194010E94F80D8C2DD29E8019112406
:10111000015011098A3014F4805D01C0895CF80126
:101120008083211531054105510521F0C22EE32FA1
:10113000CA01E4CFB801C7010E941308A1960FB6F7
:10114000F894DEBF0FBECDBFDF91CF911F910F91FD
:10115000FF90EF90DF90CF90BF90AF909F908F90D7
:101160000895CF92DF92EF92FF920F931F93CF9348
:10117000DF93EC016A017B012115310579F4E881E7
:10118000F9810190F081E02D642FDF91CF911F91C3
:101190000F91FF90EF90DF90CF9009942A303105A6
:1011A000E9F477FF1AC06DE20E942B088C014427F6
:1011B0005527BA014C195D096E097F092AE0CE0155
:1011C0000E945808800F911FDF91CF911F910F91BE
:1011D000FF90EF90DF90CF9008952AE0B701A6012D
:1011E000CE01DF91CF911F910F91FF90EF90DF9093
:1011F000CF900C9458089A01AB01662757FD609573
:10120000762F0C94B1082115310541F4DC01ED91E4
:10121000FC910190F081E02D642F09940C94580802
:101220004091C2025091C3022091C0023091C1028C
:1012300042175307B4F49091E8009570E1F3909150
:10124000E80092FD19C08093F1008091C202909154
:10125000C30201968F739927892B19F48EEF80931F
:10126000E8008091C2029091C30201969093C3025C
:101270008093C20281E0089580E00895CF92DF92CA
:10128000FF920F931F93CF93DF931F92CDB7DEB7DB
:10129000082F162F862F880F8E5F99830E941009C2
:1012A00083E00E941009F02EC02E9981D92E8C2D3A
:1012B0008F19811778F4F60184910E941009082F84
:1012C00080E00E9410098023FFEFCF1ADF0A81110E
:1012D000EECF01C081E00F90DF91CF911F910F9170
:1012E000FF90DF90CF900895615030F02091F10091
:1012F000FC0120830196F8CF289884E68093C502EC
:1013000008952FB7FC012083F89467706093E9007B
:101310000895CF93DF931F92CDB7DEB7682FCE012C
:1013200001960E9481098091F20099819FBF0F90E0
:10133000DF91CF910895FF920F931F93CF93DF9387
:1013400000D0CDB7DEB7F62E8A019091C402992362
:1013500011F057FF03C08FEF9FEF2BC0682FCE0116
:1013600001967A830E9481098091F20090E0A801A1
:101370007A81801791070CF4AC01EF2DF72FF40E52
:1013800084E6FE1639F028988093C5029091F1000A
:101390009193F7CF4115510521F08091F2008823F8
:1013A00021F089818FBFCA0104C08BE68093E800D9
:1013B000F8CF0F900F90DF91CF911F910F91FF9079
:1013C0000895CF93DF931F92CDB7DEB741E050E091
:1013D000BE016F5F7F4F0E949B09019719F48981BD
:1013E00090E002C08FEF9FEF0F90DF91CF910895B3
:1013F000CF93DF931F92CDB7DEB7682FCE01019652
:101400000E9481099091E800892F807295FF04C0A5
:101410009091F20080E4891B99819FBF0F90DF912A
:10142000CF9108956F927F928F929F92AF92BF92C9
:10143000CF92DF92EF92FF920F931F93CF93DF93A0
:101440001F92CDB7DEB7782E7B01C42EB52E8091CA
:10145000C402882369F0042F152F8AEFD82E872D18
:101460008072982E9AE3A92E872D8074882E11C041
:101470008FEF9FEF57C0872D0E94F809682E8111CA
:101480000CC0DA94A9F361E070E080E090E00E9483
:1014900006060115110579F73BC0282F30E0021729
:1014A00013070CF4602E672DCE0101960E9481096E
:1014B0008091E80085FF29C0262D30E0021B130B28
:1014C000992039F06A948FEF6816B1F01092F1000C
:1014D000F9CFF701862D77FE07C0815058F094911F
:1014E0009093F1003196F9CF815020F09191909333
:1014F000F100FACFE20EF31E8091E80085FF0FC0E5
:101500000115110511F481100AC089818FBFC1CF67
:101510005D9884E68093C6028C2D9B2D03C0A0921B
:10152000E800F3CF0F90DF91CF911F910F91FF90C3
:10153000EF90DF90CF90BF90AF909F908F907F9073
:101540006F9008951092E9001092C3021092C202A7
:101550009093C1028093C0020895CF92DF92FF92D0
:101560000F931F93CF93DF9300D0CDB7DEB7F82E44
:101570008A016B0101151105B1F0F601F7FE02C0F9
:10158000849101C0808149835A830E9410090150CF
:101590001109FFEFCF1ADF0A49815A818111EACF81
:1015A0008FEF9FEF01C0CA010F900F90DF91CF9195
:1015B0001F910F91FF90DF90CF9008951F93CF93CD
:1015C000DF931F92CDB7DEB7162F2091E80022FFE0
:1015D000FCCF612F79830E9474098BEF8093E80020
:1015E000812F7981972F0F90DF91CF911F910895CF
:1015F000CF93DF931F92CDB7DEB71982CE0101964C
:101600000E945407CE0101960E94D30C898190E07C
:101610000F90DF91CF9108951F920F920FB60F9206
:101620001124EF92FF920F931F932F933F934F93A9
:101630005F936F937F938F939F93AF93BF93EF933A
:10164000FF93CF93DF93CDB7DEB76297DEBFCDBFF9
:101650001092E9008091E80083FFEBC068E0CE01C2
:101660000A960E94740982EF8093E8009A8597FF9A
:1016700005C08091E80080FFFCCF03C08EEF80930F
:10168000E800892F807609F0B9C08B85811105C0EB
:101690001092F1001092F100C5C0282F2D7F21304B
:1016A00009F4C0C0853049F48091E80080FFFCCF88
:1016B0008C8580688093E300B5C0863009F076C0E1
:1016C0002D85E888F988223071F580E090E02A8B3A
:1016D0000E94A20A0E94F80A99E08E010F5F1F4F34
:1016E000F801392F11923A95E9F799832A892A83CB
:1016F00091E09E8390E898879AEF99872091C202A3
:101700003091C302275F3F4F3C832B838D83C701FA
:101710000E94A20A49E050E0B80180E00E94AD0AB0
:101720000E94F80A7FC0C7012A8B0E94A20A2A8958
:10173000223241F482E290E00E94DE0C892B09F013
:1017400071C074C0213069F488899989089711F4AF
:101750002093BF028091BF02811118C06BE871E035
:101760001AC0233009F062C08C85882391F0823042
:1017700021F460E189EA91E006C0813009F056C0A9
:101780006BE08DE991E00E943E094AC069E771E093
:1017900002C06AEB71E06115710509F447C0FB01F5
:1017A000449150E080E80E94AD0A3CC0873009F4C3
:1017B0003DC0883021F481E08093F10033C089304E
:1017C00089F5937099F5E5E7F1E081E021E096E392
:1017D0008093E9002093EB0034913093EC009093D8
:1017E000ED008F5F3196853099F78EE78093EA00A0
:1017F0001092EA008C858093C40214C0888999896C
:101800000E94A20A8E85811105C0CE010A960E940F
:101810005F0706C0823051F4CE010A960E94060D81
:10182000882321F08EEF8093E80003C081E280934B
:10183000EB0062960FB6F894DEBF0FBECDBFDF910E
:10184000CF91FF91EF91BF91AF919F918F917F9138
:101850006F915F914F913F912F911F910F91FF9049
:10186000EF900F900FBE0F901F9018958093E90096
:101870008091F200882319F08AE38093E8000895AC
:101880001F920F920FB60F9211242F933F934F93F5
:101890005F936F937F938F939F93AF93BF93EF93D8
:1018A000FF938091E1001092E10083FF0FC010923E
:1018B000E90091E09093EB001092EC0092E390939A
:1018C000ED001092C40298E09093F00082FF1DC0DA
:1018D00083E00E94360C8091C602882339F0809103
:1018E000C60281508093C602882369F08091C502A8
:1018F000882359F08091C50281508093C5028111DF
:1019000004C0289A02C05D9AF1CFFF91EF91BF9178
:10191000AF919F918F917F916F915F914F913F9187
:101920002F910F900FBE0F901F9018951092C40228
:1019300081E08093D70080EA8093D80082E189BD5E
:1019400009B400FEFDCF61E070E080E090E00E940D
:10195000060680E98093D8008CE08093E200109224
:10196000E000559A209A08950895FF920F931F93CF
:10197000CF93DF93EC01F62EE881F9810480F581A5
:10198000E02D09958C01E881F9810680F781E02D31
:101990006F2DCE010995C8019927DF91CF911F9135
:1019A0000F91FF900895FC0120812F5F208349E172
:1019B00050E06EE372E080E80C94AD0A45E650E03A
:1019C00067E572E080E80C94AD0AEF92FF920F9306
:1019D0001F93CF93DF931F92CDB7DEB789838B011F
:1019E0007A0141E050E0BE016F5F7F4F84E00E94CA
:1019F000120AA701B80184E40E94120A0F90DF9135
:101A0000CF911F910F91FF90EF900895FC0191816C
:101A10008081813A31F481E0913091F0933089F402
:101A200011C0813271F49B3021F4828180930901CD
:101A300005C09A3031F482818093080181E00895D5
:101A4000089580E0089548E050E082E00C94E50CB1
:101A5000CF93DF93DC01683818F0E8E7E60F25C084
:101A6000E62FF0E067FF11C0E058F10981E090E057
:101A700001C0880FEA95EAF714969C911497982B69
:101A800014969C931497E0E010C0E254FE4FE4914A
:101A9000EE2309F440C0E7FF08C014968C91149718
:101AA000826014968C931497EF7716968C91169704
:101AB0008E1741F117968C9117978E1719F118967A
:101AC0008C9118978E17F1F019968C9119978E17A3
:101AD000C9F01A968C911A978E17A1F01B968C91CB
:101AE0001B978E1779F080E090E0ED01C80FD91FA9
:101AF0002E81211102C0EE8305C00196863091052A
:101B0000A1F709C0BD016C5F7F4FCD010E94230D7D
:101B100081E090E008C081E090E013969C938E9362
:101B2000129780E090E0DF91CF910895683818F027
:101B3000E8E7E60F25C0E62FF0E067FF12C0E058A7
:101B4000F10921E030E001C0220FEA95EAF7209583
:101B5000DC0114963C911497322314963C93E0E0F8
:101B60000FC0E254FE4FE491EE2329F1E7FF08C0D5
:101B7000DC0114962C9114972D7F14962C93EF77FB
:101B800020E030E0EE2351F0DC01A20FB31F1696E7
:101B90004C9116974E1302C016961C922F5F3F4F22
:101BA0002630310579F7BC016C5F7F4F0E94230D11
:101BB00081E090E0089580E090E00895FC011682B5
:101BC000178210861186128613861482BC016C5F00
:101BD0007F4F0C94230D1092D3021092CA021092E0
:101BE000C90286E991E09093C8028093C7020895E4
:101BF000A1E21A2EAA1BBB1BFD010DC0AA1FBB1F11
:101C0000EE1FFF1FA217B307E407F50720F0A21B82
:101C1000B30BE40BF50B661F771F881F991F1A94EF
:101C200069F760957095809590959B01AC01BD0119
:101C3000CF010895EE0FFF1F0590F491E02D099458
:041C4000F894FFCF46
:101C440000E1000000000000010176657273696F15
:101C54006E207B22736B65746368223A226164612F
:101C640066727569745F646966666572656E7469C7
:101C7400616C222C2276657273696F6E223A22306F
:101C84002E302E31227D006461746120007B227429
:101C9400696D65223A002C226368616E6E656C3151
:101CA400223A002C226368616E6E656C32223A001F
:101CB4000A00000000005C022F0204020C021F0252
:101CC4002E0200000000F7063E07210731070D072A
:101CD4001E0700000000B50CEB07280D960DDE0D65
:00000001FF
