:100000000C9462010C948A010C948A010C948A016C
:100010000C948A010C948A010C948A010C948A0134
:100020000C948A010C948A010C94AE0F0C947A0EF5
:100030000C948A010C948A010C948A010C948A0114
:100040000C948A010C948A010C948A010C948A0104
:100050000C948A010C948A010C948A010C9469070F
:100060000C948A010C948A010C948A010C948A01E4
:100070000C948A010C948A010C948A010C948A01D4
:100080000C948A010C948A010C948A010C948A01C4
:100090000C948F050C948A010C948A010C948A01AB
:1000A0000C948A010C948A010C948A0178087B08CC
:1000B0006A086E0874089C089C089C087F088308DE
:1000C00087088D0891089C08970800000002000925
:1000D0000F0000030401000C0000000000000000FD
:1000E00000000000000000000408020110408040F1
:1000F000102040804080080204018040201002014E
:10010000108010204040040404040403040502028B
:1001100002020403020202020606060606060404A0
:100120000202020400000000250028002B002E001F
:100130003100080B00020202010009040000010264
:10014000020000052400100105240101010424021D
:10015000060524060001070581031000400904017B
:1001600000020A00000007050202400000070583A4
:100170000240000000C18081C112010002020000A3
:1001800040032A3680000101020001120100020032
:10019000000040032A368000010102000141726420
:1001A00075696E6F2053726C0041726475696E6F71
:1001B000204C656F6E6172646F00040309040000D7
:1001C0000000000000002A2B2800000000000000B2
:1001D00000000000000000000000000000002C9E55
:1001E000B4A0A1A2A434A6A7A5AE362D3738271EE9
:1001F0001F20212223242526B333B62EB7B89F848F
:1002000085868788898A8B8C8D8E8F909192939426
:1002100095969798999A9B9C9D2F3130A3AD350464
:1002200005060708090A0B0C0D0E0F101112131406
:1002300015161718191A1B1C1DAFB1B0B50009040B
:1002400002000103000000092101010001226500F4
:100250000705840340000105010902A1010901A16C
:10026000008501050919012903150025019503756C
:1002700001810295017505810305010930093109E4
:10028000381581257F750895038106C0C0050109D1
:1002900006A1018502050719E029E715002501756A
:1002A0000195088102950175088103950675081569
:1002B0000025650507190029658100C0AE01AD0460
:1002C000A509591111241FBECFEFDAE0DEBFCDBF63
:1002D00014E0A0E0B1E0E0E2F8E202C005900D9287
:1002E000AA3AB107D9F725E0AAEAB4E001C01D9205
:1002F000A73EB207E1F712E0C4ECD2E004C02297B7
:10030000FE010E94DC13CC3BD107C9F70E94C30950
:100310000C940E140C94000040E855E260E070E08C
:1003200081E895E00E94900981E895E00E94960995
:100330008823D1F383EB94E00E94C4068EEA94E014
:100340000E94C40660E072E083EB94E00E94C8065D
:1003500060E072E08EEA94E00C94C80668E483EBF7
:1003600094E00E94BC0668E48EEA94E00C94BC061B
:100370004F925F926F927F928F929F92AF92BF92B5
:10038000CF92DF92EF92FF92CF93DF93C8EED3E04C
:10039000C12CD12CE12C8CE3F82E812C912C90E4F3
:1003A000A92E9EE3B92E412C512C612C2EE3722EE6
:1003B00081E895E00E94FD08181619060CF05EC150
:1003C00081E895E00E940D09863719F46AE171E031
:1003D00046C1833731F581E895E00E947B0C9B0193
:1003E000AC0168EE73E080E090E00E94BB133093B4
:1003F0000F0120930E016FE571E081E895E00E9406
:10040000140A60910E0170910F01CE010E948513B4
:100410004AE050E081E895E00E94C00A6BE571E097
:100420001EC1873609F08BC081E895E00E947B0CE5
:100430006230710509F444C0C4F46115710579F1A5
:100440006130710509F009C160E072E083EB94E06E
:100450000E94C80640920A0150920B0160920C0162
:1004600070920D016CEB71E0FAC06430710509F413
:1004700051C0DCF16530710509F0EFC060E07AE051
:1004800083EB94E00E94C806C0920A01D0920B014F
:10049000E0920C01F0920D016CE972E0E0C060E0C6
:1004A00070E083EB94E00E94C80680920A0190926B
:1004B0000B01A0920C01B0920D0164E871E0CFC075
:1004C00060E074E083EB94E00E94C80680E090E076
:1004D000A0E8BDE380930A0190930B01A0930C0167
:1004E000B0930D0164EF71E0BAC060E076E083EB99
:1004F00094E00E94C80680E090E0A0E0BDE3809315
:100500000A0190930B01A0930C01B0930D016CE2D2
:1005100072E0A5C060E078E083EB94E00E94C8063A
:1005200080E090E0A0E2BEE380930A0190930B018B
:10053000A0930C01B0930D0164E672E090C0883680
:1005400009F036CF81E895E00E947B0C623071059E
:1005500009F444C0C4F46115710579F16130710585
:1005600009F07BC060E072E08EEA94E00E94C80669
:1005700040920601509207016092080170920901B1
:100580006DE273E06CC06430710509F451C0DCF1B8
:100590006530710509F061C060E07AE08EEA94E0B0
:1005A0000E94C806C0920601D0920701E09208019D
:1005B000F09209016DE074E052C060E070E08EEAF4
:1005C00094E00E94C8068092060190920701A092D2
:1005D0000801B092090165EF72E041C060E074E08B
:1005E0008EEA94E00E94C80680E090E0A0E8BDE3B7
:1005F0008093060190930701A0930801B09309012D
:1006000065E673E02CC060E076E08EEA94E00E943C
:10061000C80680E090E0A0E0BDE3809306019093DF
:100620000701A0930801B09309016DE973E017C0B9
:1006300060E078E08EEA94E00E94C80680E090E0F6
:10064000A0E2BEE38093060190930701A093080106
:10065000B093090165ED73E002C064ED72E081E8DA
:1006600095E00E94140A6DE571E081E895E00E9432
:10067000140A81E895E00E94FA089ACE83EB94E090
:100680000E941F079093AD048093AC048EEA94E01F
:100690000E9444079093AB048093AA0465E474E03D
:1006A00081E895E00E94140A6BE474E081E895E02B
:1006B0000E94140A0E94B307AB01BC012AE030E09B
:1006C00081E895E00E94C80A64E574E081E895E05D
:1006D0000E94140A6091AC047091AD04882777FDE4
:1006E0008095982F0E946A1220910A0130910B0187
:1006F00040910C0150910D010E941E1320E030E04A
:100700004AE754E40E941E13AB01BC0122E030E032
:1007100081E895E00E94C00B61E674E081E895E015
:100720000E94140A6091AA047091AB04882777FD97
:100730008095982F0E946A1220910601309107013E
:1007400040910801509109010E941E1320E030E001
:100750004AE754E40E941E13AB01BC0122E030E0E2
:1007600081E895E00E94C00B6BE571E081E895E0BF
:100770000E94140A6DE571E081E895E00E94140A78
:1007800060910E0170910F01882777FD8095982F59
:100790000E94E20781E895E0DF91CF91FF90EF9012
:1007A000DF90CF90BF90AF909F908F907F906F9091
:1007B0005F904F900C94FA088091E80490E02091AB
:1007C000E904821B910908952091E9048091E804CD
:1007D000281750F4E22FF0E0E651FB4F808190E0C3
:1007E0002F5F2093E90408958FEF9FEF0895E09124
:1007F000E9048091E804E81730F4F0E0E651FB4F9B
:10080000808190E008958FEF9FEF08950895CF9233
:10081000DF92EF92FF920F931F93CF93DF937C01B0
:10082000CB018A012091C404222389F0EB016B01E2
:10083000C40ED51ECC15DD0569F06991D701ED9187
:10084000FC910190F081E02DC7010995F3CF642F51
:100850000E946605C801DF91CF911F910F91FF9013
:10086000EF90DF90CF900895CF93DF931F92CDB795
:10087000DEB769832091C4042223D1F02091C504FE
:10088000203240F021E030E0FC013383228380E01D
:1008900090E015C08091C604E82FF0E0E953FB4FCB
:1008A000998190838F5F8093C6048093C50405C0AF
:1008B00061E0CE0101960E94660581E090E00F9014
:1008C000DF91CF910895FC011382128248EE53E02C
:1008D00060E070E0448355836683778382E794E029
:1008E0009183808308951092E9041092E804109295
:1008F000C6041092C5040C94B104862F413208F04E
:1009000040E26AEE74E00E94CF041092E904809302
:10091000E804089521E00C947D0481E08093C404F0
:100920006093E7041092C6041092C50408950F93D3
:10093000062F21E04091C50467EC74E08091E70444
:100940000E9413051092C6041092C5041092C404AC
:100950000F91089561E00C94970488EB94E00C9457
:1009600063041092770581E08093750510927405F9
:1009700061E082E00E949D0861E083E00E949D08A2
:10098000E9EBF0E080818E7F808380818D7F8083A2
:1009900080E28093B80085E48093BC0008954132E2
:1009A00008F03FC0909177059111FCCF91E09093B2
:1009B0007705209375052FEF20930A0510924F05B8
:1009C000240F20934E059093760590917605880F1D
:1009D000892B8093760580917405813041F41092C3
:1009E0007405809176058093BB0085EC01C085EE8F
:1009F0008093BC00809177058130E1F380914F05B1
:100A0000841710F440914F0520E535E0FB01D90132
:100A10008A2F821B841718F48D918193F9CF842F2C
:100A2000089580E008950F93413208F046C09091F8
:100A300077059111FCCF92E09093770500937505AF
:100A40009FEF90930A0510924F0540934E05FB01CE
:100A500060E575E0DB019A2F961B941718F49191CD
:100A60009D93F9CF1092760590917605880F892B8A
:100A70008093760580917405813041F4109274055D
:100A8000809176058093BB0085EC01C085EE809354
:100A9000BC00222321F0809177058230E1F3809120
:100AA0000A058F3F61F080910A05803251F08091F4
:100AB0000A05803341F483E007C081E005C080E08F
:100AC00003C082E001C084E00F910895613298F480
:100AD00020917705243089F460932C05FC018EE287
:100AE00095E0DC012A2F281B261718F421912D935D
:100AF000F9CF80E0089581E0089582E0089585EDC2
:100B00008093BC008091BC0084FDFCCF10927705DF
:100B1000089585EC8093BC001092770508951F928C
:100B20000F920FB60F9211242F933F934F935F9321
:100B30006F937F938F939F93AF93BF93EF93FF93A5
:100B40008091B900887F803609F49CC068F58832AE
:100B500009F45BC090F4803109F454C038F4882360
:100B600009F4F5C0883009F44DC0F5C0883109F4A6
:100B70004CC0803209F45DC0EEC0803409F468C016
:100B800048F4803309F455C0883309F0E4C08093F9
:100B90000A05A8C0803509F44FC0883509F45DC046
:100BA000883409F0D8C0D5C0883909F4C6C0A8F483
:100BB000883709F467C038F4883609F463C0803791
:100BC00009F460C0C8C0883809F4B7C0803909F496
:100BD0005FC0803809F0BFC05BC0803B09F485C0AE
:100BE00038F4803A09F466C0883A09F47EC0B3C08C
:100BF000803C09F4A6C0883C09F4A3C0883B09F4F2
:100C000089C0A9C08091760510C090914F05809150
:100C10004E05981770F5E0914F0581E08E0F809397
:100C20004F05F0E0E05BFA4F80818093BB0085ECDC
:100C300085C080930A058DC0E0914F0581E08E0F3D
:100C400080934F058091BB00F0E0E05BFA4F80831A
:100C500090914F0580914E056DC0E0914F0581E068
:100C60008E0F80934F058091BB00F0E0E05BFA4F60
:100C700080838091750581116CC081E0809374053B
:100C800084EA60C083E08093770510920B05CFCF94
:100C900080910B05803208F050C0E0910B0581E097
:100CA0008E0F80930B058091BB00F0E0E45FFA4F5C
:100CB0008083BDCF80910B05803230F4E0910B052D
:100CC000F0E0E45FFA4F10820E947F0560910B050F
:100CD00070E0E0917005F09171058CE095E0099568
:100CE00010920B050E94890536C084E08093770539
:100CF00010922D0510922C05E0917205F09173056C
:100D0000099580912C05811105C081E080932C0507
:100D100010922E05E0912D0581E08E0F80932D0518
:100D2000F0E0E25DFA4F80818093BB0090912D0549
:100D300080912C05981708F47ACF85E88093BC0041
:100D40000AC085EC8093BC001092770504C0109215
:100D50000A050E947F05FF91EF91BF91AF919F918E
:100D60008F917F916F915F914F913F912F910F9054
:100D70000FBE0F901F901895FC01148213826083A0
:100D800088E081831282089588EB94E00C947304C8
:100D9000FC017483638308951F93CF93DF9300D086
:100DA000CDB7DEB7162F682F88EB94E04A835983BE
:100DB0000E948D04612F88EB94E00E9434045981D5
:100DC000652F88EB94E00E9434044A81642F88EBFD
:100DD00094E00E94340488EB94E00F900F90DF9130
:100DE000CF911F910C94AA041F93CF93DF93182FD8
:100DF000682F88EB94E00E948D0460E088EB94E01B
:100E00000E94340488EB94E00E94AA0442E0612F1F
:100E100088EB94E00E948A0488EB94E00E94E4034B
:100E2000182F88EB94E00E94E403D12F20E0C22F1A
:100E30009E01282BC901DF91CF911F910895CF9377
:100E4000DF93EC014B815C814368516861E08881EC
:100E50000E94CC06698170E080E090E00E94E20789
:100E600088810E94F4062A81022E02C096958795F9
:100E70000A94E2F7222329F0811528E0920708F06E
:100E8000906FDF91CF910895CF93DF93EC014B8169
:100E90005C814368516B61E088810E94CC06698166
:100EA00070E080E090E00E94E20788810E94F406F2
:100EB0002A81022E02C0969587950A94E2F7222392
:100EC00029F0811528E0920708F0906FDF91CF910B
:100ED00008951F920F920FB60F9211242F933F93F4
:100EE0008F939F93AF93BF938091790590917A05EB
:100EF000A0917B05B0917C053091780523E0230F0C
:100F00002D3720F40196A11DB11D05C026E8230F41
:100F10000296A11DB11D20937805809379059093C9
:100F20007A05A0937B05B0937C0580917D05909117
:100F30007E05A0917F05B09180050196A11DB11D90
:100F400080937D0590937E05A0937F05B0938005E7
:100F5000BF91AF919F918F913F912F910F900FBEB5
:100F60000F901F9018952FB7F894609179057091A4
:100F70007A0580917B0590917C052FBF08953FB73E
:100F8000F89480917D0590917E05A0917F05B091A8
:100F9000800526B5A89B05C02F3F19F00196A11D1D
:100FA000B11D3FBF6627782F892F9A2F620F711DC1
:100FB000811D911D42E0660F771F881F991F4A957A
:100FC000D1F70895CF92DF92EF92FF92CF93DF9304
:100FD0006B017C010E94BF07EB01C114D104E10445
:100FE000F10489F00E9422100E94BF076C1B7D0B48
:100FF000683E734090F381E0C81AD108E108F10817
:10100000C851DC4FEACFDF91CF91FF90EF90DF9096
:10101000CF900895789484B5826084BD84B5816052
:1010200084BD85B5826085BD85B5816085BDEEE6F0
:10103000F0E0808181608083E1E8F0E010828081CF
:1010400082608083808181608083E0E8F0E080813D
:1010500081608083E1E9F0E080818260808380812B
:1010600081608083E0E9F0E0808181608083E1EC51
:10107000F0E08081846080838081826080838081D1
:1010800081608083E3ECF0E0808181608083E0EC2C
:10109000F0E0808182608083E2ECF0E0808181601A
:1010A0008083EAE7F0E080818460808380818260D1
:1010B00080838081816080838081806880830895BF
:1010C00090E0FC013197EF30F105B0F5EA5AFF4F9F
:1010D0000C94DA13809180008F7703C08091800098
:1010E0008F7D80938000089580918000877FF9CF65
:1010F00084B58F7702C084B58F7D84BD08958091BB
:1011000090008F7707C0809190008F7D03C0809101
:101110009000877F8093900008958091C0008F7722
:1011200003C08091C0008F7D8093C000089580919E
:10113000C200877F8093C20008950F931F93CF93BF
:10114000DF931F92CDB7DEB7282F30E0F901E653C9
:10115000FF4F8491F901E851FF4F1491F901EA5FC3
:10116000FE4F04910023C9F0882321F069830E9477
:1011700060086981E02FF0E0EE0FFF1FEC5DFE4F8D
:10118000A591B4919FB7F8948C91611103C010950B
:10119000812301C0812B8C939FBF0F90DF91CF9152
:1011A0001F910F910895CF93DF931F92CDB7DEB7B4
:1011B0006983DC01ED91FC910280F381E02D41E037
:1011C00050E0BE016F5F7F4F09950F90DF91CF9187
:1011D0000895CF93DF93EC018C859D8597FF05C023
:1011E00082E00E944F0D9D878C878C859D85DF91C5
:1011F000CF91089583E00C94A40FFC01848595851C
:1012000097FD06C082E00E94F70C90E001960895D9
:1012100082E00E94F70C90E00895FC01848595859A
:1012200097FD05C02FEF3FEF35872487089582E0B3
:101230000C944F0DCF93DF93EC018091170188231D
:1012400031F083E00E94800D1816190634F081E019
:1012500090E09B838A8380E090E0DF91CF910895B6
:10126000FC0120812E5F208342E450E062E371E0C4
:1012700080E80C941B0EFC0181819081913A59F415
:10128000813209F03CC047E050E060E171E080E06D
:101290000E941B0E43C0913291F5803239F467E011
:1012A00070E080E191E00E944C0E06C0823209F0AD
:1012B00035C08281809317018091100190911101B6
:1012C000A0911201B0911301803B9440A105B1059A
:1012D000C1F48091170180FD14C087E797E79093D0
:1012E0000108809300082BE088E190E00FB6F894A5
:1012F000A895809360000FBE209360000FC080E02F
:10130000089588E10FB6F894809360001092600011
:101310000FBEA895109201081092000881E0089570
:101320002FEF3FEFFC01358724870895CF93C091BD
:1013300017016AE070E080E090E00E94E20781E03F
:10134000C11101C080E0CF910895109284051092E0
:10135000830588EE93E0A0E0B0E08093850590934C
:101360008605A0938705B093880582E894E0909362
:101370008205809381058FEF9FEF90938E05809378
:101380008D05089508950E940A080E94C20981ED02
:1013900095E00E9404100E948C01C0E0D0E00E9401
:1013A000B8012097E1F30E940000F9CFCF92DF92BD
:1013B000EF92FF920F931F93CF93DF936C017A010B
:1013C000EB01E60EF71E00E010E0CE15DF0561F040
:1013D0006991D601ED91FC910190F081E02DC6015B
:1013E0000995080F191FF1CFC801DF91CF911F9107
:1013F0000F91FF90EF90DF90CF90089561157105E8
:1014000081F0DB010D900020E9F7AD014150510959
:10141000461B570BDC01ED91FC910280F381E02D1E
:10142000099480E090E008950C94FE09DC01ED91B0
:10143000FC910190F081E02D09948F929F92AF92E0
:10144000BF92CF92DF92EF92FF920F931F93CF93B1
:10145000DF93CDB7DEB7A1970FB6F894DEBF0FBE0E
:10146000CDBF7C01C42EE52FCB01D22E19A221E0E5
:101470002D1510F02AE0D22E8E010F5D1F4F8D2CFE
:10148000912CA12CB12C6C2D7E2FA50194010E94D2
:1014900099138C2DD29E80191124015011098A3084
:1014A00014F4805D01C0895CF80180832115310549
:1014B0004105510521F0C22EE32FCA01E4CFB80146
:1014C000C7010E94FE09A1960FB6F894DEBF0FBEB9
:1014D000CDBFDF91CF911F910F91FF90EF90DF90E3
:1014E000CF90BF90AF909F908F900895CF92DF9252
:1014F000EF92FF920F931F93CF93DF93EC016A015A
:101500007B012115310579F4E881F9810190F081A1
:10151000E02D642FDF91CF911F910F91FF90EF90FD
:10152000DF90CF9009942A303105E9F477FF1AC093
:101530006DE20E94160A8C0144275527BA014C1906
:101540005D096E097F092AE0CE010E941D0A800F05
:10155000911FDF91CF911F910F91FF90EF90DF903E
:10156000CF9008952AE0B701A601CE01DF91CF9177
:101570001F910F91FF90EF90DF90CF900C941D0A78
:101580009A01AB01662757FD6095762F0C94760A79
:101590002115310541F4DC01ED91FC910190F081C0
:1015A000E02D642F09940C941D0A4F925F926F9264
:1015B0007F928F929F92AF92BF92CF92DF92EF92E3
:1015C000FF920F931F93CF93DF93EC016A017B018E
:1015D000B22E9A01AB01C701B6010E948113882384
:1015E00019F06EE874E027C026013701E89477F817
:1015F0002FEF3FEF4FE75FE7C301B2010E94811376
:1016000081110DC02FEF3FEF4FE75FE7C301B2013C
:101610000E94CB1118161CF462E974E00CC02FEF85
:101620003FEF4FE75FE4C701B6010E941A13181697
:10163000ACF466E974E0CE01DF91CF911F910F9178
:10164000FF90EF90DF90CF90BF90AF909F908F90E2
:101650007F906F905F904F900C94FE092FEF3FEFBB
:101660004FE75FECC701B6010E94CB1187FDE1CFC8
:1016700020E030E0A901C701B6010E94CB1187FF2D
:101680000AC06DE2CE010E94160A8C01F7FAF094AE
:10169000F7F8F09402C000E010E0A12C60E070E0E8
:1016A00080E09FE3AB1441F020E030E040E251E401
:1016B0000E94CF11A394F6CF9B01AC01C701B601E4
:1016C0000E9467116B017C010E943C122B013C01BE
:1016D0000E9468129B01AC01C701B6010E9466110D
:1016E0006B017C012AE0B301A201CE010E941D0A18
:1016F000080F191FBB2039F06AE974E0CE010E947F
:10170000FE09080F191F7B2C772041F120E030E003
:1017100040E251E4C701B6010E941E136B017C0137
:101720000E9437124B01AA2497FCA094BA2C2AE0FD
:1017300030E0B501A401CE010E94760A080F191FFE
:10174000C501B4010E946A129B01AC01C701B60138
:101750000E9466116B017C017A94D6CFC801DF919B
:10176000CF911F910F91FF90EF90DF90CF90BF909E
:10177000AF909F908F907F906F905F904F90089563
:101780000C94D50A0F931F93CF93DF93EC010E9423
:10179000B307688779878A879B87E881F981008406
:1017A000F185E02DCE01099597FF15C00E94B30782
:1017B000088519852A853B85601B710B820B930B6D
:1017C0000C811D812E813F8160177107820793076D
:1017D00020F38FEF9FEFDF91CF911F910F9108952D
:1017E000CF93DF93EC01CE010E94C20B97FD11C095
:1017F0008D32910571F09C01205331092A30310559
:1018000040F0E881F9810680F781E02DCE0109954D
:10181000EACFDF91CF910895CF92DF92FF920F939D
:101820001F93CF93DF9300D000D0CDB7DEB76C010C
:10183000062F0E94F00BFC0197FD4BC020E030E02A
:10184000A901F12C112707FD1095E017F107E9F028
:10185000ED32F105C1F0CF01C0970A97B0F4AAE0CC
:10186000B0E00E94E0139B01AC01CF01AA2797FDD5
:10187000A095BA2F280F391F4A1F5B1F205331092B
:101880004109510902C0FF24F394D601ED91FC9166
:101890000680F781E02DC60129833A834B835C8360
:1018A0000995C6010E94C20BFC01C09729813A81AB
:1018B0004B815C810A9748F2E017F10731F2FF2073
:1018C00061F066277727CB01621B730B840B950BA6
:1018D00006C060E070E0CB0102C0CA01B9010F9000
:1018E0000F900F900F90DF91CF911F910F91FF906C
:1018F000DF90CF90089561E00C940C0C4091D505D9
:101900005091D6052091D3053091D4054217530745
:10191000B4F49091E8009570E1F39091E80092FDA5
:1019200019C08093F1008091D5059091D60501965C
:101930008F739927892B19F48EEF8093E80080919B
:10194000D5059091D60501969093D6058093D5053F
:1019500081E0089580E00895CF92DF92FF920F9387
:101960001F93CF93DF931F92CDB7DEB7082F162FAB
:10197000862F880F8E5F99830E947E0C83E00E94E1
:101980007E0CF02EC02E9981D92E8C2D8F198117A7
:1019900078F4F60184910E947E0C082F80E00E946A
:1019A0007E0C8023FFEFCF1ADF0A8111EECF01C03A
:1019B00081E00F90DF91CF911F910F91FF90DF9009
:1019C000CF900895615030F02091F100FC01208308
:1019D0000196F8CF289884E68093D80508952FB70C
:1019E000FC012083F89467706093E9000895CF9319
:1019F000DF931F92CDB7DEB7682FCE0101960E940C
:101A0000EF0C8091F20099819FBF0F90DF91CF91F1
:101A10000895FF920F931F93CF93DF9300D0CDB71C
:101A2000DEB7F62E8A019091D705992311F057FF62
:101A300003C08FEF9FEF2BC0682FCE0101967A83F2
:101A40000E94EF0C8091F20090E0A8017A8180174B
:101A500091070CF4AC01EF2DF72FF40E84E6FE167F
:101A600039F028988093D8059091F1009193F7CFA1
:101A70004115510521F08091F200882321F08981E0
:101A80008FBFCA0104C08BE68093E800F8CF0F90A7
:101A90000F90DF91CF911F910F91FF900895CF93F9
:101AA000DF931F92CDB7DEB741E050E0BE016F5F1C
:101AB0007F4F0E94090D019719F4898190E002C0BF
:101AC0008FEF9FEF0F90DF91CF910895CF93DF932A
:101AD0001F92CDB7DEB7682FCE0101960E94EF0CA2
:101AE0009091E800892F807295FF04C09091F200D8
:101AF00080E4891B99819FBF0F90DF91CF9108955A
:101B00006F927F928F929F92AF92BF92CF92DF920D
:101B1000EF92FF920F931F93CF93DF931F92CDB756
:101B2000DEB7782E7B01C42EB52E8091D705882391
:101B300069F0042F152F8AEFD82E872D8072982EEA
:101B40009AE3A92E872D8074882E11C08FEF9FEF06
:101B500057C0872D0E94660D682E81110CC0DA9443
:101B6000A9F361E070E080E090E00E94E2070115D7
:101B7000110579F73BC0282F30E0021713070CF44A
:101B8000602E672DCE0101960E94EF0C8091E80037
:101B900085FF29C0262D30E0021B130B992039F058
:101BA0006A948FEF6816B1F01092F100F9CFF70147
:101BB000862D77FE07C0815058F094919093F100E4
:101BC0003196F9CF815020F091919093F100FACFA6
:101BD000E20EF31E8091E80085FF0FC0011511058C
:101BE00011F481100AC089818FBFC1CF5D9884E64E
:101BF0008093D9058C2D9B2D03C0A092E800F3CFD4
:101C00000F90DF91CF911F910F91FF90EF90DF9098
:101C1000CF90BF90AF909F908F907F906F900895DE
:101C20001092E9001092D6051092D5059093D40534
:101C30008093D3050895CF92DF92FF920F931F9365
:101C4000CF93DF9300D0CDB7DEB7F82E8A016B01BA
:101C500001151105B1F0F601F7FE02C0849101C033
:101C6000808149835A830E947E0C01501109FFEF45
:101C7000CF1ADF0A49815A818111EACF8FEF9FEF96
:101C800001C0CA010F900F90DF91CF911F910F916A
:101C9000FF90DF90CF9008951F93CF93DF931F9213
:101CA000CDB7DEB7162F2091E80022FFFCCF612FC1
:101CB00079830E94E20C8BEF8093E800812F798179
:101CC000972F0F90DF91CF911F910895CF93DF93BE
:101CD0001F92CDB7DEB71982CE0101960E9430095E
:101CE000CE0101960E944110898190E00F90DF9112
:101CF000CF9108951F920F920FB60F921124EF9279
:101D0000FF920F931F932F933F934F935F936F9384
:101D10007F938F939F93AF93BF93EF93FF93CF9353
:101D2000DF93CDB7DEB76297DEBFCDBF1092E9007B
:101D30008091E80083FFEBC068E0CE010A960E9424
:101D4000E20C82EF8093E8009A8597FF05C08091AE
:101D5000E80080FFFCCF03C08EEF8093E800892F5E
:101D6000807609F0B9C08B85811105C01092F10011
:101D70001092F100C5C0282F2D7F213009F4C0C07A
:101D8000853049F48091E80080FFFCCF8C85806825
:101D90008093E300B5C0863009F076C02D85E888D1
:101DA000F988223071F580E090E02A8B0E94100EB5
:101DB0000E94660E99E08E010F5F1F4FF801392FC8
:101DC00011923A95E9F799832A892A8391E09E83B3
:101DD00090E898879AEF99872091D5053091D6059C
:101DE000275F3F4F3C832B838D83C7010E94100EDA
:101DF00049E050E0B80180E00E941B0E0E94660E90
:101E00007FC0C7012A8B0E94100E2A89223241F41A
:101E100082E290E00E944C10892B09F071C074C0DE
:101E2000213069F488899989089711F42093D205A3
:101E30008091D205811118C06BE871E01AC023307F
:101E400009F062C08C85882391F0823021F460E132
:101E500089EA91E006C0813009F056C06BE08DE957
:101E600091E00E94AC0C4AC069E771E002C06AEBE5
:101E700071E06115710509F447C0FB01449150E020
:101E800080E80E941B0E3CC0873009F43DC08830BA
:101E900021F481E08093F10033C0893089F593709B
:101EA00099F5E5E7F1E081E021E096E38093E90030
:101EB0002093EB0034913093EC009093ED008F5F12
:101EC0003196853099F78EE78093EA001092EA0008
:101ED0008C858093D70514C0888999890E94100E3B
:101EE0008E85811105C0CE010A960E943B0906C06D
:101EF000823051F4CE010A960E947410882321F09A
:101F00008EEF8093E80003C081E28093EB0062963D
:101F10000FB6F894DEBF0FBECDBFDF91CF91FF911A
:101F2000EF91BF91AF919F918F917F916F915F9151
:101F30004F913F912F911F910F91FF90EF900F9034
:101F40000FBE0F901F9018958093E9008091F200CA
:101F5000882319F08AE38093E80008951F920F9276
:101F60000FB60F9211242F933F934F935F936F936C
:101F70007F938F939F93AF93BF93EF93FF93809142
:101F8000E1001092E10083FF0FC01092E90091E0A0
:101F90009093EB001092EC0092E39093ED0010927E
:101FA000D70598E09093F00082FF1DC083E00E9467
:101FB000A40F8091D905882339F08091D9058150EB
:101FC0008093D905882369F08091D805882359F03A
:101FD0008091D80581508093D805811104C0289A3A
:101FE00002C05D9AF1CFFF91EF91BF91AF919F91A8
:101FF0008F917F916F915F914F913F912F910F90B2
:102000000FBE0F901F9018951092D70581E0809316
:10201000D70080EA8093D80082E189BD09B400FE30
:10202000FDCF61E070E080E090E00E94E20780E98F
:102030008093D8008CE08093E2001092E000559AE3
:10204000209A08950895FF920F931F93CF93DF93E3
:10205000EC01F62EE881F9810480F581E02D0995E7
:102060008C01E881F9810680F781E02D6F2DCE018A
:102070000995C8019927DF91CF911F910F91FF908A
:102080000895FC0120812F5F208349E150E06EE339
:1020900072E080E80C941B0E45E650E067E572E0C4
:1020A00080E80C941B0EEF92FF920F931F93CF9337
:1020B000DF931F92CDB7DEB789838B017A0141E0B0
:1020C00050E0BE016F5F7F4F84E00E94800DA7014A
:1020D000B80184E40E94800D0F90DF91CF911F9191
:1020E0000F91FF90EF900895FC0191818081813ADA
:1020F00031F481E0913091F0933089F411C0813254
:1021000071F49B3021F482818093190105C09A30CB
:1021100031F482818093180181E00895089580E070
:10212000089548E050E082E00C945310CF93DF9381
:10213000DC01683818F0E8E7E60F25C0E62FF0E08C
:1021400067FF11C0E058F10981E090E001C0880FFD
:10215000EA95EAF714969C911497982B14969C9301
:102160001497E0E010C0E254FE4FE491EE2309F42E
:1021700040C0E7FF08C014968C91149782601496B3
:102180008C931497EF7716968C9116978E1741F1D2
:1021900017968C9117978E1719F118968C9118979E
:1021A0008E17F1F019968C9119978E17C9F01A961F
:1021B0008C911A978E17A1F01B968C911B978E17F6
:1021C00079F080E090E0ED01C80FD91F2E81211138
:1021D00002C0EE8305C0019686309105A1F709C0C3
:1021E000BD016C5F7F4FCD010E94911081E090E0B6
:1021F00008C081E090E013969C938E93129780E044
:1022000090E0DF91CF910895683818F0E8E7E60F85
:1022100025C0E62FF0E067FF12C0E058F10921E089
:1022200030E001C0220FEA95EAF72095DC01149610
:102230003C911497322314963C93E0E00FC0E25493
:10224000FE4FE491EE2329F1E7FF08C0DC0114966C
:102250002C9114972D7F14962C93EF7720E030E08B
:10226000EE2351F0DC01A20FB31F16964C91169786
:102270004E1302C016961C922F5F3F4F2630310539
:1022800079F7BC016C5F7F4F0E94911081E090E074
:10229000089580E090E00895FC0116821782108670
:1022A0001186128613861482BC016C5F7F4F0C94DA
:1022B00091101092E6051092DD051092DC0580EA7F
:1022C00094E09093DB058093DA0508955058BB277E
:1022D000AA270ED075C166D130F06BD120F031F451
:1022E0009F3F11F41EF45BC10EF4E095E7FB51C172
:1022F000E92F77D180F3BA17620773078407950730
:1023000018F071F49EF58FC10EF4E0950B2EBA2FE4
:10231000A02D0B01B90190010C01CA01A0011124EB
:10232000FF27591B99F0593F50F4503E68F11A1697
:10233000F040A22F232F342F4427585FF3CF469528
:1023400037952795A795F0405395C9F77EF41F164A
:10235000BA0B620B730B840BBAF09150A1F0FF0F14
:10236000BB1F661F771F881FC2F70EC0BA0F621F00
:10237000731F841F48F4879577956795B795F795F0
:102380009E3F08F0B3CF9395880F08F09927EE0F82
:10239000979587950895D9D008F481E008950CD0D9
:1023A0000FC107D140F0FED030F021F45F3F19F0AB
:1023B000F0C0511139C1F3C014D198F39923C9F376
:1023C0005523B1F3951B550BBB27AA27621773073B
:1023D000840738F09F5F5F4F220F331F441FAA1FEF
:1023E000A9F333D00E2E3AF0E0E830D091505040AF
:1023F000E695001CCAF729D0FE2F27D0660F771F5D
:10240000881FBB1F261737074807AB07B0E809F03E
:10241000BB0B802DBF01FF2793585F4F2AF09E3FD3
:10242000510568F0B6C000C15F3FECF3983EDCF3A5
:10243000869577956795B795F7959F5FC9F7880F4C
:10244000911D9695879597F90895E1E0660F771F9E
:10245000881FBB1F621773078407BA0720F0621B2F
:10246000730B840BBA0BEE1F88F7E095089504D028
:102470006894B111D9C00895BCD088F09F5790F0EE
:10248000B92F9927B751A0F0D1F0660F771F881F99
:10249000991F1AF0BA95C9F712C0B13081F0C3D0B4
:1024A000B1E00895C0C0672F782F8827B85F39F052
:1024B000B93FCCF3869577956795B395D9F73EF4F8
:1024C00090958095709561957F4F8F4F9F4F0895A0
:1024D000E89409C097FB3EF49095809570956195BE
:1024E0007F4F8F4F9F4F9923A9F0F92F96E9BB2774
:1024F0009395F695879577956795B795F111F8CFF0
:10250000FAF4BB0F11F460FF1BC06F5F7F4F8F4F5A
:102510009F4F16C0882311F096E911C0772321F050
:102520009EE8872F762F05C0662371F096E8862FE8
:1025300070E060E02AF09A95660F771F881FDAF73F
:10254000880F9695879597F90895990F0008550F6C
:10255000AA0BE0E8FEEF16161706E807F907C0F029
:1025600012161306E407F50798F0621B730B840B31
:10257000950B39F40A2661F0232B242B252B21F40B
:1025800008950A2609F4A140A6958FEF811D811DAB
:10259000089597F99F6780E870E060E008959FEFE5
:1025A00080EC089500240A941616170618060906EA
:1025B000089500240A9412161306140605060895B9
:1025C000092E0394000C11F4882352F0BB0F40F441
:1025D000BF2B11F460FF04C06F5F7F4F8F4F9F4F81
:1025E000089557FD9058440F551F59F05F3F71F003
:1025F0004795880F97FB991F61F09F3F79F087956A
:102600000895121613061406551FF2CF4695F1DFF2
:1026100008C0161617061806991FF1CF8695710582
:10262000610508940895E894BB2766277727CB01B6
:1026300097F908958ADF08F48FEF08950BD0C0CF83
:10264000B1DF28F0B6DF18F0952309F0A2CFA7CFAD
:102650001124EACFC6DFA0F3959FD1F3950F50E088
:10266000551F629FF001729FBB27F00DB11D639F44
:10267000AA27F00DB11DAA1F649F6627B00DA11DEA
:10268000661F829F2227B00DA11D621F739FB00D90
:10269000A11D621F839FA00D611D221F749F332700
:1026A000A00D611D231F849F600D211D822F762F99
:1026B0006A2F11249F5750408AF0E1F088234AF096
:1026C000EE0FFF1FBB1F661F771F881F91505040E2
:1026D000A9F79E3F510570F05CCFA6CF5F3FECF3AA
:1026E000983EDCF3869577956795B795F795E795CE
:1026F0009F5FC1F7FE2B880F911D9695879597F9DF
:10270000089523DF880B990B089597FB072E16F485
:10271000009407D077FD09D00E94EB1307FC05D089
:102720003EF4909581959F4F0895709561957F4FE8
:102730000895A1E21A2EAA1BBB1BFD010DC0AA1F02
:10274000BB1FEE1FFF1FA217B307E407F50720F01A
:10275000A21BB30BE40BF50B661F771F881F991F95
:102760001A9469F760957095809590959B01AC01DE
:10277000BD01CF010895052E97FB1EF400940E9421
:10278000D21357FD07D00E94991307FC03D04EF4D3
:102790000C94D21350954095309521953F4F4F4F53
:1027A0005F4F089590958095709561957F4F8F4FFD
:1027B0009F4F0895EE0FFF1F0590F491E02D0994AF
:1027C0000E94FF13A59F900DB49F900DA49F800DB4
:1027D000911D11240895AA1BBB1B51E107C0AA1F1C
:1027E000BB1FA617B70710F0A61BB70B881F991FB2
:1027F0005A95A9F780959095BC01CD010895A29FA7
:10280000B001B39FC001A39F700D811D1124911DC4
:10281000B29F700D811D1124911D0895F894FFCF72
:102820000000E70580000000003E0000003E1400AC
:1028300000E1000000000000010176657273696F1D
:102840006E207B226E616D65223A22616461667240
:102850007569745F616473313131355F64696666CF
:102860006572656E7469616C222C2276657273697B
:102870006F6E223A22302E302E34227D000A0075EF
:102880007064617465207B226E616D65223A2273EB
:10289000616D706C6572617465222C2276616C7555
:1028A00065223A00757064617465207B226E616DEB
:1028B00065223A226368616E6E656C31222C22704B
:1028C0006172616D65746572223A226761696E2278
:1028D0002C2276616C7565223A307D0075706461DA
:1028E0007465207B226E616D65223A226368616E99
:1028F0006E656C31222C22706172616D6574657237
:10290000223A226761696E222C2276616C756522FB
:102910003A317D00757064617465207B226E616D53
:1029200065223A226368616E6E656C31222C2270DA
:102930006172616D65746572223A226761696E2207
:102940002C2276616C7565223A327D007570646167
:102950007465207B226E616D65223A226368616E28
:102960006E656C31222C22706172616D65746572C6
:10297000223A226761696E222C2276616C7565228B
:102980003A337D00757064617465207B226E616DE1
:1029900065223A226368616E6E656C31222C22706A
:1029A0006172616D65746572223A226761696E2297
:1029B0002C2276616C7565223A347D0075706461F5
:1029C0007465207B226E616D65223A226368616EB8
:1029D0006E656C31222C22706172616D6574657256
:1029E000223A226761696E222C2276616C7565221B
:1029F0003A357D00696E666F207B226D6573736169
:102A00006765223A20224E6F2073756368206761E4
:102A1000696E227D00757064617465207B226E6131
:102A20006D65223A226368616E6E656C32222C22DB
:102A3000706172616D65746572223A226761696EB8
:102A4000222C2276616C7565223A307D00757064A7
:102A5000617465207B226E616D65223A2263686134
:102A60006E6E656C32222C22706172616D657465C8
:102A700072223A226761696E222C2276616C75653A
:102A8000223A317D00757064617465207B226E612D
:102A90006D65223A226368616E6E656C32222C226B
:102AA000706172616D65746572223A226761696E48
:102AB000222C2276616C7565223A327D0075706435
:102AC000617465207B226E616D65223A22636861C4
:102AD0006E6E656C32222C22706172616D65746558
:102AE00072223A226761696E222C2276616C7565CA
:102AF000223A337D00757064617465207B226E61BB
:102B00006D65223A226368616E6E656C32222C22FA
:102B1000706172616D65746572223A226761696ED7
:102B2000222C2276616C7565223A347D00757064C2
:102B3000617465207B226E616D65223A2263686153
:102B40006E6E656C32222C22706172616D657465E7
:102B500072223A226761696E222C2276616C756559
:102B6000223A357D006461746120007B2274696DB6
:102B700065223A002C226368616E6E656C31223AE0
:102B8000002C226368616E6E656C32223A00000090
:102B9000000034040704DC03E403F7030604000028
:102BA0000000D3081A09FD080D09E908FA086E614A
:102BB0006E00696E66006F7666002E0000000000F1
:0A2BC0002310D609961004114C11E1
:00000001FF
