:100000000C948C010C94B4010C94B4010C94B401C4
:100010000C94B4010C94B4010C94B4010C94B4018C
:100020000C94B4010C94B4010C94FA130C94C812FF
:100030000C94B4010C94B4010C94B4010C94B4016C
:100040000C94B4010C94B4010C94B4010C94B4015C
:100050000C94B4010C94B4010C94B4010C946F0A88
:100060000C94B4010C94570D0C94890D0C94B401AC
:100070000C94B4010C94B4010C94B4010C94B4012C
:100080000C94B4010C94B4010C94B4010C94B4011C
:100090000C94FA060C94B4010C94B4010C94B401C1
:1000A0000C94B4010C94B4010C94B401B309CA09C2
:1000B000CA09C709CA09B109CA09CA09CA09A509E9
:1000C000CA09CA09BA09C509C309CA09CA09CA09B4
:1000D000C1097E0B810B700B740B7A0BA20BA20B68
:1000E000A20B850B890B8D0B930B970BA20B9D0B12
:1000F00044656320313120323031360031373A34B3
:10010000313A3230001F1C1F1E1F1E1F1F1E1F1ED4
:100110001F0000000200090F0000030401000C0092
:1001200000000000000000000000000000000004CB
:1001300008020110408040102040804080080204E6
:10014000018040201002011080102040400404046F
:10015000040403040502020202040302020202066E
:10016000060606060604040202020400000000253A
:100170000028002B002E0031000000000024002782
:10018000002A002D00300000C18081C11201000250
:1001900002000040032A4180000101020001120117
:1001A000000200000040032A41800001010200011A
:1001B00041726475696E6F2053726C004172647590
:1001C000696E6F2059756E0004030904080B000264
:1001D00002020100090400000102020000052400DF
:1001E0001001052401010104240206052406000172
:1001F0000705810310004009040100020A00000005
:1002000007050202400000070583024000000000CD
:100210000000000000002A2B280000000000000061
:1002200000000000000000000000000000002C9E04
:10023000B4A0A1A2A434A6A7A5AE362D3738271E98
:100240001F20212223242526B333B62EB7B89F843E
:1002500085868788898A8B8C8D8E8F9091929394D6
:1002600095969798999A9B9C9D2F3130A3AD350414
:1002700005060708090A0B0C0D0E0F1011121314B6
:1002800015161718191A1B1C1DAFB1B0B5000904BB
:1002900002000103000000092101010001226500A4
:1002A0000705840340000105010902A1010901A11C
:1002B000008501050919012903150025019503751C
:1002C0000181029501750581030501093009310994
:1002D000381581257F750895038106C0C005010981
:1002E00006A1018502050719E029E715002501751A
:1002F0000195088102950175088103950675081519
:100300000025650507190029658100C056021806F9
:10031000B90D26167917660211241FBECFEFDAE059
:10032000DEBFCDBF12E0A0E0B1E0E2EDF8E302C035
:1003300005900D92AA38B107D9F724E0AAE8B2E0F7
:1003400001C01D92A937B207E1F713E0C6E1D3E07F
:1003500004C02297FE010E94E819CC30D107C9F7EA
:100360000E94FD0D0C945C1C0C940000CF93DF9355
:10037000C1E0D1E06C2F85EA92E00E94F80585EAA1
:1003800092E00E941506811112C0C83439F48091A0
:10039000960281111CC0D093960219C0C836B9F4D8
:1003A00080919502811113C0D093950210C0C8347A
:1003B00039F480919602882351F01092960207C07A
:1003C000C83629F480919502811110929502CF5F71
:1003D000CF3781F6DF91CF910895CF93DF9300D08F
:1003E00000D000D0CDB7DEB726E040E052EC61E0AF
:1003F00070E082E793E00E94F50C80EA92E00E94B0
:100400002F088BE992E00E942F0860E070E080EAFC
:1004100092E00E94330860E070E08BE992E00E9475
:1004200033084CEF50E060EF70E0CE0101960E947F
:100430007709CE0101960E94260A0E94B90A6093AC
:100440009702709398028093990290939A0261E0C8
:100450008DE00E94A30B0E94B60126960FB6F89479
:10046000DEBF0FBECDBFDF91CF91089560E271E096
:1004700082E793E00E944E0E80919602882331F02D
:1004800069E271E082E793E00E944E0E809195024E
:10049000882331F064E371E082E793E00E944E0E1E
:1004A0006BE371E082E793E00C944E0E68E480EA1F
:1004B00092E00E94270868E48BE992E00E942708F6
:1004C00065EF71E08AE892E00C94DC148AE892E02F
:1004D0000C946E14CF93DF9300D000D000D0CDB732
:1004E000DEB763E471E082E793E00E944E0E6AE4B7
:1004F00071E082E793E00E944E0E0E94B90AAB01C0
:10050000BC012AE030E082E793E00E94280F61E41A
:1005100071E082E793E00E944E0E8091960288235C
:1005200009F45CC063E571E082E793E00E944E0E3F
:10053000609192027091930280EA92E00E943308E7
:1005400080EA92E00E948E08BC01882777FD8095A2
:10055000982F0E948A1820910A0130910B01409136
:100560000C0150910D010E943E19AB01BC0122E02B
:1005700030E082E793E00E94201062E371E082E7BE
:1005800093E00E944E0E60919002709191028BE96F
:1005900092E00E9433088BE992E00E94B308BC010C
:1005A000882777FD8095982F0E948A182091060150
:1005B0003091070140910801509109010E943E19B4
:1005C000AB01BC0122E030E082E793E00E94201002
:1005D00061E471E082E793E00E944E0E8091950203
:1005E0008823E1F060E671E082E793E00E944E0E1E
:1005F000CE0101960E94470ACE0101960E94F80999
:10060000AB01BC012AE030E082E793E00E94280FB2
:1006100061E471E082E793E00E944E0E6EEA71E0C1
:1006200082E793E00E946B0E82E793E00E946E0CDB
:1006300026960FB6F894DEBF0FBECDBFDF91CF91E7
:10064000089569E671E08AE892E00E9449158823DE
:1006500041F161E771E082E793E00E944E0E62E8AB
:1006600071E082E793E00E944E0E6CE871E082E751
:1006700093E00E944E0E6AE971E082E793E00E94E7
:100680004E0E6DEA71E082E793E00E944E0E64EF39
:1006900071E082E793E00E944E0E82E793E00E94B1
:1006A0006E0C60EB71E08AE892E00E9449158823A5
:1006B00039F081E08093940261E08DE00E94DC0BD0
:1006C0006AEB71E08AE892E00E944915882331F0D4
:1006D0001092940260E08DE00E94DC0B63EC71E00C
:1006E0008AE892E00E944915882391F182E793E01D
:1006F0000E94DB1060931201709313018093140128
:10070000909315016EEC71E082E793E00E944E0E2B
:100710002091120130911301409114015091150163
:1007200068EE73E080E090E00E94C719BA01A90169
:100730002AE030E082E793E00E94D60E63EF71E09A
:1007400082E793E00E944E0E82E793E00E946E0CD7
:1007500066EF71E08AE892E00E944915882309F467
:1007600085C082E793E00E94DB10663071050CF0D3
:100770007DC06230710529F194F46115710509F4A9
:1007800041C061307105F1F560E072E080EA92E00D
:100790000E94330880E090E0A0E0BEE33DC06430FA
:1007A000710529F1CCF06530710561F560E07AE002
:1007B00080EA92E00E94330880E090E0A0E0BCE391
:1007C0002BC060E074E080EA92E00E94330880E091
:1007D00090E0A0E8BDE320C060E076E080EA92E02F
:1007E0000E94330880E090E0A0E0BDE315C060E027
:1007F00078E080EA92E00E94330880E090E0A0E890
:10080000BCE30AC060E070E080EA92E00E94330836
:1008100080E090E0A0E4BEE380930A0190930B0196
:10082000A0930C01B0930D0180EA92E00E9437087A
:1008300090939302809392026BEF71E082E793E0D2
:100840000E944E0E60919202709193024AE050E035
:1008500082E793E00E94200F63EF71E082E793E06C
:100860000E944E0E82E793E00E946E0C61E372E0FC
:100870008AE892E00E944915882309F485C082E73E
:1008800093E00E94DB10663071050CF07DC0623091
:10089000710529F194F46115710509F441C06130C5
:1008A0007105F1F560E072E08BE992E00E94330897
:1008B00080E090E0A0E0BEE33DC06430710529F126
:1008C000CCF06530710561F560E07AE08BE992E08B
:1008D0000E94330880E090E0A0E0BCE32BC060E021
:1008E00074E08BE992E00E94330880E090E0A0E899
:1008F000BDE320C060E076E08BE992E00E9433081F
:1009000080E090E0A0E0BDE315C060E078E08BE916
:1009100092E00E94330880E090E0A0E8BCE30AC0C7
:1009200060E070E08BE992E00E94330880E090E0A4
:10093000A0E4BEE38093060190930701A093080111
:10094000B09309018BE992E00E94370890939102DD
:10095000809390026BEF71E082E793E00E944E0E6D
:1009600060919002709191024AE050E082E793E03A
:100970000E94200F63EF71E082E793E00E944E0E29
:1009800082E793E00E946E0C67E372E08AE892E0EF
:100990000E944915882341F00E94360264EF71E0FD
:1009A00082E793E00E944E0E65EF71E08AE892E0E4
:1009B0000C94F2140F931F93CF93DF931F92CDB734
:1009C000DEB7209112013091130140911401509132
:1009D000150168EE73E080E090E00E94C719209353
:1009E0000E0130930F01409310015093110182E7E3
:1009F00093E00E94120C18161906B4F482E793E0F3
:100A00000E942B0C682F992787FD909569830E947F
:100A1000F91B6981892B29F08AE892E00E9436153A
:100A2000E6CF0E942103E3CF0E94B90A009197020A
:100A3000109198022091990230919A02601B710BDB
:100A4000820B930B00910E0110910F012091100168
:100A500030911101601771078207930778F00E94A7
:100A6000B90A6093970270939802809399029093C9
:100A70009A028091940281110E946A0282E793E0B7
:100A80000F90DF91CF911F910F910C946E0C80917C
:100A9000D50290E02091D602821B91090895209101
:100AA000D6028091D502281750F4E22FF0E0E952E7
:100AB000FD4F808190E02F5F2093D60208958FEF45
:100AC0009FEF0895E091D6028091D502E81730F4A7
:100AD000F0E0E952FD4F808190E008958FEF9FEFA5
:100AE00008950895CF92DF92EF92FF920F931F9394
:100AF000CF93DF937C01CB018A012091B1022223A5
:100B000089F0EB016B01C40ED51ECC15DD0569F033
:100B10006991D701ED91FC910190F081E02DC70121
:100B20000995F3CF642F0E94D106C801DF91CF91C0
:100B30001F910F91FF90EF90DF90CF900895CF938A
:100B4000DF931F92CDB7DEB769832091B1022223D4
:100B5000D1F02091B202203240F021E030E0FC01DF
:100B60003383228380E090E015C08091B302E82FA8
:100B7000F0E0EC54FD4F998190838F5F8093B30236
:100B80008093B20205C061E0CE0101960E94D106B9
:100B900081E090E00F90DF91CF910895FC011382E6
:100BA000128248EE53E060E070E044835583668330
:100BB000778382E492E09183808308951092D60235
:100BC0001092D5021092B3021092B2020C941C063D
:100BD000862F413208F040E267ED72E00E943A064B
:100BE0001092D6028093D502089521E00C94E80576
:100BF00081E08093B1026093D4021092B30210920C
:100C0000B20208950F93062F21E04091B20264EBE7
:100C100072E08091D4020E947E061092B30210927C
:100C2000B2021092B1020F91089561E00C94020695
:100C300085EA92E00C94CE051092640381E08093E3
:100C400062031092610361E082E00E94DC0B61E0CC
:100C500083E00E94DC0BE9EBF0E080818E7F8083F3
:100C600080818D7F808380E28093B80085E48093CB
:100C7000BC000895413208F03FC090916403911187
:100C8000FCCF91E090936403209362032FEF2093B5
:100C9000F70210923C03240F20933B0390936303CD
:100CA00090916303880F892B809363038091610384
:100CB000813041F410926103809163038093BB0003
:100CC00085EC01C085EE8093BC0080916403813087
:100CD000E1F380913C03841710F440913C032DE331
:100CE00033E0FB01D9018A2F821B841718F48D9100
:100CF0008193F9CF842F089580E008950F934132B6
:100D000008F046C0909164039111FCCF92E090935B
:100D10006403009362039FEF9093F70210923C03E9
:100D200040933B03FB016DE373E0DB019A2F961BBD
:100D3000941718F491919D93F9CF109263039091B9
:100D40006303880F892B8093630380916103813053
:100D500041F410926103809163038093BB0085ECA2
:100D600001C085EE8093BC00222321F080916403B2
:100D70008230E1F38091F7028F3F61F08091F702BA
:100D8000803251F08091F702803341F483E007C054
:100D900081E005C080E003C082E001C084E00F91E3
:100DA0000895613298F420916403243089F46093AB
:100DB0001903FC018BE193E0DC012A2F281B261785
:100DC00018F421912D93F9CF80E0089581E00895E2
:100DD00082E0089585ED8093BC008091BC0084FD85
:100DE000FCCF10926403089585EC8093BC001092B0
:100DF000640308951F920F920FB60F9211242F9340
:100E00003F934F935F936F937F938F939F93AF9392
:100E1000BF93EF93FF938091B900887F803609F4E8
:100E20009CC068F5883209F45BC090F4803109F405
:100E300054C038F4882309F4F5C0883009F44DC053
:100E4000F5C0883109F44CC0803209F45DC0EEC0B1
:100E5000803409F468C048F4803309F455C08833FD
:100E600009F0E4C08093F702A8C0803509F44FC0B0
:100E7000883509F45DC0883409F0D8C0D5C08839F8
:100E800009F4C6C0A8F4883709F467C038F4883676
:100E900009F463C0803709F460C0C8C0883809F419
:100EA000B7C0803909F45FC0803809F0BFC05BC0AB
:100EB000803B09F485C038F4803A09F466C0883A6A
:100EC00009F47EC0B3C0803C09F4A6C0883C09F494
:100ED000A3C0883B09F489C0A9C08091630310C0F6
:100EE00090913C0380913B03981770F5E0913C038F
:100EF00081E08E0F80933C03F0E0E35CFC4F808147
:100F00008093BB0085EC85C08093F7028DC0E09193
:100F10003C0381E08E0F80933C038091BB00F0E0A6
:100F2000E35CFC4F808390913C0380913B036DC058
:100F3000E0913C0381E08E0F80933C038091BB00E5
:100F4000F0E0E35CFC4F80838091620381116CC010
:100F500081E08093610384EA60C083E0809364034E
:100F60001092F802CFCF8091F802803208F050C082
:100F7000E091F80281E08E0F8093F8028091BB002F
:100F8000F0E0E750FD4F8083BDCF8091F8028032C2
:100F900030F4E091F802F0E0E750FD4F10820E943B
:100FA000EA066091F80270E0E0915D03F0915E0363
:100FB00089EF92E009951092F8020E94F40636C07B
:100FC00084E08093640310921A0310921903E09155
:100FD0005F03F0916003099580911903811105C0A9
:100FE00081E08093190310921B03E0911A0381E0C2
:100FF0008E0F80931A03F0E0E55EFC4F80818093B2
:10100000BB0090911A0380911903981708F47ACFC6
:1010100085E88093BC000AC085EC8093BC001092E8
:10102000640304C01092F7020E94EA06FF91EF9158
:10103000BF91AF919F918F917F916F915F914F91F0
:101040003F912F910F900FBE0F901F901895FC01AC
:1010500014821382608388E081831282089585EA76
:1010600092E00C94DE05FC01748363830895FC0117
:101070008381948108951F93CF93DF9300D0CDB7E0
:10108000DEB7162F682F85EA92E04A8359830E94C3
:10109000F805612F85EA92E00E949F055981652F2E
:1010A00085EA92E00E949F054A81642F85EA92E0DA
:1010B0000E949F0585EA92E00F900F90DF91CF91FB
:1010C0001F910C9415061F93CF93DF93182F682F51
:1010D00085EA92E00E94F80560E085EA92E00E94CD
:1010E0009F0585EA92E00E94150642E0612F85EA9D
:1010F00092E00E94F50585EA92E00E944F05182FC4
:1011000085EA92E00E944F05D12F20E0C22F9E0178
:10111000282BC901DF91CF911F910895CF93DF93C1
:10112000EC014B815C814368516861E088810E94D9
:101130003B08698170E080E090E00E94E80A8881C5
:101140000E9463082A81022E02C0969587950A9410
:10115000E2F7222329F0811528E0920708F0906F2A
:10116000DF91CF910895CF93DF93EC014B815C81A8
:101170004368516B61E088810E943B08698170E09F
:1011800080E090E00E94E80A88810E9463082A813A
:10119000022E02C0969587950A94E2F7222329F041
:1011A000811528E0920708F0906FDF91CF910895A4
:1011B000803D27E0920710F0805D974050E0E5E029
:1011C000F1E021E02E1B322F3E0F361728F4349128
:1011D000430F511D3196F7CF633038F09C012370D7
:1011E0003327232B11F44F5F5F4F6DE671E0869F2D
:1011F0009001879F300D969F300D112421503109A9
:1012000003969695879596958795280F391FC9015E
:10121000840F951F0895FC01208120532A3008F087
:1012200020E0FC0181818053FAE02F9F800D112482
:101230000895CF92DF92EF92FF92CF93DF93EC016C
:10124000405853446D467843ECE3CE2ED12CE12C2C
:10125000F12CCB01BA01A70196010E94A5196D835B
:10126000CA01B901A70196010E94A5196C83CA01A0
:10127000B90128E130E040E050E00E94A5196B83FD
:10128000188243E95EEFE8818E2F8370A1E009F0B8
:10129000A0E08A2F90E0BC0163597E4F26173707E4
:1012A00040F0BA01681B790B260F371FEF5FE88308
:1012B000EACF81E089838981E82FF0E0EC5FFE4F7F
:1012C000E491AA2319F0823009F4EF5FF0E02E17C1
:1012D0003F0720F02E1B3F0B8F5FECCF2F5F2A8341
:1012E000DF91CF91FF90EF90DF90CF900895CF9254
:1012F000DF92EF92FF920F931F93CF93DF93CDB7BF
:10130000DEB72B970FB6F894DEBF0FBECDBF7C01C2
:101310006A014BE050E0CE0101960E94001CCE0114
:101320000A960E940B09F70180830981112707FDA6
:101330001095212F312FF801E154F109E331F10526
:1013400048F5EA5AFF4F0C94E6198A81813639F044
:101350008B818E3611F486E01BC087E019C081E0D6
:1013600017C082E015C08B81823711F484E010C071
:1013700088E00EC08B81823711F483E009C085E0DC
:1013800007C089E005C08AE003C08BE001C08CE0A3
:10139000F7018183CE0105960E940B09F701828334
:1013A00048E050E0B601CE0101960E94001CCE013B
:1013B00001960E940B09F7018383CE0104960E94D7
:1013C0000B09F7018483CE0107960E940B09F701F0
:1013D00085832B960FB6F894DEBF0FBECDBFDF918D
:1013E000CF911F910F91FF90EF90DF90CF900895D4
:1013F000CF93DF93EC0188814A81698190E00E945C
:10140000D8089C01A8E1B0E00E94EC199B01AC0156
:101410008B81280F311D411D511DACE3B0E00E94AE
:10142000FB199B01AC018C81280F311D411D511D01
:101430000E94FB192D81620F711D811D911D605845
:101440007C4B8249974CDF91CF910895CF92DF92E8
:10145000EF92FF920E94F8096B017C010E94B90A89
:1014600028EE33E040E050E00E94A519C21AD30AEA
:10147000E40AF50AC0926503D0926603E09267031E
:10148000F0926803FF90EF90DF90CF900895CF9295
:10149000DF92EF92FF92CF93DF93EC01C090650350
:1014A000D0906603E0906703F09068030E94B90A49
:1014B00028EE33E040E050E00E94A519BA01A901EE
:1014C0004C0D5D1D6E1D7F1DCE010E941909CE01C0
:1014D000DF91CF91FF90EF90DF90CF9008951F9212
:1014E0000F920FB60F9211242F933F938F939F93D8
:1014F000AF93BF9380916A0390916B03A0916C03AB
:10150000B0916D033091690323E0230F2D3720F450
:101510000196A11DB11D05C026E8230F0296A11D4D
:10152000B11D2093690380936A0390936B03A0938A
:101530006C03B0936D0380916E0390916F03A09143
:101540007003B09171030196A11DB11D80936E03CC
:1015500090936F03A0937003B0937103BF91AF9109
:101560009F918F913F912F910F900FBE0F901F90E1
:1015700018952FB7F89460916A0370916B0380916E
:101580006C0390916D032FBF08953FB7F89480913D
:101590006E0390916F03A0917003B091710326B513
:1015A000A89B05C02F3F19F00196A11DB11D3FBF9B
:1015B0006627782F892F9A2F620F711D811D911D2B
:1015C00042E0660F771F881F991F4A95D1F708954B
:1015D000CF92DF92EF92FF92CF93DF936B017C016A
:1015E0000E94C50AEB01C114D104E104F10489F0A1
:1015F0000E9468150E94C50A6C1B7D0B683E7340F3
:1016000090F381E0C81AD108E108F108C851DC4F15
:10161000EACFDF91CF91FF90EF90DF90CF900895C8
:10162000789484B5826084BD84B5816084BD85B5BD
:10163000826085BD85B5816085BDEEE6F0E0808184
:1016400081608083E1E8F0E01082808182608083A5
:10165000808181608083E0E8F0E080818160808328
:10166000E1E9F0E080818260808380818160808315
:10167000E0E9F0E0808181608083E1ECF0E080814E
:1016800084608083808182608083808181608083A8
:10169000E3ECF0E0808181608083E0ECF0E0808129
:1016A00082608083E2ECF0E0808181608083EAE701
:1016B000F0E080818460808380818260808380818B
:1016C00081608083808180688083089590E0FC0140
:1016D0003197EF30F105B0F5E759FF4F0C94E6195B
:1016E000809180008F7703C0809180008F7D8093F0
:1016F0008000089580918000877FF9CF84B58F772F
:1017000002C084B58F7D84BD0895809190008F774D
:1017100007C0809190008F7D03C080919000877FEB
:101720008093900008958091C0008F7703C08091CE
:10173000C0008F7D8093C00008958091C200877F94
:101740008093C2000895CF93DF9390E0FC01E15DA8
:10175000FE4F2491FC01E35BFE4F8491882349F105
:1017600090E0880F991FFC01E758FE4FA591B491B6
:1017700085599E4FFC01C591D4919FB7611108C056
:10178000F8948C91209582238C93888182230AC0BF
:10179000623051F4F8948C91322F309583238C93DE
:1017A0008881822B888304C0F8948C91822B8C933F
:1017B0009FBFDF91CF9108950F931F93CF93DF9336
:1017C0001F92CDB7DEB7282F30E0F901EF5EFE4F54
:1017D0008491F901E15DFE4F1491F901E35BFE4F45
:1017E00004910023C9F0882321F069830E94660BCD
:1017F0006981E02FF0E0EE0FFF1FE559FE4FA59144
:10180000B4919FB7F8948C91611103C01095812316
:1018100001C0812B8C939FBF0F90DF91CF911F91BF
:101820000F910895FC01818D228D90E0805C9F4F87
:10183000821B91098F7399270895FC01918D828DE8
:10184000981731F0828DE80FF11D858D90E0089595
:101850008FEF9FEF0895FC01918D828D981761F0B5
:10186000828DDF01A80FB11D5D968C91928D9F5FD7
:101870009F73928F90E008958FEF9FEF08958FEA06
:101880009DE0892B49F080E090E0892B29F00E94AF
:10189000AF0D81110C9400000895FC01848DDF01CF
:1018A000A80FB11DA35ABF4F2C91848D90E00196D3
:1018B0008F739927848FA689B7892C93A089B189C2
:1018C0008C9180648C93938D848D981306C00288CC
:1018D000F389E02D80818F7D80830895CF93DF93FE
:1018E000EC01888D8823C9F0EA89FB89808185FD18
:1018F00005C0A889B9898C9186FD0FC00FB607FC79
:10190000F5CF808185FFF2CFA889B9898C9185FFB9
:10191000EDCFCE010E944D0CE7CFDF91CF9108951E
:10192000CF92DF92FF920F931F93CF93DF931F927B
:10193000CDB7DEB76C01DC015B969C915B975C9642
:101940008C915C97981307C05096ED91FC9151973C
:10195000808185FD32C0F601038D10E00F5F1F4FBF
:101960000F731127F02EF601848DF81211C00FB6F7
:1019700007FCF9CFD6015096ED91FC9151978081EB
:1019800085FFF1CFC60169830E944D0C6981EBCFC1
:10199000838DE80FF11DE35AFF4F6083D6015B96FC
:1019A0000C935B975296ED91FC91539780818062E6
:1019B000808381E058968C930DC0D6015696ED91A8
:1019C000FC91579760835096ED91FC9151978081DF
:1019D0008064808381E090E00F90DF91CF911F9130
:1019E0000F91FF90DF90CF900895BF92CF92DF923A
:1019F000EF92FF92CF93DF93EC016A017B01B22E4D
:101A0000E889F98982E08083411581EE58076105F4
:101A10007105A1F060E079E08DE390E0A701960107
:101A20000E94A51921503109410951095695479540
:101A300037952795211580E1380798F0E889F989CD
:101A4000108260E874E88EE190E0A70196010E94A0
:101A5000A5192150310941095109569547953795E6
:101A60002795EC85FD853083EE85FF852083188ED4
:101A7000EC89FD89B082EA89FB898081806180835D
:101A8000EA89FB89808188608083EA89FB8980817B
:101A900080688083EA89FB8980818F7D8083DF91E4
:101AA000CF91FF90EF90DF90CF90BF9008951F925D
:101AB0000F920FB60F9211242F938F939F93EF9352
:101AC000FF93E0918203F09183038081E09188038A
:101AD000F091890382FD12C0908180918B038F5F0A
:101AE0008F7320918C03821751F0E0918B03F0E00B
:101AF000EE58FC4F958F80938B0301C08081FF913E
:101B0000EF919F918F912F910F900FBE0F901F908B
:101B100018951F920F920FB60F9211242F933F9397
:101B20004F935F936F937F938F939F93AF93BF93E5
:101B3000EF93FF9382E793E00E944D0CFF91EF91AA
:101B4000BF91AF919F918F917F916F915F914F91D5
:101B50003F912F910F900FBE0F901F90189582E725
:101B600093E00E94120C21E0892B09F420E0822FDF
:101B70000895109275031092740388EE93E0A0E02C
:101B8000B0E08093760390937703A0937803B093AB
:101B9000790382E592E090937303809372038DEC56
:101BA00090E090937F0380937E038CEC90E0909381
:101BB00081038093800388EC90E09093830380936B
:101BC000820389EC90E090938503809384038AECF0
:101BD00090E090938703809386038EEC90E090933F
:101BE00089038093880310928B0310928C031092C8
:101BF0008D0310928E03089508950E94100B0E9489
:101C0000FC0D8FE094E00E9450140E94ED01CFE3A0
:101C1000DCE00E94DA042097E1F30E943F0CF9CF48
:101C2000CF92DF92EF92FF920F931F93CF93DF93A8
:101C30006C017A01EB01E60EF71E00E010E0CE1514
:101C4000DF0561F06991D601ED91FC910190F08181
:101C5000E02DC6010995080F191FF1CFC801DF91CA
:101C6000CF911F910F91FF90EF90DF90CF9008954B
:101C70006115710581F0DB010D900020E9F7AD01E0
:101C800041505109461B570BDC01ED91FC9102803C
:101C9000F381E02D099480E090E008950C94380ED3
:101CA000DC01ED91FC910190F081E02D09940F93FE
:101CB0001F93CF93DF93EC016DE00E94500E8C01D7
:101CC0006AE0CE010E94500E800F911FDF91CF91EC
:101CD0001F910F9108950F931F93CF93DF93EC0102
:101CE0000E94380E8C01CE010E94570E800F911F6A
:101CF000DF91CF911F910F9108958F929F92AF9294
:101D0000BF92CF92DF92EF92FF920F931F93CF93E8
:101D1000DF93CDB7DEB7A1970FB6F894DEBF0FBE45
:101D2000CDBF7C01C42EE52FCB01D22E19A221E01C
:101D30002D1510F02AE0D22E8E010F5D1F4F8D2C35
:101D4000912CA12CB12C6C2D7E2FA50194010E9409
:101D5000A5198C2DD29E80191124015011098A30A9
:101D600014F4805D01C0895CF80180832115310580
:101D70004105510521F0C22EE32FCA01E4CFB8017D
:101D8000C7010E94380EA1960FB6F894DEBF0FBEB1
:101D9000CDBFDF91CF911F910F91FF90EF90DF901A
:101DA000CF90BF90AF909F908F900895CF92DF9289
:101DB000EF92FF920F931F93CF93DF93EC016A0191
:101DC0007B012115310579F4E881F9810190F081D9
:101DD000E02D642FDF91CF911F910F91FF90EF9035
:101DE000DF90CF9009942A303105E9F477FF1AC0CB
:101DF0006DE20E94500E8C0144275527BA014C1900
:101E00005D096E097F092AE0CE010E947D0E800FD8
:101E1000911FDF91CF911F910F91FF90EF90DF9075
:101E2000CF9008952AE0B701A601CE01DF91CF91AE
:101E30001F910F91FF90EF90DF90CF900C947D0E4B
:101E40009A01AB01662757FD6095762F0C94D60E4C
:101E50002115310541F4DC01ED91FC910190F081F7
:101E6000E02D642F09940C947D0E4F925F926F9237
:101E70007F928F929F92AF92BF92CF92DF92EF921A
:101E8000FF920F931F93CF93DF93EC016A017B01C5
:101E9000B22E9A01AB01C701B6010E94A119882395
:101EA00019F06EE572E027C026013701E89477F853
:101EB0002FEF3FEF4FE75FE7C301B2010E94A11987
:101EC00081110DC02FEF3FEF4FE75FE7C301B20174
:101ED0000E94EB1718161CF462E672E00CC02FEF9C
:101EE0003FEF4FE75FE4C701B6010E943A191816A9
:101EF000ACF466E672E0CE01DF91CF911F910F91B5
:101F0000FF90EF90DF90CF90BF90AF909F908F9019
:101F10007F906F905F904F900C94380E2FEF3FEFB3
:101F20004FE75FECC701B6010E94EB1787FDE1CFD9
:101F300020E030E0A901C701B6010E94EB1787FF3E
:101F40000AC06DE2CE010E94500E8C01F7FAF094A7
:101F5000F7F8F09402C000E010E0A12C60E070E01F
:101F600080E09FE3AB1441F020E030E040E251E438
:101F70000E94EF17A394F6CF9B01AC01C701B601F5
:101F80000E9487176B017C010E945C182B013C01A9
:101F90000E9488189B01AC01C701B6010E948617F8
:101FA0006B017C012AE0B301A201CE010E947D0EEB
:101FB000080F191FBB2039F06AE672E0CE010E94BB
:101FC000380E080F191F7B2C772041F120E030E0FC
:101FD00040E251E4C701B6010E943E196B017C0149
:101FE0000E9457184B01AA2497FCA094BA2C2AE00F
:101FF00030E0B501A401CE010E94D60E080F191FD2
:10200000C501B4010E948A189B01AC01C701B60149
:102010000E9486176B017C017A94D6CFC801DF91AC
:10202000CF911F910F91FF90EF90DF90CF90BF90D5
:10203000AF909F908F907F906F905F904F9008959A
:102040000C94350F0F931F93CF93DF93EC010E94F5
:10205000B90A688779878A879B87E881F981008434
:10206000F185E02DCE01099597FF15C00E94B90AB0
:10207000088519852A853B85601B710B820B930BA4
:102080000C811D812E813F816017710782079307A4
:1020900020F38FEF9FEFDF91CF911F910F91089564
:1020A000CF93DF93EC01CE010E94221097FD11C067
:1020B0008D32910571F09C01205331092A30310590
:1020C00040F0E881F9810680F781E02DCE01099585
:1020D000EACFDF91CF910895CF92DF92FF920F93D5
:1020E0001F93CF93DF9300D000D0CDB7DEB76C0144
:1020F000062F0E945010FC0197FD4BC020E030E0FD
:10210000A901F12C112707FD1095E017F107E9F05F
:10211000ED32F105C1F0CF01C0970A97B0F4AAE003
:10212000B0E00E94FB199B01AC01CF01AA2797FDEB
:10213000A095BA2F280F391F4A1F5B1F2053310962
:102140004109510902C0FF24F394D601ED91FC919D
:102150000680F781E02DC60129833A834B835C8397
:102160000995C6010E942210FC01C09729813A817D
:102170004B815C810A9748F2E017F10731F2FF20AA
:1021800061F066277727CB01621B730B840B950BDD
:1021900006C060E070E0CB0102C0CA01B9010F9037
:1021A0000F900F900F90DF91CF911F910F91FF90A3
:1021B000DF90CF90089561E00C946C10409113046F
:1021C00050911404209111043091120442175307C6
:1021D000B4F49091E8009570E1F39091E80092FDDD
:1021E00019C08093F100809113049091140401961A
:1021F0008F739927892B19F48EEF8093E8008091D3
:102200001304909114040196909314048093130482
:1022100081E0089580E00895FF920F931F93CF937C
:10222000DF938C0188E10E94DE1083E00E94DE10C3
:10223000C0E0D0E0F801EC0FFD1F84910E94DE1099
:10224000F82E80E00E94DE108F2121F02196CB3005
:10225000D10581F7DF91CF911F910F91FF900895E4
:10226000615030F02091F100FC0120830196F8CFFD
:10227000289884E68093160408952FB7FC012083E4
:10228000F89467706093E9000895CF93DF931F92ED
:10229000CDB7DEB7682FCE0101960E943D11809127
:1022A000F20099819FBF0F90DF91CF910895FF9227
:1022B0000F931F93CF93DF9300D0CDB7DEB7F62EE9
:1022C0008A0190911504992311F057FF03C08FEFF5
:1022D0009FEF2BC0682FCE0101967A830E943D119B
:1022E0008091F20090E0A8017A81801791070CF4A8
:1022F000AC01EF2DF72FF40E84E6FE1639F0289886
:10230000809316049091F1009193F7CF41155105F8
:1023100021F08091F200882321F089818FBFCA01CA
:1023200004C08BE68093E800F8CF0F900F90DF9108
:10233000CF911F910F91FF900895CF93DF931F923C
:10234000CDB7DEB741E050E0BE016F5F7F4F0E9426
:102350005711019719F4898190E002C08FEF9FEF28
:102360000F90DF91CF910895CF93DF931F92CDB758
:10237000DEB7682FCE0101960E943D119091E800D2
:10238000892F807295FF04C09091F20080E4891B30
:1023900099819FBF0F90DF91CF9108956F927F92A7
:1023A0008F929F92AF92BF92CF92DF92EF92FF9265
:1023B0000F931F93CF93DF931F92CDB7DEB7782E85
:1023C0007B01C42EB52E80911504882369F0042F5B
:1023D000152F8AEFD82E872D8072982E9AE3A92E7A
:1023E000872D8074882E11C08FEF9FEF57C0872DE7
:1023F0000E94B411682E81110CC0DA94A9F361E037
:1024000070E080E090E00E94E80A0115110579F77C
:102410003BC0282F30E0021713070CF4602E672D05
:10242000CE0101960E943D118091E80085FF29C0F0
:10243000262D30E0021B130B992039F06A948FEFA0
:102440006816B1F01092F100F9CFF701862D77FEF2
:1024500007C0815058F094919093F1003196F9CFD4
:10246000815020F091919093F100FACFE20EF31E8B
:102470008091E80085FF0FC00115110511F481104E
:102480000AC089818FBFC1CF5D9884E6809317040D
:102490008C2D9B2D03C0A092E800F3CF0F90DF910D
:1024A000CF911F910F91FF90EF90DF90CF90BF9051
:1024B000AF909F908F907F906F9008951092E90059
:1024C0001092140410921304909312048093110438
:1024D0000895CF92DF92FF920F931F93CF93DF93D4
:1024E00000D0CDB7DEB7F82E8A016B0101151105BA
:1024F000B1F0F601F7FE02C0849101C080814983EA
:102500005A830E94DE1001501109FFEFCF1ADF0A33
:1025100049815A818111EACF8FEF9FEF01C0CA0133
:102520000F900F90DF91CF911F910F91FF90DF904F
:10253000CF9008951F93CF93DF931F92CDB7DEB74F
:10254000162F2091E80022FFFCCF612F79830E9493
:1025500030118BEF8093E800812F7981972F0F90B6
:10256000DF91CF911F910895CF93DF931F92CDB745
:10257000DEB71982CE0101960E94C615CE010196E2
:102580000E946116898190E00F90DF91CF910895AC
:102590001F920F920FB60F921124EF92FF920F939A
:1025A0001F932F933F934F935F936F937F938F93DB
:1025B0009F93AF93BF93EF93FF93CF93DF93CDB7E9
:1025C000DEB76297DEBFCDBF1092E9008091E800D0
:1025D00083FFE9C068E0CE010A960E94301182EFC5
:1025E0008093E8009A8597FF05C08091E80080FFFE
:1025F000FCCF03C08EEF8093E800892F807609F02E
:10260000B7C08B85811105C01092F1001092F100C6
:10261000C3C0282F2D7F213009F4BEC0853049F476
:102620008091E80080FFFCCF8C8580688093E30078
:10263000B3C0863009F074C02D85E888F98822304F
:1026400071F580E090E02A8B0E945E120E94B41225
:1026500099E08E010F5F1F4FF801392F11923A95C3
:10266000E9F799832A892A8391E09E8390E89887E5
:102670009AEF99872091130430911404275F3F4FFC
:102680003C832B838D83C7010E945E1249E050E09A
:10269000B80180E00E9469120E94B4127DC0C70197
:1026A0002A8B0E945E122A89223241F482E290E053
:1026B0000E946C16892B09F06FC072C0213069F43A
:1026C00088899989089711F4209310048091100447
:1026D000811116C06EE971E018C0233009F060C0A6
:1026E0008C85882381F0823019F48CEB91E005C051
:1026F000813009F055C080EB91E00E940C114AC076
:102700006CE871E002C068EC71E06115710509F4D4
:1027100047C0FB01449150E080E80E9469123CC030
:10272000873009F43DC0883021F481E08093F100C6
:1027300033C0893089F5937099F5E8E8F1E081E0DC
:1027400021E096E38093E9002093EB0034913093ED
:10275000EC009093ED008F5F3196853099F78EE70E
:102760008093EA001092EA008C858093150414C0CF
:10277000888999890E945E128E85811105C0CE01DB
:102780000A960E94D11506C0823051F4CE010A96F5
:102790000E949416882321F08EEF8093E80003C0F6
:1027A00081E28093EB0062960FB6F894DEBF0FBE15
:1027B000CDBFDF91CF91FF91EF91BF91AF919F91ED
:1027C0008F917F916F915F914F913F912F911F91C9
:1027D0000F91FF90EF900F900FBE0F901F901895E4
:1027E0008093E9008091F200882319F08AE38093B6
:1027F000E80008951F920F920FB60F9211242F93A5
:102800003F934F935F936F937F938F939F93AF9378
:10281000BF93EF93FF938091E1001092E10083FF5B
:102820000FC01092E90091E09093EB001092EC0041
:1028300092E39093ED001092150498E09093F000CD
:1028400082FF1DC083E00E94F0138091170488234B
:1028500039F080911704815080931704882369F020
:1028600080911604882359F080911604815080933A
:102870001604811104C0289A02C05D9AF1CFFF911D
:10288000EF91BF91AF919F918F917F916F915F91E8
:102890004F913F912F910F900FBE0F901F90189561
:1028A0001092150481E08093D70080EA8093D800CD
:1028B00082E189BD09B400FEFDCF61E070E080E0F7
:1028C00090E00E94E80A80E98093D8008CE0809331
:1028D000E2001092E000559A209A0895FC01808150
:1028E00091810C949E1ACF93DF93EC01888199819A
:1028F000009711F00E949E1A198218821D821C8274
:102900001B821A82DF91CF9108950F931F93CF936B
:10291000DF93EC018B016F5F7F4F888199810E946B
:102920002D1B009731F0998388831B830A8381E0F4
:1029300001C080E0DF91CF911F910F910895CF9357
:10294000DF93EC0188819981892B29F08A819B8111
:102950008617970760F4CE010E948514882341F002
:102960008C819D81892B19F4E881F981108281E0A5
:10297000DF91CF910895EF92FF920F931F93CF9322
:10298000DF93EC017B018A01BA010E949F1481113F
:1029900004C0CE010E94731407C01D830C83B701CD
:1029A000888199810E941B1CCE01DF91CF911F91DC
:1029B0000F91FF90EF900895FC0111821082138215
:1029C0001282158214826115710559F0FB01019084
:1029D0000020E9F7AF0141505109461B570B0C94F9
:1029E000BB140895CF93DF93EC016115710561F07D
:1029F000FB0101900020E9F7AF0141505109461B4E
:102A0000570B0E94BB1402C00E947314CE01DF91C9
:102A1000CF910895EF92FF920F931F93CF93DF937F
:102A2000EC017B010C811D816115710511F480E0C1
:102A300016C04115510591F0040F151FB8010E94F1
:102A40009F148823A1F3288139818C819D81B7014E
:102A5000820F931F0E941B1C1D830C8381E0DF915A
:102A6000CF911F910F91FF90EF900895CF93DF9337
:102A700000D0CDB7DEB769831A8241E050E0BE01D5
:102A80006F5F7F4F0E940A150F900F90DF91CF91DB
:102A90000895FC0124813581232B31F421E0611557
:102AA0007105A1F0FB0108C0FC01808191816115D5
:102AB000710531F421E0FC018081882339F005C0E3
:102AC0000E94121C21E0892B09F020E0822F08953A
:102AD0000895CF93DF931F92CDB7DEB76983DC01F2
:102AE000ED91FC910280F381E02D41E050E0BE01C8
:102AF0006F5F7F4F09950F90DF91CF910895CF932E
:102B0000DF93EC018C859D8597FF05C082E00E94D4
:102B10009D119D878C878C859D85DF91CF91089530
:102B200083E00C94F013FC018485958597FD06C025
:102B300082E00E94451190E00196089582E00E9493
:102B4000451190E00895FC018485958597FD05C0A9
:102B50002FEF3FEF35872487089582E00C949D1175
:102B6000CF93DF93EC0180911D01882331F083E046
:102B70000E94CE111816190634F081E090E09B8374
:102B80008A8380E090E0DF91CF910895FC0120815D
:102B90002E5F208342E450E06CEC71E080E80C94FE
:102BA0006912FC0181819081913A59F4813209F0D6
:102BB0003CC047E050E066E171E080E00E946912AD
:102BC00043C0913291F5803239F467E070E086E1DC
:102BD00091E00E949A1206C0823209F035C08281CB
:102BE00080931D018091160190911701A091180109
:102BF000B0911901803B9440A105B105C1F48091C9
:102C00001D0180FD14C087E797E79093010880932A
:102C100000082BE088E190E00FB6F894A895809327
:102C200060000FBE209360000FC080E0089588E12F
:102C30000FB6F89480936000109260000FBEA895C4
:102C4000109201081092000881E0089510921B0470
:102C500010921A0488EE93E0A0E0B0E080931C0488
:102C600090931D04A0931E04B0931F0480E792E08C
:102C700090931904809318048FEF9FEF909325048D
:102C8000809324040895FF920F931F93CF93DF93B3
:102C9000EC01F62EE881F9810480F581E02D09959B
:102CA0008C01E881F9810680F781E02D6F2DCE013E
:102CB0000995C8019927DF91CF911F910F91FF903E
:102CC0000895FC0120812F5F208349E150E06EE8E8
:102CD00072E080E80C94691245E650E067EA72E021
:102CE00080E80C946912EF92FF920F931F93CF9399
:102CF000DF931F92CDB7DEB789838B017A0141E064
:102D000050E0BE016F5F7F4F84E00E94CE11A701AB
:102D1000B80184E40E94CE110F90DF91CF911F91F2
:102D20000F91FF90EF900895FC0191818081813A8D
:102D300031F481E0913091F0933089F411C0813207
:102D400071F49B3021F4828180931F0105C09A3079
:102D500031F4828180931E0181E00895089580E01E
:102D6000089548E050E082E00C947316CF93DF930F
:102D7000DC01683818F0E8E7E60F25C0E62FF0E040
:102D800067FF11C0E058F10981E090E001C0880FB1
:102D9000EA95EAF714969C911497982B14969C93B5
:102DA0001497E0E010C0E25FFD4FE491EE2309F4D8
:102DB00040C0E7FF08C014968C9114978260149667
:102DC0008C931497EF7716968C9116978E1741F186
:102DD00017968C9117978E1719F118968C91189752
:102DE0008E17F1F019968C9119978E17C9F01A96D3
:102DF0008C911A978E17A1F01B968C911B978E17AA
:102E000079F080E090E0ED01C80FD91F2E812111EB
:102E100002C0EE8305C0019686309105A1F709C076
:102E2000BD016C5F7F4FCD010E94B11681E090E043
:102E300008C081E090E013969C938E93129780E0F7
:102E400090E0DF91CF910895683818F0E8E7E60F39
:102E500025C0E62FF0E067FF12C0E058F10921E03D
:102E600030E001C0220FEA95EAF72095DC011496C4
:102E70003C911497322314963C93E0E00FC0E25F3C
:102E8000FD4FE491EE2329F1E7FF08C0DC01149621
:102E90002C9114972D7F14962C93EF7720E030E03F
:102EA000EE2351F0DC01A20FB31F16964C9116973A
:102EB0004E1302C016961C922F5F3F4F26303105ED
:102EC00079F7BC016C5F7F4F0E94B11681E090E002
:102ED000089580E090E00895FC0116821782108624
:102EE0001186128613861482BC016C5F7F4F0C948E
:102EF000B1161092740410926B0410926A0480E868
:102F000092E0909369048093680408955058BB2719
:102F1000AA270ED075C166D130F06BD120F031F404
:102F20009F3F11F41EF45BC10EF4E095E7FB51C125
:102F3000E92F77D180F3BA176207730784079507E3
:102F400018F071F49EF58FC10EF4E0950B2EBA2F98
:102F5000A02D0B01B90190010C01CA01A00111249F
:102F6000FF27591B99F0593F50F4503E68F11A164B
:102F7000F040A22F232F342F4427585FF3CF4695DC
:102F800037952795A795F0405395C9F77EF41F16FE
:102F9000BA0B620B730B840BBAF09150A1F0FF0FC8
:102FA000BB1F661F771F881FC2F70EC0BA0F621FB4
:102FB000731F841F48F4879577956795B795F795A4
:102FC0009E3F08F0B3CF9395880F08F09927EE0F36
:102FD000979587950895D9D008F481E008950CD08D
:102FE0000FC107D140F0FED030F021F45F3F19F05F
:102FF000F0C0511139C1F3C014D198F39923C9F32A
:103000005523B1F3951B550BBB27AA2762177307EE
:10301000840738F09F5F5F4F220F331F441FAA1FA2
:10302000A9F333D00E2E3AF0E0E830D09150504062
:10303000E695001CCAF729D0FE2F27D0660F771F10
:10304000881FBB1F261737074807AB07B0E809F0F2
:10305000BB0B802DBF01FF2793585F4F2AF09E3F87
:10306000510568F0B6C000C15F3FECF3983EDCF359
:10307000869577956795B795F7959F5FC9F7880F00
:10308000911D9695879597F90895E1E0660F771F52
:10309000881FBB1F621773078407BA0720F0621BE3
:1030A000730B840BBA0BEE1F88F7E095089504D0DC
:1030B0006894B111D9C00895BCD088F09F5790F0A2
:1030C000B92F9927B751A0F0D1F0660F771F881F4D
:1030D000991F1AF0BA95C9F712C0B13081F0C3D068
:1030E000B1E00895C0C0672F782F8827B85F39F006
:1030F000B93FCCF3869577956795B395D9F73EF4AC
:1031000090958095709561957F4F8F4F9F4F089553
:10311000E89409C097FB3EF4909580957095619571
:103120007F4F8F4F9F4F9923A9F0F92F96E9BB2727
:103130009395F695879577956795B795F111F8CFA3
:10314000FAF4BB0F11F460FF1BC06F5F7F4F8F4F0E
:103150009F4F16C0882311F096E911C0772321F004
:103160009EE8872F762F05C0662371F096E8862F9C
:1031700070E060E02AF09A95660F771F881FDAF7F3
:10318000880F9695879597F90895990F0008550F20
:10319000AA0BE0E8FEEF16161706E807F907C0F0DD
:1031A00012161306E407F50798F0621B730B840BE5
:1031B000950B39F40A2661F0232B242B252B21F4BF
:1031C00008950A2609F4A140A6958FEF811D811D5F
:1031D000089597F99F6780E870E060E008959FEF99
:1031E00080EC089500240A9416161706180609069E
:1031F000089500240A94121613061406050608956D
:10320000092E0394000C11F4882352F0BB0F40F4F4
:10321000BF2B11F460FF04C06F5F7F4F8F4F9F4F34
:10322000089557FD9058440F551F59F05F3F71F0B6
:103230004795880F97FB991F61F09F3F79F087951D
:103240000895121613061406551FF2CF4695F1DFA6
:1032500008C0161617061806991FF1CF8695710536
:10326000610508940895E894BB2766277727CB016A
:1032700097F908958ADF08F48FEF08950BD0C0CF37
:10328000B1DF28F0B6DF18F0952309F0A2CFA7CF61
:103290001124EACFC6DFA0F3959FD1F3950F50E03C
:1032A000551F629FF001729FBB27F00DB11D639FF8
:1032B000AA27F00DB11DAA1F649F6627B00DA11D9E
:1032C000661F829F2227B00DA11D621F739FB00D44
:1032D000A11D621F839FA00D611D221F749F3327B4
:1032E000A00D611D231F849F600D211D822F762F4D
:1032F0006A2F11249F5750408AF0E1F088234AF04A
:10330000EE0FFF1FBB1F661F771F881F9150504095
:10331000A9F79E3F510570F05CCFA6CF5F3FECF35D
:10332000983EDCF3869577956795B795F795E79581
:103330009F5FC1F7FE2B880F911D9695879597F992
:10334000089523DF880B990B0895A1E21A2EAA1B7A
:10335000BB1BFD010DC0AA1FBB1FEE1FFF1FA21745
:10336000B307E407F50720F0A21BB30BE40BF50B42
:10337000661F771F881F991F1A9469F760957095CB
:10338000809590959B01AC01BD01CF010895052E5C
:1033900097FB1EF400940E94DE1957FD07D00E948F
:1033A000A51907FC03D04EF40C94DE1950954095F6
:1033B000309521953F4F4F4F5F4F089590958095E1
:1033C000709561957F4F8F4F9F4F0895EE0FFF1FB0
:1033D0000590F491E02D0994A29FB001B39FC00124
:1033E000A39F700D811D1124911DB29F700D811D31
:1033F0001124911D08950E94EC19A59F900DB49F72
:10340000900DA49F800D911D11240895CF93DF93FB
:103410008230910510F482E090E0E0917704F09121
:10342000780420E030E0A0E0B0E0309739F140814E
:10343000518148175907B8F04817590771F482812C
:103440009381109729F013969C938E9312972CC01A
:10345000909378048093770427C02115310531F0CB
:103460004217530718F0A901DB0101C0EF019A01CF
:10347000BD01DF010280F381E02DD7CF2115310599
:10348000F9F0281B390B2430310580F48A819B81A7
:103490006115710521F0FB019383828304C0909331
:1034A000780480937704FE01329644C0FE01E20F57
:1034B000F31F8193919322503109398328833AC0B5
:1034C0002091750430917604232B41F42091020160
:1034D000309103013093760420937504209100010C
:1034E000309101012115310541F42DB73EB74091CE
:1034F000040150910501241B350BE0917504F091F6
:103500007604E217F307A0F42E1B3F0B28173907A8
:1035100078F0AC014E5F5F4F2417350748F04E0F2F
:103520005F1F50937604409375048193919302C07A
:10353000E0E0F0E0CF01DF91CF910895CF93DF93EA
:10354000009709F487C0FC01329713821282C09160
:103550007704D0917804209781F420813181280F5D
:10356000391F80917504909176048217930779F53D
:10357000F0937604E09375046DC0DE0120E030E046
:10358000AE17BF0750F412964D915C9113979D01B1
:103590004115510509F1DA01F3CFB383A2834081CC
:1035A0005181840F951F8A179B0771F48D919C910F
:1035B0001197840F951F02969183808312968D91A7
:1035C0009C911397938382832115310529F4F093FD
:1035D0007804E09377043EC0D9011396FC93EE93F0
:1035E00012974D915D91A40FB51FEA17FB0779F46F
:1035F00080819181840F951F0296D90111969C9329
:103600008E938281938113969C938E931297E0E020
:10361000F0E08A819B81009719F0FE01EC01F9CF5F
:10362000CE01029628813981820F931F2091750463
:10363000309176042817390769F4309729F41092ED
:1036400078041092770402C013821282D093760419
:10365000C0937504DF91CF910895A0E0B0E0E3E35B
:10366000FBE10C94291CEC01CB01209719F40E947A
:10367000061AB8C0FE01E60FF71F9E01225031095D
:10368000E217F30708F4ACC0D9010D911C91119712
:1036900006171707B8F00530110508F49FC0A801F8
:1036A000445051094617570708F498C002501109B1
:1036B000061B170B019311936D937C93CF010E940E
:1036C0009E1A8CC05B01A01AB10A4E01800E911E99
:1036D000A0917704B0917804612C712C60E070E0C7
:1036E000109709F449C0A815B905C9F5ED90FC90EB
:1036F0001197670142E0C40ED11CCA14DB0478F1B3
:1037000047018A189B08640142E0C40ED11C12963E
:10371000BC9012971396AC91B5E0CB16D10440F053
:10372000B282A38391828082D9018D939C9309C038
:103730000E5F1F4F0E0D1F1DF90111830083EB2D2E
:10374000FA2F6115710531F0DB011396FC93EE93AE
:10375000129744C0F0937804E09377043FC06D91D2
:103760007C9111976616770608F43B01BD0112960D
:103770000D90BC91A02DB4CF60917504709176042A
:1037800068157905E9F468167906D0F440910001CE
:10379000509101014115510541F44DB75EB760915B
:1037A000040170910501461B570BE417F507C0F49F
:1037B000F0937604E0937504F901918380830EC041
:1037C0000E94061A7C01009759F0A801BE010E94D0
:1037D000091CCE010E949E1AC70104C0CE0102C07E
:1037E00080E090E0CDB7DEB7EEE00C94451C85FD9F
:1037F00029C08062911126C081568A51E0F7089550
:10380000FB01DC0102C005900D9241505040D8F7F9
:103810000895FB01DC0102C001900D92415050401F
:10382000D8F70895FB01DC018D91019080190110FA
:10383000D9F3990B0895FB01DC0101900D92002052
:10384000E1F708959927882708952F923F924F9284
:103850005F926F927F928F929F92AF92BF92CF9220
:10386000DF92EF92FF920F931F93CF93DF93CDB729
:10387000DEB7CA1BDB0B0FB6F894DEBF0FBECDBFA1
:1038800009942A88398848885F846E847D848C8472
:103890009B84AA84B984C884DF80EE80FD800C817B
:1038A0001B81AA81B981CE0FD11D0FB6F894DEBF5E
:1038B0000FBECDBFED01089513E0C6E1D3E004C013
:1038C000FE010E94E8192296C831D107C9F7F89481
:0238D000FFCF28
:1038D2000000790480000000403E0000403E3200BB
:1038E20000001400000000E10000000000000101DF
:1038F20073656E736F72205B0022616473313131C4
:1039020035222C0022727463222C002274696D65A8
:10391200225D0064617461207B002274696D6522FE
:103922003A5B002C2261647331313135223A5B00FB
:103932002C22727463223A5B0076657273696F6E31
:1039420000736B65746368207B226E616D65223A39
:1039520022004C6973655F4D61696E00222C2276EC
:10396200657273696F6E223A2200312E302E302D2D
:1039720070726572656C656173652E3700227D0019
:103982006C6973657374617274006C6973657374C6
:103992006F700073616D706C657261746500757033
:1039A20064617465207B226E616D65223A227361C7
:1039B2006D706C6572617465222C2276616C75651E
:1039C200223A007D0A006761696E00757064617455
:1039D20065207B226E616D65223A226368616E6E9C
:1039E200656C31222C22706172616D657465722280
:1039F2003A226761696E222C2276616C7565223AE1
:103A0200006761696E680073656E736F7200000013
:103A120000009F05720547054F056205710500000C
:103A22000000900C100E120C2B0C1D0C6E0C6E6113
:103A32006E00696E66006F7666002E000000000060
:103A42006915B0159315A3157F1590150000000098
:0A3A52004316100EB61624176C1769
:00000001FF
