:100000000C948C010C94B4010C94B4010C94B401C4
:100010000C94B4010C94B4010C94B4010C94B4018C
:100020000C94B4010C94B4010C94D8140C94A61341
:100030000C94B4010C94B4010C94B4010C94B4016C
:100040000C94B4010C94B4010C94B4010C94B4015C
:100050000C94B4010C94B4010C94B4010C94730A84
:100060000C94B4010C94350E0C94670E0C94B401EE
:100070000C94B4010C94B4010C94B4010C94B4012C
:100080000C94B4010C94B4010C94B4010C94B4011C
:100090000C94FE060C94B4010C94B4010C94B401BD
:1000A0000C94B4010C94B4010C94B401B709CE09BA
:1000B000CE09CB09CE09B509CE09CE09CE09A909C9
:1000C000CE09CE09BE09C909C709CE09CE09CE0994
:1000D000C509820B850B740B780B7E0BA60BA60B48
:1000E000A60B890B8D0B910B970B9B0BA60BA10BF2
:1000F00044656320203920323031360032323A34C0
:10010000303A3033001F1C1F1E1F1E1F1F1E1F1ED4
:100110001F0000000200090F0000030401000C0092
:1001200000000000000000000000000000000004CB
:1001300008020110408040102040804080080204E6
:10014000018040201002011080102040400404046F
:10015000040403040502020202040302020202066E
:10016000060606060604040202020400000000253A
:100170000028002B002E0031000000000024002782
:10018000002A002D003000080B00020202010009C5
:1001900004000001020200000524001001052401F2
:1001A000010104240206052406000107058103104D
:1001B000004009040100020A000000070502024095
:1001C00000000705830240000000C18081C11201C8
:1001D000000202000040032A4180000101020001E8
:1001E0001201000200000040032A418000010102C8
:1001F000000141726475696E6F2053726C00417228
:100200006475696E6F2059756E000403090400005F
:100210000000000000002A2B280000000000000061
:1002200000000000000000000000000000002C9E04
:10023000B4A0A1A2A434A6A7A5AE362D3738271E98
:100240001F20212223242526B333B62EB7B89F843E
:1002500085868788898A8B8C8D8E8F9091929394D6
:1002600095969798999A9B9C9D2F3130A3AD350414
:1002700005060708090A0B0C0D0E0F1011121314B6
:1002800015161718191A1B1C1DAFB1B0B5000904BB
:1002900002000103000000092101010001226500A4
:1002A0000705840340000105010902A1010901A11C
:1002B000008501050919012903150025019503751C
:1002C0000181029501750581030501093009310994
:1002D000381581257F750895038106C0C005010981
:1002E00006A1018502050719E029E715002501751A
:1002F0000195088102950175088103950675081519
:100300000025650507190029658100C056021C06F5
:10031000D30C970E7D17660211241FBECFEFDAE0D3
:10032000DEBFCDBF12E0A0E0B1E0EAEDF8E302C02D
:1003300005900D92AC38B107D9F724E0ACE8B2E0F3
:1003400001C01D92AA37B207E1F713E0C6E1D3E07E
:1003500004C02297FE010E94EC19CC30D107C9F7E6
:100360000E94DB0E0C94601C0C940000CF93DF9372
:10037000C1E0D1E06C2F86EA92E00E94FC0586EA9B
:1003800092E00E941906811111C0C83439F480919D
:100390000E0181110BC0D0930E0108C0C83631F494
:1003A00080919702811102C0D0939702CF5FCF371F
:1003B00009F7DF91CF910895CF93DF9300D000D05C
:1003C00000D0CDB7DEB726E040E052EC61E070E04F
:1003D00083EC93E00E94D30D26E040E052EC61E014
:1003E00070E083EC93E00E94D30D61E087E00E940F
:1003F000A70B60E087E00E94E00B81EA92E00E9498
:1004000033088CE992E00E94330860E070E081EAF2
:1004100092E00E94370860E070E08CE992E00E9470
:1004200037084CEF50E060EF70E0CE0101960E947B
:100430007B09CE0101960E942A0A0E94BD0A6093A0
:1004400098027093990280939A0290939B0261E0C4
:100450008DE00E94A70B0E94B60126960FB6F89475
:10046000DEBF0FBECDBFDF91CF91089561E271E095
:1004700083EC93E00E942C0F80910E01882331F0D1
:100480006AE271E083EC93E00E942C0F8091970266
:10049000882331F065E371E083EC93E00E942C0F38
:1004A0006CE371E083EC93E00C942C0F68E481EA38
:1004B00092E00E942B0868E48CE992E00E942B08ED
:1004C00066EF71E08CE892E00C94BA158CE892E04B
:1004D0000C944C15CF93DF9300D000D000D0CDB753
:1004E000DEB764E471E083EC93E00E942C0F6BE4D0
:1004F00071E083EC93E00E942C0F0E94BD0AAB01D7
:10050000BC012AE030E083EC93E00E94061062E434
:1005100071E083EC93E00E942C0F80910E01882300
:1005200009F45CC064E571E083EC93E00E942C0F59
:10053000609194027091950281EA92E00E943708DE
:1005400081EA92E00E949208BC01882777FD80959D
:10055000982F0E948E1820910A0130910B01409132
:100560000C0150910D010E944219AB01BC0122E027
:1005700030E083EC93E00E94FE1063E371E083ECD3
:1005800093E00E942C0F60919202709193028CE98B
:1005900092E00E9437088CE992E00E94B708BC0103
:1005A000882777FD8095982F0E948E18209106014C
:1005B0003091070140910801509109010E944219B0
:1005C000AB01BC0122E030E083EC93E00E94FE101E
:1005D00062E471E083EC93E00E942C0F809197021B
:1005E0008823E1F061E671E083EC93E00E942C0F38
:1005F000CE0101960E944B0ACE0101960E94FC0991
:10060000AB01BC012AE030E083EC93E00E940610CD
:1006100062E471E083EC93E00E942C0F6FEA71E0DA
:1006200083EC93E00E94490F83EC93E00E944C0D11
:1006300026960FB6F894DEBF0FBECDBFDF91CF91E7
:1006400008956AE671E08CE892E00E9427168823FC
:1006500041F162E771E083EC93E00E942C0F63E8C4
:1006600071E083EC93E00E942C0F6DE871E083EC65
:1006700093E00E942C0F6BE971E083EC93E00E9401
:100680002C0F6EEA71E083EC93E00E942C0F65EF73
:1006900071E083EC93E00E942C0F83EC93E00E94C6
:1006A0004C0D61EB71E08CE892E00E9427168823E4
:1006B00039F081E08093960261E08DE00E94E00BCA
:1006C0006BEB71E08CE892E00E942716882331F0F2
:1006D0001092960260E08DE00E94E00B64EC71E005
:1006E0008CE892E00E942716882391F183EC93E036
:1006F0000E94B91160931301709314018093150146
:10070000909316016FEC71E083EC93E00E942C0F44
:10071000209113013091140140911501509116015F
:1007200068EE73E080E090E00E94CB19BA01A90165
:100730002AE030E083EC93E00E94B40F64EF71E0B4
:1007400083EC93E00E942C0F83EC93E00E944C0D0D
:1007500067EF71E08CE892E00E942716882309F485
:1007600085C083EC93E00E94B911663071050CF0EE
:100770007DC06230710529F194F46115710509F4A9
:1007800041C061307105F1F560E072E081EA92E00C
:100790000E94370880E090E0A0E0BEE33DC06430F6
:1007A000710529F1CCF06530710561F560E07AE002
:1007B00081EA92E00E94370880E090E0A0E0BCE38C
:1007C0002BC060E074E081EA92E00E94370880E08C
:1007D00090E0A0E8BDE320C060E076E081EA92E02E
:1007E0000E94370880E090E0A0E0BDE315C060E023
:1007F00078E081EA92E00E94370880E090E0A0E88B
:10080000BCE30AC060E070E081EA92E00E94370831
:1008100080E090E0A0E4BEE380930A0190930B0196
:10082000A0930C01B0930D0181EA92E00E943B0875
:1008300090939502809394026CEF71E083EC93E0C7
:100840000E942C0F60919402709195024AE050E052
:1008500083EC93E00E94FE0F64EF71E083EC93E081
:100860000E942C0F83EC93E00E944C0D62E372E037
:100870008CE892E00E942716882309F485C083EC57
:1008800093E00E94B911663071050CF07DC06230B2
:10089000710529F194F46115710509F441C06130C5
:1008A0007105F1F560E072E08CE992E00E94370892
:1008B00080E090E0A0E0BEE33DC06430710529F126
:1008C000CCF06530710561F560E07AE08CE992E08A
:1008D0000E94370880E090E0A0E0BCE32BC060E01D
:1008E00074E08CE992E00E94370880E090E0A0E894
:1008F000BDE320C060E076E08CE992E00E9437081A
:1009000080E090E0A0E0BDE315C060E078E08CE915
:1009100092E00E94370880E090E0A0E8BCE30AC0C3
:1009200060E070E08CE992E00E94370880E090E09F
:10093000A0E4BEE38093060190930701A093080111
:10094000B09309018CE992E00E943B0890939302D6
:10095000809392026CEF71E083EC93E00E942C0F85
:1009600060919202709193024AE050E083EC93E030
:100970000E94FE0F64EF71E083EC93E00E942C0F65
:1009800083EC93E00E944C0D68E372E08CE892E007
:100990000E942716882341F00E94360265EF71E01D
:1009A00083EC93E00E942C0F66EF71E08CE892E0FC
:1009B0000C94D0150F931F93CF9320911301309176
:1009C0001401409115015091160168EE73E080E02A
:1009D00090E00E94CB1920930F01309310014093B7
:1009E00011015093120183EC93E00E94F00C181651
:1009F000190604F583EC93E00E94090DC82F082F17
:100A0000112707FD10950F3F8FEF180729F06C2F66
:100A100083E793E00E94160CC8010E94FD1B892BFE
:100A200031F06C2F8CE892E00E941416DCCF0E940B
:100A30002103D9CF0E94BD0A00919802109199021A
:100A400020919A0230919B02601B710B820B930BD9
:100A500000910F01109110012091110130911201AC
:100A6000601771078207930778F00E94BD0A6093B0
:100A700098027093990280939A0290939B028091BE
:100A8000960281110E946A0283EC93E0CF911F913C
:100A90000F910C944C0D8091D60290E02091D702DA
:100AA000821B910908952091D7028091D6022817C0
:100AB00050F4E22FF0E0E852FD4F808190E02F5F8C
:100AC0002093D70208958FEF9FEF0895E091D7020A
:100AD0008091D602E81730F4F0E0E852FD4F8081B3
:100AE00090E008958FEF9FEF08950895CF92DF92E1
:100AF000EF92FF920F931F93CF93DF937C01CB0173
:100B00008A012091B202222389F0EB016B01C40E0D
:100B1000D51ECC15DD0569F06991D701ED91FC91E9
:100B20000190F081E02DC7010995F3CF642F0E9459
:100B3000D506C801DF91CF911F910F91FF90EF90E3
:100B4000DF90CF900895CF93DF931F92CDB7DEB79C
:100B500069832091B2022223D1F02091B302203286
:100B600040F021E030E0FC013383228380E090E01C
:100B700015C08091B402E82FF0E0EB54FD4F99814D
:100B800090838F5F8093B4028093B30205C061E0CD
:100B9000CE0101960E94D50681E090E00F90DF9192
:100BA000CF910895FC011382128248EE53E060E079
:100BB00070E0448355836683778383E492E0918376
:100BC000808308951092D7021092D6021092B40238
:100BD0001092B3020C942006862F413208F040E2B6
:100BE00068ED72E00E943E061092D7028093D60212
:100BF000089521E00C94EC0581E08093B2026093AB
:100C0000D5021092B4021092B30208950F93062FEA
:100C100021E04091B30265EB72E08091D5020E9421
:100C200082061092B4021092B3021092B2020F9197
:100C3000089561E00C94060686EA92E00C94D205D1
:100C40001092650381E0809363031092620361E078
:100C500082E00E94E00B61E083E00E94E00BE9EBA0
:100C6000F0E080818E7F808380818D7F808380E231
:100C70008093B80085E48093BC000895413208F069
:100C80003FC0909165039111FCCF91E09093650373
:100C9000209363032FEF2093F80210923D03240F5B
:100CA00020933C039093640390916403880F892BF5
:100CB0008093640380916203813041F41092620357
:100CC000809164038093BB0085EC01C085EE809326
:100CD000BC00809165038130E1F380913D0384176E
:100CE00010F440913D032EE333E0FB01D9018A2F3C
:100CF000821B841718F48D918193F9CF842F089566
:100D000080E008950F93413208F046C0909165034A
:100D10009111FCCF92E090936503009363039FEFE2
:100D20009093F80210923D0340933C03FB016EE365
:100D300073E0DB019A2F961B941718F491919D9301
:100D4000F9CF1092640390916403880F892B8093EC
:100D5000640380916203813041F4109262038091B8
:100D600064038093BB0085EC01C085EE8093BC00DA
:100D7000222321F0809165038230E1F38091F80213
:100D80008F3F61F08091F802803251F08091F8023B
:100D9000803341F483E007C081E005C080E003C0F8
:100DA00082E001C084E00F910895613298F42091AF
:100DB0006503243089F460931A03FC018CE193E00D
:100DC000DC012A2F281B261718F421912D93F9CF27
:100DD00080E0089581E0089582E0089585ED809394
:100DE000BC008091BC0084FDFCCF10926503089587
:100DF00085EC8093BC001092650308951F920F92BA
:100E00000FB60F9211242F933F934F935F936F93DD
:100E10007F938F939F93AF93BF93EF93FF938091B3
:100E2000B900887F803609F49CC068F5883209F4DF
:100E30005BC090F4803109F454C038F4882309F47D
:100E4000F5C0883009F44DC0F5C0883109F44CC0B4
:100E5000803209F45DC0EEC0803409F468C048F403
:100E6000803309F455C0883309F0E4C08093F80258
:100E7000A8C0803509F44FC0883509F45DC08834B6
:100E800009F0D8C0D5C0883909F4C6C0A8F488379D
:100E900009F467C038F4883609F463C0803709F470
:100EA00060C0C8C0883809F4B7C0803909F45FC091
:100EB000803809F0BFC05BC0803B09F485C038F4BE
:100EC000803A09F466C0883A09F47EC0B3C0803C19
:100ED00009F4A6C0883C09F4A3C0883B09F489C082
:100EE000A9C08091640310C090913D0380913C03A0
:100EF000981770F5E0913D0381E08E0F80933D03DC
:100F0000F0E0E25CFC4F80818093BB0085EC85C003
:100F10008093F8028DC0E0913D0381E08E0F8093B5
:100F20003D038091BB00F0E0E25CFC4F8083909138
:100F30003D0380913C036DC0E0913D0381E08E0F45
:100F400080933D038091BB00F0E0E25CFC4F808326
:100F50008091630381116CC081E08093620384EA15
:100F600060C083E0809365031092F902CFCF809137
:100F7000F902803208F050C0E091F90281E08E0F52
:100F80008093F9028091BB00F0E0E650FD4F808332
:100F9000BDCF8091F902803230F4E091F902F0E0A7
:100FA000E650FD4F10820E94EE066091F90270E05B
:100FB000E0915E03F0915F038AEF92E00995109251
:100FC000F9020E94F80636C084E08093650310920F
:100FD0001B0310921A03E0916003F09161030995DD
:100FE00080911A03811105C081E080931A03109249
:100FF0001C03E0911B0381E08E0F80931B03F0E044
:10100000E45EFC4F80818093BB0090911B03809134
:101010001A03981708F47ACF85E88093BC000AC0B9
:1010200085EC8093BC001092650304C01092F80216
:101030000E94EE06FF91EF91BF91AF919F918F912A
:101040007F916F915F914F913F912F910F900FBEC4
:101050000F901F901895FC0114821382608388E022
:1010600081831282089586EA92E00C94E205FC01E5
:10107000748363830895FC018381948108951F9391
:10108000CF93DF9300D0CDB7DEB7162F682F86EA57
:1010900092E04A8359830E94FC05612F86EA92E020
:1010A0000E94A3055981652F86EA92E00E94A3055C
:1010B0004A81642F86EA92E00E94A30586EA92E0C4
:1010C0000F900F90DF91CF911F910C9419061F93F1
:1010D000CF93DF93182F682F86EA92E00E94FC05D9
:1010E00060E086EA92E00E94A30586EA92E00E9410
:1010F000190642E0612F86EA92E00E94F90586EA2D
:1011000092E00E945305182F86EA92E00E94530550
:10111000D12F20E0C22F9E01282BC901DF91CF9152
:101120001F910895CF93DF93EC014B815C8143685D
:10113000516861E088810E943F08698170E080E029
:1011400090E00E94EC0A88810E9467082A81022EA2
:1011500002C0969587950A94E2F7222329F081151B
:1011600028E0920708F0906FDF91CF910895CF9318
:10117000DF93EC014B815C814368516B61E08881B6
:101180000E943F08698170E080E090E00E94EC0AD4
:1011900088810E9467082A81022E02C09695879551
:1011A0000A94E2F7222329F0811528E0920708F03B
:1011B000906FDF91CF910895803D27E0920710F066
:1011C000805D974050E0E5E0F1E021E02E1B322FFA
:1011D0003E0F361728F43491430F511D3196F7CF47
:1011E000633038F09C0123703327232B11F44F5FB9
:1011F0005F4F6DE671E0869F9001879F300D969F4F
:10120000300D1124215031090396969587959695B6
:101210008795280F391FC901840F951F0895FC0178
:10122000208120532A3008F020E0FC018181805386
:10123000FAE02F9F800D11240895CF92DF92EF9254
:10124000FF92CF93DF93EC01405853446D467843AF
:10125000ECE3CE2ED12CE12CF12CCB01BA01A7016D
:1012600096010E94A9196D83CA01B901A7019601CF
:101270000E94A9196C83CA01B90128E130E040E05D
:1012800050E00E94A9196B83188243E95EEFE88160
:101290008E2F8370A1E009F0A0E08A2F90E0BC01BE
:1012A00063597E4F2617370740F0BA01681B790B48
:1012B000260F371FEF5FE883EACF81E089838981BA
:1012C000E82FF0E0EC5FFE4FE491AA2319F08230A2
:1012D00009F4EF5FF0E02E173F0720F02E1B3F0BC5
:1012E0008F5FECCF2F5F2A83DF91CF91FF90EF903C
:1012F000DF90CF900895CF92DF92EF92FF920F93FD
:101300001F93CF93DF93CDB7DEB72B970FB6F8942B
:10131000DEBF0FBECDBF7C016A014BE050E0CE01C5
:1013200001960E94041CCE010A960E940F09F70143
:1013300080830981112707FD1095212F312FF80196
:10134000E154F109E331F10548F5EA5AFF4F0C94F5
:10135000EA198A81813639F08B818E3611F486E064
:101360001BC087E019C081E017C082E015C08B81E7
:10137000823711F484E010C088E00EC08B81823780
:1013800011F483E009C085E007C089E005C08AE068
:1013900003C08BE001C08CE0F7018183CE0105968C
:1013A0000E940F09F701828348E050E0B601CE01A8
:1013B00001960E94041CCE0101960E940F09F701BC
:1013C0008383CE0104960E940F09F7018483CE0126
:1013D00007960E940F09F70185832B960FB6F894A4
:1013E000DEBF0FBECDBFDF91CF911F910F91FF9058
:1013F000EF90DF90CF900895CF93DF93EC01888139
:101400004A81698190E00E94DC089C01A8E1B0E07B
:101410000E94F0199B01AC018B81280F311D411DE9
:10142000511DACE3B0E00E94FF199B01AC018C811F
:10143000280F311D411D511D0E94FF192D81620F82
:10144000711D811D911D60587C4B8249974CDF9125
:10145000CF910895CF92DF92EF92FF920E94FC0904
:101460006B017C010E94BD0A28EE33E040E050E0B1
:101470000E94A919C21AD30AE40AF50AC0926603A7
:10148000D0926703E0926803F0926903FF90EF90B7
:10149000DF90CF900895CF92DF92EF92FF92CF939B
:1014A000DF93EC01C0906603D0906703E09068037F
:1014B000F09069030E94BD0A28EE33E040E050E05E
:1014C0000E94A919BA01A9014C0D5D1D6E1D7F1D59
:1014D000CE010E941D09CE01DF91CF91FF90EF90C8
:1014E000DF90CF9008951F920F920FB60F921124A4
:1014F0002F933F938F939F93AF93BF9380916B03F1
:1015000090916C03A0916D03B0916E0330916A03CA
:1015100023E0230F2D3720F40196A11DB11D05C036
:1015200026E8230F0296A11DB11D20936A03809324
:101530006B0390936C03A0936D03B0936E03809143
:101540006F0390917003A0917103B09172030196A3
:10155000A11DB11D80936F0390937003A09371033D
:10156000B0937203BF91AF919F918F913F912F9153
:101570000F900FBE0F901F9018952FB7F8946091A1
:101580006B0370916C0380916D0390916E032FBF7C
:1015900008953FB7F89480916F0390917003A091E4
:1015A0007103B091720326B5A89B05C02F3F19F0B7
:1015B0000196A11DB11D3FBF6627782F892F9A2F55
:1015C000620F711D811D911D42E0660F771F881FFC
:1015D000991F4A95D1F70895CF92DF92EF92FF922B
:1015E000CF93DF936B017C010E94C90AEB01C11408
:1015F000D104E104F10489F00E9446160E94C90A50
:101600006C1B7D0B683E734090F381E0C81AD108D3
:10161000E108F108C851DC4FEACFDF91CF91FF908C
:10162000EF90DF90CF900895789484B5826084BD68
:1016300084B5816084BD85B5826085BD85B58160D6
:1016400085BDEEE6F0E0808181608083E1E8F0E036
:101650001082808182608083808181608083E0E865
:10166000F0E0808181608083E1E9F0E08081826048
:101670008083808181608083E0E9F0E08081816007
:101680008083E1ECF0E080818460808380818260EF
:101690008083808181608083E3ECF0E080818160E1
:1016A0008083E0ECF0E0808182608083E2ECF0E017
:1016B000808181608083EAE7F0E0808184608083BC
:1016C0008081826080838081816080838081806866
:1016D0008083089590E0FC013197EF30F105B0F57B
:1016E000E759FF4F0C94EA19809180008F7703C06F
:1016F000809180008F7D809380000895809180008C
:10170000877FF9CF84B58F7702C084B58F7D84BD84
:101710000895809190008F7707C0809190008F7D11
:1017200003C080919000877F8093900008958091FE
:10173000C0008F7703C08091C0008F7D8093C00070
:1017400008958091C200877F8093C2000895CF934F
:10175000DF9390E0FC01E15DFE4F2491FC01E35B2F
:10176000FE4F8491882349F190E0880F991FFC0176
:10177000E758FE4FA591B49185599E4FFC01C59144
:10178000D4919FB7611108C0F8948C912095822361
:101790008C93888182230AC0623051F4F8948C9132
:1017A000322F309583238C938881822B888304C0C9
:1017B000F8948C91822B8C939FBFDF91CF910895E9
:1017C0000F931F93CF93DF931F92CDB7DEB7282FD0
:1017D00030E0F901EF5EFE4F8491F901E15DFE4FCB
:1017E0001491F901E35BFE4F04910023C9F08823B3
:1017F00021F069830E946A0B6981E02FF0E0EE0F0F
:10180000FF1FE559FE4FA591B4919FB7F8948C91B5
:10181000611103C01095812301C0812B8C939FBF60
:101820000F90DF91CF911F910F910895CF93DF9388
:101830001F92CDB7DEB76983DC01ED91FC91028088
:10184000F381E02D41E050E0BE016F5F7F4F0995CD
:101850000F90DF91CF910895CF93DF93EC018C85AA
:101860009D8597FF05C082E00E947B129D878C8733
:101870008C859D85DF91CF91089583E00C94CE14E3
:10188000FC018485958597FD06C082E00E942312A5
:1018900090E00196089582E00E94231290E008955E
:1018A000FC018485958597FD05C02FEF3FEF3587B7
:1018B0002487089582E00C947B12CF93DF93EC0190
:1018C00080911E01882331F083E00E94AC1218162B
:1018D000190634F081E090E09B838A8380E090E0F9
:1018E000DF91CF910895FC0120812E5F208342E497
:1018F00050E067E871E080E80C944713FC018181B7
:101900009081913A59F4813209F03CC047E050E0AF
:1019100067E171E080E00E94471343C0913291F586
:10192000803239F467E070E087E191E00E9478133B
:1019300006C0823209F035C0828180931E018091F9
:10194000170190911801A0911901B0911A01803BE3
:101950009440A105B105C1F480911E0180FD14C021
:1019600087E797E790930108809300082BE088E1D0
:1019700090E00FB6F894A895809360000FBE209376
:1019800060000FC080E0089588E10FB6F89480935E
:101990006000109260000FBEA8951092010810928E
:1019A000000881E00895109276031092750388EE86
:1019B00093E0A0E0B0E08093770390937803A09346
:1019C0007903B0937A0383E592E090937403809354
:1019D00073038FEF9FEF9093800380937F030895AD
:1019E000FC01818D228D90E0805C9F4F821B9109CC
:1019F0008F7399270895FC01918D828D981731F08E
:101A0000828DE80FF11D858D90E008958FEF9FEF97
:101A10000895FC01918D828D981761F0828DDF0110
:101A2000A80FB11D5D968C91928D9F5F9F73928FD1
:101A300090E008958FEF9FEF08958DE89EE0892B49
:101A400049F080E090E0892B29F00E948D0E8111F1
:101A50000C9400000895FC01848DDF01A80FB11DD6
:101A6000A35ABF4F2C91848D90E001968F739927D4
:101A7000848FA689B7892C93A089B1898C918064C1
:101A80008C93938D848D981306C00288F389E02D82
:101A900080818F7D80830895CF93DF93EC01888DC3
:101AA0008823C9F0EA89FB89808185FD05C0A88962
:101AB000B9898C9186FD0FC00FB607FCF5CF8081E8
:101AC00085FFF2CFA889B9898C9185FFEDCFCE0132
:101AD0000E942B0DE7CFDF91CF910895CF92DF9237
:101AE000FF920F931F93CF93DF931F92CDB7DEB773
:101AF0006C01DC015B969C915B975C968C915C978A
:101B0000981307C05096ED91FC915197808185FD07
:101B100032C0F601038D10E00F5F1F4F0F731127C6
:101B2000F02EF601848DF81211C00FB607FCF9CF24
:101B3000D6015096ED91FC915197808185FFF1CFB0
:101B4000C60169830E942B0D6981EBCF838DE80F5D
:101B5000F11DE35AFF4F6083D6015B960C935B97B0
:101B60005296ED91FC91539780818062808381E051
:101B700058968C930DC0D6015696ED91FC915797CF
:101B800060835096ED91FC915197808180648083B1
:101B900081E090E00F90DF91CF911F910F91FF9026
:101BA000DF90CF900895BF92CF92DF92EF92FF9295
:101BB000CF93DF93EC016A017B01B22EE889F989AA
:101BC00082E08083411581EE580761057105A1F01F
:101BD00060E079E08DE390E0A70196010E94A919E9
:101BE0002150310941095109569547953795279557
:101BF000211580E1380798F0E889F989108260E8BA
:101C000074E88EE190E0A70196010E94A919215085
:101C10003109410951095695479537952795EC8526
:101C2000FD853083EE85FF852083188EEC89FD8944
:101C3000B082EA89FB89808180618083EA89FB899F
:101C4000808188608083EA89FB89808180688083C5
:101C5000EA89FB8980818F7D8083DF91CF91FF901E
:101C6000EF90DF90CF90BF9008951F920F920FB624
:101C70000F9211242F938F939F93EF93FF93E091F3
:101C8000D303F091D4038081E091D903F091DA037A
:101C900082FD12C090818091DC038F5F8F73209151
:101CA000DD03821751F0E091DC03F0E0ED53FC4FCF
:101CB000958F8093DC0301C08081FF91EF919F910C
:101CC0008F912F910F900FBE0F901F9018951F921C
:101CD0000F920FB60F9211242F933F934F935F9360
:101CE0006F937F938F939F93AF93BF93EF93FF93E4
:101CF00083EC93E00E942B0DFF91EF91BF91AF9188
:101D00009F918F917F916F915F914F913F912F9113
:101D10000F900FBE0F901F90189583EC93E00E94D8
:101D2000F00C21E0892B09F420E0822F0895109215
:101D3000C6031092C50388EE93E0A0E0B0E0809364
:101D4000C7039093C803A093C903B093CA0383E663
:101D500092E09093C4038093C3038DEC90E0909342
:101D6000D0038093CF038CEC90E09093D2038093C8
:101D7000D10388EC90E09093D4038093D30389EC53
:101D800090E09093D6038093D5038AEC90E09093F3
:101D9000D8038093D7038EEC90E09093DA0380937E
:101DA000D9031092DC031092DD031092DE0310922F
:101DB000DF03089508950E94140B0E94DA0E80E656
:101DC00094E00E942E150E94DC01CDE1DDE00E942E
:101DD000DA042097E1F30E941D0DF9CFCF92DF9234
:101DE000EF92FF920F931F93CF93DF936C017A01D1
:101DF000EB01E60EF71E00E010E0CE15DF0561F006
:101E00006991D601ED91FC910190F081E02DC60120
:101E10000995080F191FF1CFC801DF91CF911F91CC
:101E20000F91FF90EF90DF90CF90089561157105AD
:101E300081F0DB010D900020E9F7AD01415051091F
:101E4000461B570BDC01ED91FC910280F381E02DE4
:101E5000099480E090E008950C94160FDC01ED9158
:101E6000FC910190F081E02D09940F931F93CF9383
:101E7000DF93EC016DE00E942E0F8C016AE0CE0131
:101E80000E942E0F800F911FDF91CF911F910F9114
:101E900008950F931F93CF93DF93EC010E94160FC9
:101EA0008C01CE010E94350F800F911FDF91CF91E1
:101EB0001F910F9108958F929F92AF92BF92CF92F0
:101EC000DF92EF92FF920F931F93CF93DF93CDB7E3
:101ED000DEB7A1970FB6F894DEBF0FBECDBF7C0171
:101EE000C42EE52FCB01D22E19A221E02D1510F022
:101EF0002AE0D22E8E010F5D1F4F8D2C912CA12C2C
:101F0000B12C6C2D7E2FA50194010E94A9198C2D56
:101F1000D29E80191124015011098A3014F4805D79
:101F200001C0895CF8018083211531054105510507
:101F300021F0C22EE32FCA01E4CFB801C7010E94ED
:101F4000160FA1960FB6F894DEBF0FBECDBFDF917E
:101F5000CF911F910F91FF90EF90DF90CF90BF90A6
:101F6000AF909F908F900895CF92DF92EF92FF9263
:101F70000F931F93CF93DF93EC016A017B0121152F
:101F8000310579F4E881F9810190F081E02D642F29
:101F9000DF91CF911F910F91FF90EF90DF90CF9045
:101FA00009942A303105E9F477FF1AC06DE20E94E6
:101FB0002E0F8C0144275527BA014C195D096E0973
:101FC0007F092AE0CE010E945B0F800F911FDF91F5
:101FD000CF911F910F91FF90EF90DF90CF900895D8
:101FE0002AE0B701A601CE01DF91CF911F910F9199
:101FF000FF90EF90DF90CF900C945B0F9A01AB01B4
:10200000662757FD6095762F0C94B40F2115310586
:1020100041F4DC01ED91FC910190F081E02D642F01
:1020200009940C945B0F4F925F926F927F928F9204
:102030009F92AF92BF92CF92DF92EF92FF920F9357
:102040001F93CF93DF93EC016A017B01B22E9A01BB
:10205000AB01C701B6010E94A519882319F06FE6EC
:1020600072E027C026013701E89477F82FEF3FEFA1
:102070004FE75FE7C301B2010E94A51981110DC0AE
:102080002FEF3FEF4FE75FE7C301B2010E94EF1769
:1020900018161CF463E772E00CC02FEF3FEF4FE718
:1020A0005FE4C701B6010E943E191816ACF467E759
:1020B00072E0CE01DF91CF911F910F91FF90EF90D1
:1020C000DF90CF90BF90AF909F908F907F906F9058
:1020D0005F904F900C94160F2FEF3FEF4FE75FECA0
:1020E000C701B6010E94EF1787FDE1CF20E030E085
:1020F000A901C701B6010E94EF1787FF0AC06DE270
:10210000CE010E942E0F8C01F7FAF094F7F8F094AC
:1021100002C000E010E0A12C60E070E080E09FE3EE
:10212000AB1441F020E030E040E251E40E94F317AC
:10213000A394F6CF9B01AC01C701B6010E948B1797
:102140006B017C010E9460182B013C010E948C18DD
:102150009B01AC01C701B6010E948A176B017C018B
:102160002AE0B301A201CE010E945B0F080F191FE4
:10217000BB2039F06BE772E0CE010E94160F080F0A
:10218000191F7B2C772041F120E030E040E251E440
:10219000C701B6010E9442196B017C010E945B18C5
:1021A0004B01AA2497FCA094BA2C2AE030E0B50198
:1021B000A401CE010E94B40F080F191FC501B4017C
:1021C0000E948E189B01AC01C701B6010E948A17BC
:1021D0006B017C017A94D6CFC801DF91CF911F911A
:1021E0000F91FF90EF90DF90CF90BF90AF909F90B6
:1021F0008F907F906F905F904F9008950C94131084
:102200000F931F93CF93DF93EC010E94BD0A688761
:1022100079878A879B87E881F9810084F185E02DA1
:10222000CE01099597FF15C00E94BD0A0885198542
:102230002A853B85601B710B820B930B0C811D81E2
:102240002E813F81601771078207930720F38FEF7C
:102250009FEFDF91CF911F910F910895CF93DF935F
:10226000EC01CE010E94001197FD11C08D32910545
:1022700071F09C01205331092A30310540F0E8818A
:10228000F9810680F781E02DCE010995EACFDF9133
:10229000CF910895CF92DF92FF920F931F93CF9328
:1022A000DF9300D000D0CDB7DEB76C01062F0E94BF
:1022B0002E11FC0197FD4BC020E030E0A901F12C6C
:1022C000112707FD1095E017F107E9F0ED32F10550
:1022D000C1F0CF01C0970A97B0F4AAE0B0E00E9425
:1022E000FF199B01AC01CF01AA2797FDA095BA2F3A
:1022F000280F391F4A1F5B1F20533109410951091B
:1023000002C0FF24F394D601ED91FC910680F78181
:10231000E02DC60129833A834B835C830995C6016E
:102320000E940011FC01C09729813A814B815C8198
:102330000A9748F2E017F10731F2FF2061F06627B3
:102340007727CB01621B730B840B950B06C060E0F3
:1023500070E0CB0102C0CA01B9010F900F900F903D
:102360000F90DF91CF911F910F91FF90DF90CF9051
:10237000089561E00C944A11409164045091650401
:10238000209162043091630442175307B4F4909192
:10239000E8009570E1F39091E80092FD19C08093F8
:1023A000F100809164049091650401968F739927E0
:1023B000892B19F48EEF8093E8008091640490914A
:1023C00065040196909365048093640481E0089508
:1023D00080E00895FF920F931F93CF93DF938C01BA
:1023E00088E10E94BC1183E00E94BC11C0E0D0E0F3
:1023F000F801EC0FFD1F84910E94BC11F82E80E0C3
:102400000E94BC118F2121F02196CB30D10581F79C
:10241000DF91CF911F910F91FF900895615030F09F
:102420002091F100FC0120830196F8CF289884E6E2
:102430008093670408952FB7FC012083F894677098
:102440006093E9000895CF93DF931F92CDB7DEB775
:10245000682FCE0101960E941B128091F200998193
:102460009FBF0F90DF91CF910895FF920F931F931D
:10247000CF93DF9300D0CDB7DEB7F62E8A019091CF
:102480006604992311F057FF03C08FEF9FEF2BC015
:10249000682FCE0101967A830E941B128091F20070
:1024A00090E0A8017A81801791070CF4AC01EF2D20
:1024B000F72FF40E84E6FE1639F02898809367040F
:1024C0009091F1009193F7CF4115510521F0809142
:1024D000F200882321F089818FBFCA0104C08BE6F6
:1024E0008093E800F8CF0F900F90DF91CF911F916C
:1024F0000F91FF900895CF93DF931F92CDB7DEB772
:1025000041E050E0BE016F5F7F4F0E94351201979E
:1025100019F4898190E002C08FEF9FEF0F90DF9157
:10252000CF910895CF93DF931F92CDB7DEB7682F79
:10253000CE0101960E941B129091E800892F8072B3
:1025400095FF04C09091F20080E4891B99819FBFA0
:102550000F90DF91CF9108956F927F928F929F920B
:10256000AF92BF92CF92DF92EF92FF920F931F93A1
:10257000CF93DF931F92CDB7DEB7782E7B01C42EA9
:10258000B52E80916604882369F0042F152F8AEFF9
:10259000D82E872D8072982E9AE3A92E872D8074CD
:1025A000882E11C08FEF9FEF57C0872D0E94921287
:1025B000682E81110CC0DA94A9F361E070E080E02C
:1025C00090E00E94EC0A0115110579F73BC0282F15
:1025D00030E0021713070CF4602E672DCE01019630
:1025E0000E941B128091E80085FF29C0262D30E053
:1025F000021B130B992039F06A948FEF6816B1F023
:102600001092F100F9CFF701862D77FE07C08150B7
:1026100058F094919093F1003196F9CF815020F0C9
:1026200091919093F100FACFE20EF31E8091E800B1
:1026300085FF0FC00115110511F481100AC08981B1
:102640008FBFC1CF5D9884E6809368048C2D9B2D4D
:1026500003C0A092E800F3CF0F90DF91CF911F91BC
:102660000F91FF90EF90DF90CF90BF90AF909F9031
:102670008F907F906F9008951092E90010926504FA
:102680001092640490936304809362040895CF923F
:10269000DF92FF920F931F93CF93DF9300D0CDB7BC
:1026A000DEB7F82E8A016B0101151105B1F0F601B4
:1026B000F7FE02C0849101C0808149835A830E9441
:1026C000BC1101501109FFEFCF1ADF0A49815A816D
:1026D0008111EACF8FEF9FEF01C0CA010F900F90D9
:1026E000DF91CF911F910F91FF90DF90CF900895D0
:1026F0001F93CF93DF931F92CDB7DEB7162F209194
:10270000E80022FFFCCF612F79830E940E128BEF2D
:102710008093E800812F7981972F0F90DF91CF91DF
:102720001F910895CF93DF931F92CDB7DEB7198223
:10273000CE0101960E94730CCE0101960E9465168F
:10274000898190E00F90DF91CF9108951F920F92B1
:102750000FB60F921124EF92FF920F931F932F93B6
:102760003F934F935F936F937F938F939F93AF9319
:10277000BF93EF93FF93CF93DF93CDB7DEB762970D
:10278000DEBFCDBF1092E9008091E80083FFE9C071
:1027900068E0CE010A960E940E1282EF8093E80054
:1027A0009A8597FF05C08091E80080FFFCCF03C0A9
:1027B0008EEF8093E800892F807609F0B7C08B8573
:1027C000811105C01092F1001092F100C3C0282FB2
:1027D0002D7F213009F4BEC0853049F48091E80096
:1027E00080FFFCCF8C8580688093E300B3C0863087
:1027F00009F074C02D85E888F988223071F580E0F1
:1028000090E02A8B0E943C130E94921399E08E0163
:102810000F5F1F4FF801392F11923A95E9F799830D
:102820002A892A8391E09E8390E898879AEF998776
:102830002091640430916504275F3F4F3C832B83D4
:102840008D83C7010E943C1349E050E0B80180E04D
:102850000E9447130E9492137DC0C7012A8B0E94D9
:102860003C132A89223241F482E290E00E947016E1
:10287000892B09F06FC072C0213069F48889998969
:10288000089711F42093610480916104811116C0AE
:1028900060EE71E018C0233009F060C08C85882399
:1028A00081F0823019F48EEF91E005C0813009F09B
:1028B00055C082EF91E00E94EA114AC06EEC71E0CF
:1028C00002C06AE072E06115710509F447C0FB01BE
:1028D000449150E080E80E9447133CC0873009F4DF
:1028E0003DC0883021F481E08093F10033C089300D
:1028F00089F5937099F5EAECF1E081E021E096E347
:102900008093E9002093EB0034913093EC00909396
:10291000ED008F5F3196853099F78EE78093EA005E
:102920001092EA008C858093660414C08889998986
:102930000E943C138E85811105C0CE010A960E942B
:102940007E0C06C0823051F4CE010A960E94981681
:10295000882321F08EEF8093E80003C081E280930A
:10296000EB0062960FB6F894DEBF0FBECDBFDF91CD
:10297000CF91FF91EF91BF91AF919F918F917F91F7
:102980006F915F914F913F912F911F910F91FF9008
:10299000EF900F900FBE0F901F9018958093E90055
:1029A0008091F200882319F08AE38093E80008956B
:1029B0001F920F920FB60F9211242F933F934F93B4
:1029C0005F936F937F938F939F93AF93BF93EF9397
:1029D000FF938091E1001092E10083FF0FC01092FD
:1029E000E90091E09093EB001092EC0092E3909359
:1029F000ED001092660498E09093F00082FF1DC0F5
:102A000083E00E94CE1480916804882339F080917D
:102A10006804815080936804882369F0809167047A
:102A2000882359F080916704815080936704811155
:102A300004C0289A02C05D9AF1CFFF91EF91BF9137
:102A4000AF919F918F917F916F915F914F913F9146
:102A50002F910F900FBE0F901F9018951092660443
:102A600081E08093D70080EA8093D80082E189BD1D
:102A700009B400FEFDCF61E070E080E090E00E94CC
:102A8000EC0A80E98093D8008CE08093E2001092F9
:102A9000E000559A209A0895FC01808191810C9460
:102AA000A21ACF93DF93EC0188819981009711F0EE
:102AB0000E94A21A198218821D821C821B821A820D
:102AC000DF91CF9108950F931F93CF93DF93EC0184
:102AD0008B016F5F7F4F888199810E94311B009726
:102AE00031F0998388831B830A8381E001C080E0F1
:102AF000DF91CF911F910F910895CF93DF93EC0158
:102B000088819981892B29F08A819B818617970773
:102B100060F4CE010E946315882341F08C819D8171
:102B2000892B19F4E881F981108281E0DF91CF913E
:102B30000895EF92FF920F931F93CF93DF93EC01D1
:102B40007B018A01BA010E947D15811104C0CE016A
:102B50000E94511507C01D830C83B701888199819C
:102B60000E941F1CCE01DF91CF911F910F91FF900A
:102B7000EF900895FC011182108213821282158257
:102B800014826115710559F0FB0101900020E9F7ED
:102B9000AF0141505109461B570B0C9499150895EC
:102BA000CF93DF93EC016115710561F0FB0101909A
:102BB0000020E9F7AF0141505109461B570B0E9415
:102BC000991502C00E945115CE01DF91CF91089551
:102BD000EF92FF920F931F93CF93DF93EC017B0152
:102BE0000C811D816115710511F480E016C041153D
:102BF000510591F0040F151FB8010E947D1588231F
:102C0000A1F3288139818C819D81B701820F931FA7
:102C10000E941F1C1D830C8381E0DF91CF911F91C7
:102C20000F91FF90EF900895CF93DF9300D0CDB731
:102C3000DEB769831A8241E050E0BE016F5F7F4FCB
:102C40000E94E8150F900F90DF91CF910895FC013D
:102C500024813581232B31F421E061157105A1F028
:102C6000FB0108C0FC01808191816115710531F47F
:102C700021E0FC018081882339F005C00E94161CE8
:102C800021E0892B09F020E0822F08950895FF921A
:102C90000F931F93CF93DF93EC01F62EE881F98118
:102CA0000480F581E02D09958C01E881F981068089
:102CB000F781E02D6F2DCE010995C8019927DF918D
:102CC000CF911F910F91FF900895FC0120812F5FFC
:102CD000208349E150E06EE872E080E80C944713ED
:102CE00045E650E067EA72E080E80C944713EF9203
:102CF000FF920F931F93CF93DF931F92CDB7DEB751
:102D000089838B017A0141E050E0BE016F5F7F4F04
:102D100084E00E94AC12A701B80184E40E94AC12C6
:102D20000F90DF91CF911F910F91FF90EF90089539
:102D3000FC0191818081813A31F481E0913091F000
:102D4000933089F411C0813271F49B3021F4828177
:102D50008093200105C09A3031F4828180931F0155
:102D600081E00895089580E0089548E050E082E011
:102D70000C947716CF93DF93DC01683818F0E8E7FE
:102D8000E60F25C0E62FF0E067FF11C0E058F1091B
:102D900081E090E001C0880FEA95EAF714969C91D3
:102DA0001497982B14969C931497E0E010C0E25F60
:102DB000FD4FE491EE2309F440C0E7FF08C01496EC
:102DC0008C911497826014968C931497EF771696D3
:102DD0008C9116978E1741F117968C9117978E1735
:102DE00019F118968C9118978E17F1F019968C910D
:102DF00019978E17C9F01A968C911A978E17A1F011
:102E00001B968C911B978E1779F080E090E0ED0176
:102E1000C80FD91F2E81211102C0EE8305C0019673
:102E200086309105A1F709C0BD016C5F7F4FCD01D0
:102E30000E94B51681E090E008C081E090E0139612
:102E40009C938E93129780E090E0DF91CF9108954C
:102E5000683818F0E8E7E60F25C0E62FF0E067FFD6
:102E600012C0E058F10921E030E001C0220FEA95DC
:102E7000EAF72095DC0114963C91149732231496BE
:102E80003C93E0E00FC0E25FFD4FE491EE2329F1B7
:102E9000E7FF08C0DC0114962C9114972D7F14963F
:102EA0002C93EF7720E030E0EE2351F0DC01A20F0D
:102EB000B31F16964C9116974E1302C016961C928D
:102EC0002F5F3F4F2630310579F7BC016C5F7F4F94
:102ED0000E94B51681E090E0089580E090E00895AA
:102EE000FC011682178210861186128613861482C0
:102EF000BC016C5F7F4F0C94B51610927504109254
:102F00006C0410926B0481E892E090936A048093C1
:102F1000690408955058BB27AA270ED075C166D101
:102F200030F06BD120F031F49F3F11F41EF45BC1FF
:102F30000EF4E095E7FB51C1E92F77D180F3BA1782
:102F4000620773078407950718F071F49EF58FC127
:102F50000EF4E0950B2EBA2FA02D0B01B9019001B4
:102F60000C01CA01A0011124FF27591B99F0593FF8
:102F700050F4503E68F11A16F040A22F232F342F40
:102F80004427585FF3CF469537952795A795F0408E
:102F90005395C9F77EF41F16BA0B620B730B840BA3
:102FA000BAF09150A1F0FF0FBB1F661F771F881F5B
:102FB000C2F70EC0BA0F621F731F841F48F48795B3
:102FC00077956795B795F7959E3F08F0B3CF9395A2
:102FD000880F08F09927EE0F979587950895D9D017
:102FE00008F481E008950CD00FC107D140F0FED065
:102FF00030F021F45F3F19F0F0C0511139C1F3C036
:1030000014D198F39923C9F35523B1F3951B550BAC
:10301000BB27AA2762177307840738F09F5F5F4FAB
:10302000220F331F441FAA1FA9F333D00E2E3AF0EC
:10303000E0E830D091505040E695001CCAF729D006
:10304000FE2F27D0660F771F881FBB1F2617370755
:103050004807AB07B0E809F0BB0B802DBF01FF2785
:1030600093585F4F2AF09E3F510568F0B6C000C1EB
:103070005F3FECF3983EDCF3869577956795B795BF
:10308000F7959F5FC9F7880F911D9695879597F9DA
:103090000895E1E0660F771F881FBB1F6217730753
:1030A0008407BA0720F0621B730B840BBA0BEE1F68
:1030B00088F7E095089504D06894B111D9C00895B7
:1030C000BCD088F09F5790F0B92F9927B751A0F046
:1030D000D1F0660F771F881F991F1AF0BA95C9F7AC
:1030E00012C0B13081F0C3D0B1E00895C0C0672FE5
:1030F000782F8827B85F39F0B93FCCF3869577955C
:103100006795B395D9F73EF4909580957095619544
:103110007F4F8F4F9F4F0895E89409C097FB3EF46F
:1031200090958095709561957F4F8F4F9F4F992314
:10313000A9F0F92F96E9BB279395F6958795779592
:103140006795B795F111F8CFFAF4BB0F11F460FF52
:103150001BC06F5F7F4F8F4F9F4F16C0882311F0AA
:1031600096E911C0772321F09EE8872F762F05C0BE
:10317000662371F096E8862F70E060E02AF09A9559
:10318000660F771F881FDAF7880F9695879597F94E
:103190000895990F0008550FAA0BE0E8FEEF1616E8
:1031A0001706E807F907C0F012161306E407F5073B
:1031B00098F0621B730B840B950B39F40A2661F0AF
:1031C000232B242B252B21F408950A2609F4A14052
:1031D000A6958FEF811D811D089597F99F6780E85F
:1031E00070E060E008959FEF80EC089500240A9459
:1031F0001616170618060906089500240A941216D2
:103200001306140605060895092E0394000C11F404
:10321000882352F0BB0F40F4BF2B11F460FF04C0B1
:103220006F5F7F4F8F4F9F4F089557FD9058440F0A
:10323000551F59F05F3F71F04795880F97FB991F15
:1032400061F09F3F79F087950895121613061406D2
:10325000551FF2CF4695F1DF08C01616170618065F
:10326000991FF1CF86957105610508940895E8943A
:10327000BB2766277727CB0197F908958ADF08F4E3
:103280008FEF08950BD0C0CFB1DF28F0B6DF18F074
:10329000952309F0A2CFA7CF1124EACFC6DFA0F370
:1032A000959FD1F3950F50E0551F629FF001729FDB
:1032B000BB27F00DB11D639FAA27F00DB11DAA1FFA
:1032C000649F6627B00DA11D661F829F2227B00D47
:1032D000A11D621F739FB00DA11D621F839FA00DD2
:1032E000611D221F749F3327A00D611D231F849F22
:1032F000600D211D822F762F6A2F11249F57504079
:103300008AF0E1F088234AF0EE0FFF1FBB1F661F13
:10331000771F881F91505040A9F79E3F510570F0CC
:103320005CCFA6CF5F3FECF3983EDCF386957795B4
:103330006795B795F795E7959F5FC1F7FE2B880FC7
:10334000911D9695879597F9089523DF880B990B22
:103350000895A1E21A2EAA1BBB1BFD010DC0AA1FD6
:10336000BB1FEE1FFF1FA217B307E407F50720F0EE
:10337000A21BB30BE40BF50B661F771F881F991F69
:103380001A9469F760957095809590959B01AC01B2
:10339000BD01CF010895052E97FB1EF400940E94F5
:1033A000E21957FD07D00E94A91907FC03D04EF47B
:1033B0000C94E21950954095309521953F4F4F4F11
:1033C0005F4F089590958095709561957F4F8F4FD1
:1033D0009F4F0895EE0FFF1F0590F491E02D099483
:1033E000A29FB001B39FC001A39F700D811D112446
:1033F000911DB29F700D811D1124911D08950E9491
:10340000F019A59F900DB49F900DA49F800D911D64
:1034100011240895CF93DF938230910510F482E058
:1034200090E0E0917804F091790420E030E0A0E0B1
:10343000B0E0309739F14081518148175907B8F011
:103440004817590771F482819381109729F01396D8
:103450009C938E9312972CC0909379048093780458
:1034600027C02115310531F04217530718F0A90183
:10347000DB0101C0EF019A01BD01DF010280F38190
:10348000E02DD7CF21153105F9F0281B390B243059
:10349000310580F48A819B816115710521F0FB0162
:1034A0009383828304C09093790480937804FE010F
:1034B000329644C0FE01E20FF31F81939193225094
:1034C0003109398328833AC02091760430917704FA
:1034D000232B41F4209102013091030130937704B2
:1034E00020937604209100013091010121153105CE
:1034F00041F42DB73EB74091040150910501241BC2
:10350000350BE0917604F0917704E217F307A0F40D
:103510002E1B3F0B2817390778F0AC014E5F5F4F29
:103520002417350748F04E0F5F1F509377044093E0
:1035300076048193919302C0E0E0F0E0CF01DF9147
:10354000CF910895CF93DF93009709F487C0FC01D2
:10355000329713821282C0917804D0917904209717
:1035600081F420813181280F391F80917604909158
:1035700077048217930779F5F0937704E093760444
:103580006DC0DE0120E030E0AE17BF0750F41296A8
:103590004D915C9113979D014115510509F1DA0197
:1035A000F3CFB383A28340815181840F951F8A1783
:1035B0009B0771F48D919C911197840F951F029632
:1035C0009183808312968D919C911397938382832C
:1035D0002115310529F4F0937904E09378043EC075
:1035E000D9011396FC93EE9312974D915D91A40F20
:1035F000B51FEA17FB0779F480819181840F951F2D
:103600000296D90111969C938E9382819381139691
:103610009C938E931297E0E0F0E08A819B81009763
:1036200019F0FE01EC01F9CFCE0102962881398113
:10363000820F931F20917604309177042817390761
:1036400069F4309729F4109279041092780402C03A
:1036500013821282D0937704C0937604DF91CF91C6
:103660000895A0E0B0E0E7E3FBE10C942D1CEC0131
:10367000CB01209719F40E940A1AB8C0FE01E60F88
:10368000F71F9E0122503109E217F30708F4ACC07E
:10369000D9010D911C91119706171707B8F0053045
:1036A000110508F49FC0A801445051094617570757
:1036B00008F498C002501109061B170B01931193CF
:1036C0006D937C93CF010E94A21A8CC05B01A01A5B
:1036D000B10A4E01800E911EA0917804B091790438
:1036E000612C712C60E070E0109709F449C0A815B6
:1036F000B905C9F5ED90FC901197670142E0C40E41
:10370000D11CCA14DB0478F147018A189B086401B4
:1037100042E0C40ED11C1296BC9012971396AC9145
:10372000B5E0CB16D10440F0B282A38391828082AF
:10373000D9018D939C9309C00E5F1F4F0E0D1F1D65
:10374000F90111830083EB2DFA2F6115710531F01A
:10375000DB011396FC93EE93129744C0F093790427
:10376000E09378043FC06D917C91119766167706BF
:1037700008F43B01BD0112960D90BC91A02DB4CF71
:10378000609176047091770468157905E9F46816FC
:103790007906D0F440910001509101014115510585
:1037A00041F44DB75EB76091040170910501461B6D
:1037B000570BE417F507C0F4F0937704E093760411
:1037C000F901918380830EC00E940A1A7C01009740
:1037D00059F0A801BE010E940D1CCE010E94A21A40
:1037E000C70104C0CE0102C080E090E0CDB7DEB7D3
:1037F000EEE00C94491C85FD29C08062911126C021
:1038000081568A51E0F70895FB01DC0102C0059062
:103810000D9241505040D8F70895FB01DC0102C0E1
:1038200001900D9241505040D8F70895FB01DC0102
:103830008D91019080190110D9F3990B0895FB0126
:10384000DC0101900D920020E1F708959927882767
:1038500008952F923F924F925F926F927F928F9234
:103860009F92AF92BF92CF92DF92EF92FF920F930F
:103870001F93CF93DF93CDB7DEB7CA1BDB0B0FB619
:10388000F894DEBF0FBECDBF09942A8839884888D6
:103890005F846E847D848C849B84AA84B984C8846C
:1038A000DF80EE80FD800C811B81AA81B981CE0F63
:1038B000D11D0FB6F894DEBF0FBECDBFED01089548
:1038C00013E0C6E1D3E004C0FE010E94EC19229689
:0A38D000C831D107C9F7F894FFCF03
:1038DA0000007A0480000000403E0000403E0132B1
:1038EA000000001400000000E100000000000001D8
:1038FA000173656E736F72205B00226164733131EC
:10390A003135222C0022727463222C002274696DD4
:10391A0065225D0064617461207B002274696D65B3
:10392A00223A5B002C2261647331313135223A5BD1
:10393A00002C22727463223A5B0076657273696F97
:10394A006E00736B65746368207B226E616D6522FD
:10395A003A22004C6973655F4D61696E00222C2220
:10396A0076657273696F6E223A2200312E302E30DC
:10397A002D70726572656C656173652E3700227DE4
:10398A00006C6973657374617274006C6973657332
:10399A00746F700073616D706C6572617465007527
:1039AA007064617465207B226E616D65223A2273B0
:1039BA00616D706C6572617465222C2276616C751A
:1039CA0065223A007D0A006761696E00757064615C
:1039DA007465207B226E616D65223A226368616E8E
:1039EA006E656C31222C22706172616D657465722C
:1039FA00223A226761696E222C2276616C756522F1
:103A0A003A006761696E680073656E736F720000D1
:103A1A00000000A30576054B0553056605750500EC
:103A2A00000000160C5D0C400C500C2C0C3D0C00D8
:103A3A000000006E0DEE0EF00C090DFB0C4C0D6E25
:103A4A00616E00696E66006F7666002E00000000E7
:0C3A5A00004716EE0EBA16281770170071
:1070000055C000006EC000006CC000006AC00000E7
:1070100068C0000066C0000064C0000062C00000DC
:1070200060C000005EC00000FCC400005AC0000048
:1070300058C0000056C0000054C0000052C00000FC
:1070400050C000005DC000004CC000004AC00000FD
:1070500048C0000046C0000044C0000042C000001C
:1070600040C000003EC000003CC000003AC000002C
:1070700038C0000036C0000034C0000032C000003C
:1070800030C000002EC000002CC000002AC000004C
:1070900028C0000026C0000024C0000022C000005C
:1070A00020C000001EC000001CC0000011241FBE34
:1070B000CFEFDAE0DEBFCDBF11E0A0E0B1E0E6E463
:1070C000FFE702C005900D92A63AB107D9F711E08B
:1070D000A6EAB1E001C01D92AF3BB107E1F74FD383
:1070E00030C78ECFF89410926F001092810081E02B
:1070F00085BF15BE47985D9A289A0C9400000895A4
:107100001F920F920FB60F9211242F938F939F937C
:10711000EF93FF9310928500109284008091A60156
:107120009091A701009741F001979093A701809358
:10713000A601892B09F45D9A8091A8019091A9017B
:10714000009741F001979093A9018093A801892BA2
:1071500009F4289A8091AC019091AD010196909329
:10716000AD018093AC01E0E0F0E0859194918F5FF8
:107170009F4F49F08091AA019091AB0101969093A5
:10718000AB018093AA01FF91EF919F918F912F9175
:107190000F900FBE0F901F90189584E08093E90028
:1071A0000DC08091E8008B778093E80003C08EB318
:1071B000882351F08091E80082FFF9CF8091E800A8
:1071C00085FFEFCF8091F1000895982F83E08093A1
:1071D000E9008091E80085FD0DC08091E8008E7780
:1071E0008093E80003C08EB3882369F08091E800A3
:1071F00080FFF9CF9093F1005D9884E690E0909342
:10720000A7018093A60108954F925F926F927F929B
:107210008F929F92AF92BF92CF92DF92EF92FF92A6
:107220000F931F93CF93DF9384E08093E9008091C5
:10723000E80082FF57C2289884E690E09093A90165
:107240008093A801AADF182F853481F48CE49DE196
:107250009093AB018093AA0107B600FCFDCFF9998A
:10726000FECF81E180935700E89503C0843519F47F
:1072700094DF8DE00DC28C34E1F38035D1F3843797
:1072800021F484E4A2DF80E003C2813611F489E5B1
:10729000FFC18134B1F481DF182F7FDF90E0880FC8
:1072A000991FAA2797FDA095BA2F312F330F20E001
:1072B000442737FD4095542F822B932BA42BB52BBD
:1072C000B8C1803711F483E5E3C1833549F4C0E0E8
:1072D000D1E089917ADF21E0C730D207D1F7D9C157
:1072E000863521F481E371DF80E3D2C1833731F445
:1072F00087E86BDF85E969DF8EE1CAC18536B9F4BD
:10730000E0E0F0E093E085E090935700E89507B661
:1073100000FCFDCF80935700E89507B600FCFDCF39
:10732000E058FF4FA0E7E030FA0771F7A2CF8237AD
:1073300039F4E1E0F0E089E0809357008491A8C13E
:10734000863439F4E0E0F0E089E0809357008491DE
:107350009FC18E3439F4E3E0F0E089E08093570078
:10736000849196C1813539F4E2E0F0E089E08093C0
:10737000570084918DC1823631F489E526DF80E0A3
:1073800024DF80E885C1823419F0873609F0E5C032
:107390001092AB011092AA0100DF082FFEDEF82E3A
:1073A000FCDE682E8554823008F071C1902F80E099
:1073B000CF2DD0E0C82BD92B10926F00173609F0D3
:1073C0004BC081E180935700E895DD24CC24C39421
:1073D0003FC0E090AF01F090B0010091B101109179
:1073E000B201B6E46B16D9F4ED2DF0E0EE29FF29D9
:1073F000E4918E2FEADEDD2081F082E090E0A0E0D3
:10740000B0E0E80EF91E0A1F1B1FE092AF01F092D8
:10741000B0010093B1011093B201DC2418C0D8016F
:10742000C701B695A7959795879575D5CEDE82E06D
:1074300090E0A0E0B0E0E80EF91E0A1F1B1FE092EA
:10744000AF01F092B0010093B1011093B201219706
:10745000209709F0BECF7DC08090AF019090B00121
:10746000A090B101B090B20196E4691609F05DC038
:1074700083E0F40180935700E89507B600FCFDCF48
:1074800054C0F6E46F1661F5772031F1E090AF015A
:10749000F090B0010091B1011091B2017EDED82EC2
:1074A000CC24852D90E08C299D29F7010C01409278
:1074B0005700E895112482E090E0A0E0B0E0E80EEB
:1074C000F91E0A1F1B1FE092AF01F092B00100935A
:1074D000B1011093B20102C060DE582E742423C0A3
:1074E000E090AF01F090B0010091B1011091B201B4
:1074F00016950795F794E79450DE682FC70113D5CA
:107500008091AF019091B001A091B101B091B20111
:107510000296A11DB11D8093AF019093B001A0937D
:10752000B101B093B201219704C0552477244424BB
:107530004394209709F0A5CF96E4691641F485E0BD
:10754000F40180935700E89507B600FCFDCF8DE06D
:107550003CDE82E080936F009CC0833471F4009124
:10756000AF011091B00119DE90E021E0F8010C01AB
:1075700020935700E89511247CCE833619F5E090CE
:10758000AF01F090B0010091B1011091B20105DEA0
:10759000F701E16090E021E00C0120935700E895AD
:1075A000112482E090E0A0E0B0E0E80EF91E0A1F8E
:1075B0001B1FE092AF01F092B0010093B101109354
:1075C000B20157CE8D3661F4E091AF01F091B00178
:1075D00085E080935700E89507B600FCFDCF49CEC3
:1075E000823551F4E091AF01F091B0010591149111
:1075F000812FEBDD802F4CC0843421F5E090AF016A
:10760000F090B0010091B1011091B201169507956B
:10761000F794E794C2DD682FC70185D48091AF014C
:107620009091B001A091B101B091B2010296A11D5B
:10763000B11D8093AF019093B001A093B101B093BD
:10764000B20117CE843609F5E090AF01F090B00199
:107650000091B1011091B201D801C701B695A7956B
:107660009795879558D4B1DD82E090E0A0E0B0E036
:10767000E80EF91E0A1F1B1FE092AF01F092B00145
:107680000093B1011093B20104C08B3111F08FE36C
:107690009CDD83E08093E9009091E8008091E80010
:1076A0008E778093E80095FF04C010C08EB38823C6
:1076B000C9F08091E80080FFF9CF8091E8008E77D3
:1076C0008093E80003C08EB3882361F08091E800C6
:1076D00080FFF9CF84E08093E9008091E8008B7708
:1076E0008093E800DF91CF911F910F91FF90EF9071
:1076F000DF90CF90BF90AF909F908F907F906F90D2
:107700005F904F9008959091B701892F8F778132C4
:1077100049F58091B8018032A1F0813219F5913A92
:1077200009F58091E800877F8093E8008CE091E084
:1077300067E070E027D28091E8008B778093E800C3
:107740000895913279F48091E800877F8093E80072
:107750008CE091E067E070E079D28091E8008E776C
:107760008093E800089582E061EC42E0D1D083E0AC
:1077700061E842E1CDD084E060E842E1C9C01F93F6
:10778000209100081092000844B714BE88E10FB69B
:10779000F89480936000109260000FBE80E8E0E0F3
:1077A000F0E00FB6F89480936100E09361000FBEA3
:1077B00031E035BF92E095BF3F9A209A559A809369
:1077C00061001092610047985D9A289A1092890092
:1077D0008AEF8093880090936F0083E0809381000C
:1077E000859194918F5F9F4F11F03093AE01942F4C
:1077F00041FF19C0809109012817A9F08093000862
:10780000789480911301882339F08091AC01909194
:10781000AD018F5E9240C8F310920008F89481E0A9
:10782000809313010CC090FF04C08091AE018823A7
:1078300051F493FF09C080910901281729F0809124
:10784000AE01882309F04EDCD4D078941092AB01BD
:107850001092AA011EEF20C0D7DC4BD38091AA0161
:107860009091AB0181549F4110F0109213018091CF
:10787000B3019091B40101969093B4018093B30148
:10788000292F97FF03C0512F591B252F220F28178F
:1078900010F4479801C0479A809113018823E1F6BC
:1078A0008091E00081608093E0001CDC80E090E04B
:1078B0001F910895FA01923049F0933061F09130B0
:1078C000F9F484E191E022E130E01EC086E291E02B
:1078D0002EE330E019C0882329F484E691E024E007
:1078E00030E012C0813029F488E691E022E230E0F5
:1078F0000BC0823029F48CE891E028E130E004C02C
:1079000080E090E020E030E091838083C901089519
:107910008093E9008091EB0081608093EB001092EE
:10792000ED006093EC004093ED008091EE00881F25
:107930008827881F08958091B70188238CF403C09D
:107940008EB38823B1F08091E80082FFF9CF809157
:10795000E8008B778093E80008958EB3882349F080
:107960008091E80080FFF9CF8091E8008E778093C6
:10797000E8000895EF92FF920F931F9345D04CD0EB
:1079800008ED10E0F80180818F7780838081806826
:10799000808380818F7D808319BC1EBA1092B501CF
:1079A00080EEE82EF12CF70180818B7F8083F80137
:1079B00080818160808380E060E042E0A9DFE1EEC9
:1079C000F0E080818E7F8083E2EEF0E08081816054
:1079D0008083808188608083F70180818E7F8083AF
:1079E000F8018081806180831F910F91FF90EF905B
:1079F0000895E7EDF0E08081816080838AE482BFB2
:107A000081E08093B601B6CFE8EDF0E080818E7F13
:107A100080831092E20008951092DA001092E10043
:107A200008951F920F920FB60F9211242F933F9338
:107A30004F935F936F937F938F939F93AF93BF9376
:107A4000EF93FF938091DA0080FF1BC08091D800F4
:107A500080FF17C08091DA008E7F8093DA008091DA
:107A6000D90080FF0BC080E189BD82E189BD09B4E6
:107A700000FEFDCF81E08EBB3BD203C019BC1EBA15
:107A800037D28091E10080FF17C08091E20080FF33
:107A900013C08091E2008E7F8093E2008091E2002B
:107AA00080618093E2008091D80080628093D8004A
:107AB00019BC85E08EBB1CD28091E10084FF2CC0F4
:107AC0008091E20084FF28C080E189BD82E189BD08
:107AD00009B400FEFDCF8091D8008F7D8093D8003F
:107AE0008091E1008F7E8093E1008091E2008F7EA3
:107AF0008093E2008091E20081608093E2008091B7
:107B0000B501882331F48091E30087FD02C081E054
:107B100001C084E08EBBECD18091E10083FF21C0E5
:107B20008091E20083FF1DC08091E100877F8093F8
:107B3000E10082E08EBB1092B5018091E1008E7F62
:107B40008093E1008091E2008E7F8093E20080913B
:107B5000E20080618093E20080E060E042E0D8DEF5
:107B6000C7D1FF91EF91BF91AF919F918F917F917D
:107B70006F915F914F913F912F910F900FBE0F909A
:107B80001F9018959C014091BD015091BE01461770
:107B9000570718F4F90190E044C06115710511F020
:107BA000AB01F8CF8091E8008E778093E80040E049
:107BB00050E0F0CF8EB3882309F444C0853009F437
:107BC00043C08091E80083FF02C081E00895809166
:107BD000E80082FD31C08091E80080FF22C08091E2
:107BE000F3009091F200782F60E0292F30E0262BEF
:107BF000372B07C081918093F100415050402F5F97
:107C00003F4F4115510519F02830310598F390E0A8
:107C10002830310509F491E08091E8008E77809357
:107C2000E8004115510531F6992321F605C08EB3C0
:107C3000882341F0853041F08091E80082FFF7CF42
:107C400080E0089582E0089583E008959C01611525
:107C5000710529F48091E8008B778093E800F901A1
:107C600026C08EB3882391F1853091F18091E80090
:107C700083FF02C081E008958091E80082FFF1CF88
:107C800006C08091F10081936150704059F02091BD
:107C9000F3008091F200322F20E090E0822B932BB2
:107CA000892B79F78091E8008B778093E800611544
:107CB0007105B9F605C08EB3882341F0853041F0D7
:107CC0008091E80080FFF7CF80E0089582E008957A
:107CD00083E008950F931F93DF93CF9300D0CDB728
:107CE000DEB7E7EBF1E08091F100819381E0EF3BBB
:107CF000F807C9F708DD8091E80083FFE4C08091B0
:107D0000B7019091B801953009F46DC0963040F4F8
:107D1000913081F1913070F0933009F0D4C02AC0D5
:107D2000983009F4A3C0993009F4B2C0963009F034
:107D3000CAC07CC0803809F4C6C0823809F0C3C00C
:107D40008091BB0187708093E9008091EB001092D5
:107D5000E9002091E800277F2093E80090E025E0EB
:107D6000969587952A95E1F781708093F10010929E
:107D7000F10087C0882319F0823009F0A4C08F7108
:107D8000823009F0A0C08091B901882331F520919B
:107D9000BB01277009F497C02093E9008091EB00A4
:107DA00080FF1BC0933021F48091EB00806213C0F0
:107DB0008091EB0080618093EB0081E090E002C055
:107DC000880F991F2A95E2F78093EA001092EA0043
:107DD0008091EB0088608093EB001092E900809125
:107DE000E800877F51C0882309F06DC01091B90168
:107DF0001F770FB7F8948091E800877F8093E800A1
:107E00009ADD8091E80080FFFCCF8091E3008078CC
:107E1000812B8093E30080688093E300112311F4A9
:107E200082E001C083E08EBB0FBF4DC0805882301E
:107E300008F049C08091B9019091BA016091BB01ED
:107E4000AE014F5F5F4F36DDBC01009709F43BC0C8
:107E50008091E800877F8093E80089819A8192DE93
:107E60008091E8008B778093E8002DC0803859F529
:107E70008091E800877F8093E8008091B50180932E
:107E8000F1008091E8008E778093E80054DD1BC0FC
:107E90008823C9F49091B9019230A8F48091E80048
:107EA000877F8093E8009093B50145DD8091B5010F
:107EB000882331F48091E30087FD02C081E001C096
:107EC00084E08EBB50DC8091E80083FF0AC0809183
:107ED000EB0080628093EB008091E800877F8093C5
:107EE000E8000F900F90CF91DF911F910F910895AF
:107EF00008951F938EB3882361F01091E9001092CA
:107F0000E9008091E80083FF01C0E4DE1770109360
:107F1000E9001F910895F999FECF92BD81BDF89AAD
:107F2000992780B50895262FF999FECF1FBA92BDE3
:107F300081BD20BD0FB6F894FA9AF99A0FBE01964A
:067F40000895F894FFCF44
:107F46004341544552494E41007700080000000065
:107F5600000008011201100102000008412341003F
:107F660001000201000109023E00020100803209FF
:107F7600040000010202010005240010010424028D
:107F8600040524060001070582030800FF09040111
:107F960000020A000000070504021000010705831D
:107FA6000210000104030904220341007200640068
:107FB600750069006E006F002000590075006E00A4
:107FC60020002000200020002000000018034100AF
:107FD60072006400750069006E006F0020004C009E
:067FE6004C004300000006
:040000030000700089
:00000001FF
